:020000022000DC
:106000000000042079630200616302006363020000
:10601000656302006763020069630200000000001C
:106020000000000000000000000000006B630200A0
:106030006D630200000000006F63020071630200E4
:106040003983020073630200458802007363020013
:106050007363020073630200A1860200736302008F
:1060600073630200736302007363020073630200D0
:1060700073630200736302007363020073630200C0
:106080007363020095710200736302007363020080
:10609000317202007363020009A6020073630200FA
:1060A0007363020073630200736302007363020090
:1060B0007363020073630200000000000000000030
:1060C0007363020073630200736302007363020070
:1060D0007363020073630200736302007363020060
:1060E0007363020073630200736302000000000028
:1060F00000000000736302000000000073630200F0
:10610000000000000000000000000000000000008F
:10611000000000000000000000000000000000007F
:10612000000000000000000000000000000000006F
:10613000000000000000000000000000000000005F
:10614000000000000000000000000000000000004F
:10615000000000000000000000000000000000003F
:10616000000000000000000000000000000000002F
:10617000000000000000000000000000000000001F
:10618000000000000000000000000000000000000F
:1061900000000000000000000000000000000000FF
:1061A00000000000000000000000000000000000EF
:1061B00000000000000000000000000000000000DF
:1061C00000000000000000000000000000000000CF
:1061D00000000000000000000000000000000000BF
:1061E00000000000000000000000000000000000AF
:1061F000000000000000000000000000000000009F
:10620000364937480A1A02D0072291438D4635494C
:1062100035480A1A06D00722914381F309880222E1
:1062200082F3148831483249324A00F045F8324846
:106230003249334A00F040F832483349334A00F0DB
:106240003BF833483349344A00F036F83348344990
:10625000344A00F031F834483449354A00F02CF81B
:1062600034483549354A00F027F835483549002289
:1062700000F02DF834483549002200F028F8344861
:106280003449091A082903DB002202600430016046
:10629000314A90471F482049884205D0026804309F
:1062A00003B4904703BCF7E700208646EC46002085
:1062B00000212A4A9047FEE7884207D0521A05D0AB
:1062C000037801300B700131013AF9D170478842EF
:1062D00002D002700130FAE770470000000004208D
:1062E00000E00320000004200000042094B8020015
:1062F000E022002030230020D8630200D86302008F
:1063000072AA020094B80200E0220020E0220020DD
:1063100048AB020048AB020048AB020048AB0200A9
:1063200048AB020048AB020048AB020048AB020099
:1063300094B80200E4B8020030230020302300208B
:1063400030230020BC2C0020BC2C0020BC2C0020C2
:10635000BC2C0020BC4C0020A1630200E193020091
:10636000FEE7FEE7FEE7FEE7FEE7FEE7FEE7FEE705
:10637000FEE7FEE7704700BF1048804710484FF027
:106380000701884385460F4880470F48016841F45C
:1063900070010160BFF34F8FBFF36F8FFFF730BF06
:1063A0000A480B490B4A884207D0521A05D0037895
:1063B00001300B700131013AF9D170477563020069
:1063C00000000420117E020088ED00E048AB0200CE
:0863D000E0220020E022002081
:1063D800F0B595B01C46164608460D4601F055FC2A
:1063E8001A9B0D93CDE9086400242346082205A9C9
:1063F80028460A948DF82C400C9401F064FC079B05
:106408000293BDF81830ADF80C30BDF81A30ADF86D
:106418000E309DF814308DF8114003F00302012A64
:106428001DD1BDF81440059EC3F3C203C4F3831401
:106438008DF81030A20008230EA9284601F043FC6D
:10644800C6F3952608AB0093224602AB0EA9304648
:1064580000F0D6FB284601F01CFC15B0F0BD022A5E
:10646800F8D1BDF81640C3F3C203A4098DF8103063
:106478000827082C264628BF08263B4632460EA980
:10648800284601F020FCA41B08AB02AA31460EA83E
:10649800374400F019FC002CEBD1DBE7014B01225B
:1064A8001A707047712300207047000070B50E4DB8
:1064B80006460FCD88B06C460FC495E80F0084E8F7
:1064C8000F0008A9002E4FF00603084A41F8203DA6
:1064D80008BF0022064801F0C1FE08B100F0A8FD7F
:1064E800044B1E7008B070BD48AB0200A5640200E2
:1064F800E02200203023002007B5044B0093044A13
:106508004023FFF765FF03B05DF804FB1D6502003B
:106518003123002038B50D4B0D4D002018700D4863
:1065280004782D5DD2B21C4665B1043002F0E6FD58
:1065380008B100F07DFD084B1A7812B12378002BC2
:10654800FBD038BD0C3002F0C1FBF1E7712300200D
:10655800A02A0020E02200203023002008B50848A7
:10656800084A0378D35C3BB1043002F071FD002087
:10657800BDE80840FFF79ABF0C3002F051FBF6E780
:10658800E0220020A02A00200120FFF78FBF000092
:1065980008B5FFF7F9FF0421034800F09FFA034B01
:1065A80001225A7108BD00BF38AB0200F422002056
:1065B800037813F0040216D003F00303012B03D071
:1065C800022B09D0012070470A6800880232C0F304
:1065D800831002440A60F5E70B684288023303EB34
:1065E80092130B60EEE71046704700002DE9F04F5C
:1065F80089B00546861C08A8484C019200230F461E
:1066080000F8113D00F0FCFF23683B60D4E901234A
:106618001344226801339B1A04F21C4704F5836A69
:1066280004F21448B3421AD3019A0023002A6DD009
:10663800012262F3010343F0040365F3891321681F
:10664800A2689DF80F000A4003320E4444F8223035
:10665800266000F0F9FF012009B0BDE8F08F0121A4
:10666800384601F04EF8504601F061F8404601F016
:106678005EF80DF120096068D4F808B049F8100DEB
:1066880000EA0B00033004EB80004946FFF790FF57
:10669800049BB0B90BEA030204EB8202D1680591AE
:1066A8009A1C013303EA0B0B04EB8B0C01F0030378
:1066B800012B0492DCF80CB020D0022B04D08346C6
:1066C8000BE00BEA0300DDE7BDF816309B09033346
:1066D8004FEA1B4B02EB93030493404601F02AF860
:1066E80008B1049B63605946384601F00AF8D4E9BA
:1066F80001231344226801339B1A93E7BDF8143031
:10670800C3F383134FEA1B4B1344E5E7022262F3FA
:10671800010343F0040365F39F5390E744240020EA
:106728000B4B0C48FF2210B59A600022C3F81824BE
:10673800C3E90022C3F8142483F8202401F05EFA88
:10674800044610B9044801F007FB204610BD00BFFD
:1067580044240020C4AA020088AB020030B50A4CC9
:1067680071B10A4A0A49121BD20800239A4201D180
:10677800002030BD31F82350854202D00133F5E7BF
:10678800034654F83300F4E7D8AA020038AB0200F5
:10679800E0220020094B013903EBC000032909D886
:1067A800DFE801F00A020406042070470079704708
:1067B800407970470020704702207047D8AA02002D
:1067C800034BD3E90030C31A58425841704700BF01
:1067D800442400202DE9F04387B0FFF7F1FF064677
:1067E800002840F0FC807F4DC5F81804BFF34F8F98
:1067F8006868AC6806AF47F8100D2040033005EB19
:1068080080003946FFF7D4FE029B18B1D5F818244A
:10681800002A5FD004EA0302991C013305EB8202C7
:10682800234005EB8303D268DB68049302F003037B
:10683800022B0392029162D1BDF80E306A484FEAEA
:106848009318B8F1500FC14628BF4FF0500969F3AB
:106858008F1309F10801ADF80E3001F0E7F907468A
:10686800002800F0A78001F010FA03A900230822ED
:10687800384601F01DFA029924EA01060136B600ED
:10688800B14535D95FFA89F97EB3F6B2A9EB0609A5
:10689800214003315FFA89F4B146544E05EB81017A
:1068A80008234A46384601F003FA36B109F10803CD
:1068B80022463146384601F0FBF9029B08F10308ED
:1068C80003EB98030293D5F81834002B4BD1D5F875
:1068D80010445BE02A689A4204D86A60304607B0E0
:1068E800BDE8F08304EA030088E740493446D7E767
:1068F8002140033108234A4605EB8101DAE7012BE1
:1069080058D1BDF80C303848C3F38311062928BF85
:10691800062161F3891302318900ADF80C3001F0CA
:1069280085F90746002845D001F0AFF90023082271
:1069380003A9384601F0BCF90026BDF80C20C2F3C3
:106948008312B31C96424FEA8303BCD202994A1CB5
:1069580021400331029205EB81010422384601F0FF
:10696800A7F90136E9E7384601F093F9FFF728FF60
:1069780080F00100C6B2B1E7E3685B7923B1236810
:1069880039461B6820469847E3681C68002CF3D1F9
:10699800384601F07EF906A800F8114D00F030FEE7
:1069A800D5F818340BB9029B6B609DF8070000F00E
:1069B8004BFEDBE7D5F8104454B90D4B0D480E4992
:1069C800C01AC008000440F0020000F06FF8CDE7DC
:1069D800236820469B689847E3681C68ECE7002614
:1069E8007CE700BF44240020C4AA020050240020F1
:1069F800D8AA020000AB020094AB02002DE9F74FC1
:106A0800284C80460F46924601A9012218469B460B
:106A1800D4F80890FFF7EAFD88B3019D0026A91C69
:106A28005E4506EB010234D100211F4800F03EFE0E
:106A380080F310006A1C02EA090204EB82020004D7
:106A480005EA0903033340EA1840D06014F823200C
:106A580068F3C50204F8232034F8232066F389126A
:106A680024F8232054F82320012167F39F2244F8B7
:106A7800232061F301026FF3820204F8232094F8C3
:106A880020341BB1FFF7A6FE0028FBD103B0BDE8F8
:106A9800F08F09EA020204EB82025AF82630D3602A
:106AA8000136BDE7442400206028002000231A4650
:106AB800FFF7A4BF13B502AC012344F8042D224606
:106AC800FFF79CFF02B010BD07B5CDE900230223F4
:106AD8006A46FFF793FF03B05DF804FB30B50F4932
:106AE800D1F81024002314463CB9C468237152B964
:106AF800C1F810042260184630BDE46825799D422B
:106B080006D02468F0E7D268116821601060F2E7C7
:106B180001330A2BE7D14FF0FF33ECE74424002080
:106B2800094A38B50123D2F8104482F820341D46AA
:106B380004B938BDE3685D71236820465B689847EF
:106B4800E3681C68F4E700BF44240020037A052B9F
:106B580010B50C460FD0437A23B1084A084920469D
:106B680000F049FE0749204600F045FE2046BDE8F2
:106B7800104000F035BE002AF8D0F3E7DFAB020082
:106B8800E4AB020004AC0200C38873B504460D46AA
:106B980033B1144A00921449144A284600F02BFED7
:106BA800217A05291CD0637A4BB1A088FFF7F2FD42
:106BB8000F4B104953F82020284600F01CFE227A7B
:106BC8000D4BA08853F822600021FFF7C7FD0B4941
:106BD80003463246284602B0BDE8704000F00BBEBE
:106BE80002B070BDDFAB0200EFAB0200E7AB020002
:106BF800ACAB0200E4AB020014AC020007AC02002C
:106C08002DE9F04385B01F460C9D002306460C462F
:106C1800904695F80C902B7329463846FFF7B4FF39
:106C2800B8F1060F09D8DFE808F00412181F283356
:106C380040003146284600F0DEFD0022294638464D
:106C4800FFF784FF85F80C9005B0BDE8F083226853
:106C58003146284600F0CFFDEFE7D4E9002331465E
:106C6800284600F0C8FDE8E7A36800933146D4E958
:106C78000023284600F0BFFDDFE7E3680193A3681F
:106C880000933146D4E90023284600F0B4FDD4E748
:106C980023690293E3680193A36800933146D4E91A
:106CA8000023284600F0A7FDC7E76369039323691B
:106CB8000293E3680193A36800933146D4E9002363
:106CC800284600F098FDB8E708292DE9F84F8046D6
:106CD8000E4617461C463AD8002593F80C901D73AB
:106CE80019461046FFF750FFDFF884A0DFF884B09C
:106CF800AE422ED918F805205946204600F07BFDF3
:106D08000135082DF4D11849DFF86CB0204600F0A1
:106D180072FD4FF0000A564520D918F80A507E2D0A
:106D280003D8284603F010FE00B92E252A465946F6
:106D3800204600F060FD0AF1010ABAF1080FEAD115
:106D4800012221463846FFF701FF84F80C90BDE880
:106D5800F88F5146204600F04EFDD1E70349204602
:106D680000F049FDE7E700BFDAAB0200D8AB02004C
:106D7800D6AB0200D0AB0200DCAB02002DE9F04F2D
:106D88003B4F89B000263B4B1B78F5B2AB4202D88B
:106D980009B0BDE8F08F384B196811F835000124A7
:106DA800A0F12002C0F1200304FA02F924FA03F347
:106DB80049EA0309D7E9002304FA00F8CDE90423D6
:106DC80002EA080203EA0903134301EBC50B4CD09E
:106DD800DDE9042322EA080223EA0903C7E90023BC
:106DE800079101F049FC0799844611F83500A0F194
:106DF8002002C0F1200324FA03F304FA02F21A4332
:106E080004FA00F300931D4B0192DDE90045D3E934
:106E1800002314401D4022462B465FFA8CF40025BF
:106E2800CDE90445049CA0F12005AC400394049CE2
:106E3800C0F1200124FA01F1039C0C430499039446
:106E480081400291DDE90245AB4208BFA2420CD164
:106E58009BF801104B1E59425941A1EB0C02DBF87B
:106E680004305142514103B1984701368BE700BFC6
:106E78003029002000290020382900202829002056
:106E88002DE9F84F0646244800F0AAFB002841D116
:106E98000123A6F12001C6F1200203FA01FB23FA1F
:106EA80002F203FA06FA1D4BD3E900014BEA020B82
:106EB80000EA0A0801EA0B0958EA09021F4623D129
:106EC800304601F0D9FB164BB8B1D3E9000140EACE
:106ED8000A0441EA0B05C3E90045D7E900234BEA58
:106EE8000305104B0C4819684AEA0204C7E9004533
:106EF8000022BDE8F84F00F02FBBD3E9000120EADB
:106F08000A0421EA0B05E6E720EA0A0421EA0B0550
:106F1800C3E90045BDE8F88F082900203029002082
:106F28002829002004290020042A2DE9F3410546D8
:106F38000C4616463AD901F0A3FAD8B11C4B1D49A4
:106F48001D601D4BDFF884801C701C4B00221E60E6
:106F58000023C1E900231A49C1E90023013CE4B236
:106F680000260327FF2C0CD1164A1748002100F0F1
:106F7800E1FA03E001F04EFA0028DFD002B0BDE8E4
:106F8800F08123B205EBC30201A992788DF80520A0
:106F980015F833008DF8066042468DF8047001F04C
:106FA80079FA013CE4B20028DCD0E7E70720E5E7FE
:106FB8003829002028290020002900200429002041
:106FC80030290020856D020074AC0200896E020031
:106FD80070B5084D084E00242B789C4201D3002040
:106FE80070BD3368012113F8340001F0D9FA013477
:106FF800F2E700BF002900203829002070B5094DAC
:10700800094E00242B789C4204D30848BDE8704000
:1070180000F0E6BA336813F8340001F00BFB0134D2
:10702800F0E700BF002900203829002008290020A7
:107038001FB50021039001AA44F20100CDE9011116
:1070480000F004F805B05DF804FB000010B572B656
:10705800FFF766FDFFF7BEFB0028FBD1104B114C74
:107068001149E41AE408240444F00100FFF71EFD66
:107078000E4B1B68DB0700D500BE0D4944F002002B
:10708800FFF714FDBFF34F8F0A490B4BCA6802F490
:10709800E0621343CB60BFF34F8F00BFFDE700BF33
:1070A800D8AA020000AB020078AC0200F0ED00E0C4
:1070B80084AC020000ED00E00400FA05094A5378A8
:1070C80091780133DBB2994208BF002311789942C5
:1070D8001FBF03705078182303FB002014BF04302F
:1070E800002070473C29002073B5054602A80024FB
:1070F80000F8014D0E4600F083FA0DF10600FFF787
:10710800DDFF90B106700A4B9DF8062045605A7065
:107118009DF8070000F098FA24B9064B4FF4801246
:10712800C3F80021204602B070BD0424F0E700BF78
:107138003C29002000E100E0024B4FF43C6043F0A2
:1071480001031847A0AC020038B50C4B0C4C4FF4A7
:107158000032C3F8802001254FF48033C4F8483347
:10716800C4F808336560FFF7E7FF064BA560002405
:107178001C60FFF7E1FF044B1C7038BD00E100E024
:1071880000100140582A0020492A0020F8B51F4B5A
:107198001F491B680025C1F84051C1F84451C1F886
:1071A8004851C1F84C51C1F80051C1F804514BB3D2
:1071B800D1F8044517490968641A24F07F442F461A
:1071C8001A68A24209D8A41A15441A7CDE691AB1B1
:1071D8001F74D3E905209047AEB90F4B0F4A1978B1
:1071E80013788B4205D10133DBB2022B08BF002391
:1071F800137012780A4B43F822500A4B4FF480124E
:10720800C3F80021F8BD3346DAE700BF5C2A002046
:1072180000100140582A0020542A0020552A002036
:107228004C2A002000E100E02DE9F74F9E4A9F49D3
:10723800137809789E4D99423CD00133DBB2022B7A
:1072480008BF002313709B4912789B4B0F6853F8B3
:1072580022003B1823F07F4300220B602B68164660
:107268001446944613B942B12B6006E0196881426E
:107278000ED902B12B60091A19604FF001082B686A
:10728800DFF83CA200930027BEB9DFF83CB260E00B
:10729800401A0C44D968C3F800C0D3F81CE031B1D7
:1072A8003A1922F07F42C3E90121DE611E4601221C
:1072B8007346D7E70026B046E1E73446F6697D4ACB
:1072C80063681268DFF804C2A068991A21F07F4148
:1072D800614500F2A58001442160012222742A68D8
:1072E8000023C4E90133E361002A40F0A2802C6046
:1072F800CAE75A1C9BF80210D2B291428BF80020C0
:1073080004BF00228BF80020182202FB03B32A686E
:1073180019799C68022974D003297ED0012918D1D3
:10732800217CB1B9DA6862601A69A2605A699B69FE
:10733800A361624BE2601B78002BC0D06160BEE79E
:107348009C4200F093809946DB69002BF8D100231A
:1073580023749BF800309BF801209A42C9D12B680E
:107368002FB9009A934202D1B8F1000F43D0002BF5
:1073780079D0D3F800A0524D4E4BD5F804751C684F
:10738800DFF84C813E1B98F8003026F07F46033624
:107398009BB94FF48033C5F84433C5F80433494BDF
:1073A8004FF400324FF00109C3F880211A60C5F884
:1073B8000090FFF7C1FE88F80090B2452CBF5444F6
:1073C800A41924F07F44C5F84045D5F80435DB1BE3
:1073D80023F07F43E41B033324F07F44A3420AD9FC
:1073E800D5F80435C5F84035FFF7A6FE354B4FF400
:1073F8000032C3F80021314B00221A7003B0BDE8F7
:10740800F08F13469146A0E71174D2690123002A30
:10741800FAD1002B9DD02A609BE700231946F6E796
:10742800D31A23F07F43834234BFC31A0023236057
:1074380053E721681368994213D8591A1160E26119
:1074480055E7091AD8691A4638B1034618688842B8
:10745800F7D3401A1860184613462160E061DC61D2
:1074680012E71346F2E7FFF76FFEC4E74C450DD16C
:10747800D3692B6053B90F4801920121CAF808104B
:1074880003600E4B1970FFF757FE019AE1692368F4
:10749800C9F81C1011B1086803440B602B689A42A4
:1074A80018BF012753E700BF542A0020552A00209F
:1074B8005C2A0020582A00204C2A0020482A002054
:1074C8000010014000E100E03C290020FEFF7F00A1
:1074D800492A002008B5FFF737FE104B00200B2281
:1074E80018809A700E4B18600E4B18700E4B18705F
:1074F8000E4B4FF48012C021C3F8802183F8141377
:107508001A6002F18042A2F56F22C2F8080583F8DA
:107518001113074BD2F804251A6008BD3C29002036
:107528005C2A0020542A0020552A002000E100E0AF
:10753800582A0020074B9B784BB132B128B1036819
:10754800187C20B959745A61704707207047082081
:10755800704700BF3C2900202DE9F7431D4FBB7839
:1075680005460E4690469BB390B304292ED943692D
:1075780073B3437C02A80024012B00F8014D0CBF13
:107588008946A14600F03CF80DF10600FFF796FD8C
:10759800D0B101230370104B4560D3F80435C0E91E
:1075A8000498C0E902369DF806307B709DF8070004
:1075B80000F04AF824B9094B4FF48012C3F80021AF
:1075C800204603B0BDE8F0830424EFE70724F7E77B
:1075D8000824F5E73C2900200010014000E100E004
:1075E800064A92783AB130B1426922B10022027457
:1075F8000221FFF779BD0820704700BF3C29002011
:1076080070B5EFF3108672B60C4A946801239CB9E2
:1076180093600B4B0B4DD3F8801029401160C3F8D1
:107628008050D3F8841051604FF0FF32C3F88420A3
:10763800047006B962B670BD0370FAE7602A0020CC
:1076480000E100E0FC06FFBD084B9A6810B55AB18E
:1076580050B9EFF3108172B6054A1C6814605C6873
:107668005460986001B962B610BD00BF602A00205E
:1076780000E100E001F01F024B090121914000EBFD
:10768800830000F01DB801F01F0301229A404B0946
:1076980000EB8300D14300F029B84B0901F01F012A
:1076A80050F82300C84000F00100704750E8002F50
:1076B8000B4640E8003C9CF0000FF7D1104670479D
:1076C80050E8003F43EA010240E8002C9CF0000F1C
:1076D800F6D11046704750E8002F02EA010340E84F
:1076E800003C9CF0000FF6D11046704750E8003F70
:1076F80003EA010240E8002C9CF0000FF6D1104686
:10770800704750E8003F03EB010240E8002C9CF072
:10771800000FF6D11046704750E8003FA3EB010276
:1077280040E8002C9CF0000FF6D11046704701216C
:10773800FFF7C6BF0021FFF7CEBF10B590B1D0E963
:10774800012301689B1ADBB20A60013BDBB2FF2B05
:10775800026802D10020107110BD11684C1C146021
:107768000B70F2E70E20F7E737B5054602A80024AC
:1077780000F8014DFFF744FF2A686B6811689942C9
:107788000ED9481E106011F8014CEB68298A01FBDC
:107798000434AB6811791B1ADBB2994238BF1371F4
:1077A8009DF80700FFF750FF204603B030BD37B5FE
:1077B800054602A8002300F8013D0C46FFF720FF0C
:1077C8002A681368591C1160E968641A298AB4FB8D
:1077D800F1F41C709DF80700FFF736FF03B030BDC9
:1077E800826810B504462AB1436901680069984760
:1077F8000023A36010BD0EB403B5039929B102AAF2
:1078080004AB42F8043D00F073F802B05DF804EBF5
:1078180003B070470A2938B504460D4602D10D2138
:10782800FFF7F8FFA3682268591CA160D554D4E972
:1078380001329A4204D32046BDE83840FFF7D0BF52
:1078480038BD00002DE9F84F9946DDE90A4317468F
:10785800824688460A460126BA420FD24E4538BFAC
:107868004E4613F0010B01D164B900240125B9F18A
:10787800010F1AD909F1FF397D43F8E7B2FBF7F296
:107888000136E9E79B070ED5B9F1000F0CBF30258B
:107898002025A642EAD2013C29465046FFF7BAFF06
:1078A800002CF6D1E1E72025F3E7B8FBF5F39F427A
:1078B800E2D9DFF83890B8FBF5F3504619F8031011
:1078C80005FB1388FFF7A6FFB5FBF7F5002DF2D1EE
:1078D800BBF1000F02D00CB1A64201D3BDE8F88F6E
:1078E80020215046013CFFF795FFF4E7A6AC0200C3
:1078F8002DE9F74F054690460E46002900F03A81DB
:1079080016F8011B002958D0252940F0D1800027FE
:1079180002E047F001071646324612F8013B2D2BCC
:10792800F7D0302B04D02B2B05D147F00407F2E712
:1079380047F00207EFE700242A2B06F101021BD1CA
:10794800D8F80030191D1B68C8F800101C441646EA
:1079580033782E2B1CD101364FF0000A314611F82E
:10796800012BA2F13000092814D80A2303FB0A23AB
:10797800A3F1300A0E46F1E712F8013CA3F13001F9
:107988000929E5D80A2101FB0434303C1646D3E71F
:107998004FF0000A324612F8011B01F0FB0068287C
:1079A8001646F8D0692916D054D8582970D00ED860
:1079B80025297DD03378002BA2D12B7B002B00F01A
:1079C800D980284603B0BDE8F04FFFF709BF632907
:1079D80068D06429EED1D8F80020D2F80090111DA3
:1079E80089EAE972C8F80010A2EBE9724FF0010BBE
:1079F800092A61DCD34538BFD3462CB1B9F1000F51
:107A080001DB790700D5013CBA0702D5BAF1000FAE
:107A180004D0FB0702D4002C54D10024B9F1000F84
:107A280058DAC9F100092D212846FFF7F3FE07F0BF
:107A38000302022A05D1BAF1000F02D1002C4DD160
:107A48000024CDE9004753460A2249462846FFF755
:107A5800F9FEAFE7732954D016D87029AAD1D8F8FF
:107A680000301A1DC8F80020302128461C68FFF78E
:107A7800D1FE78212846FFF7CDFE00220823CDE964
:107A8800003221461022E1E775292FD0782991D1BB
:107A9800D8F800100A1DC8F80020CDE90047534661
:107AA80010222CE0D8F800301A1D1978C8F80020E8
:107AB8002846FFF7AFFE7DE70A230BF1010B92FB87
:107AC800F3F295E7A345A9D220212846013CFFF708
:107AD800A1FEA0E77807AAD52B21A5E7A345B0D238
:107AE80030212846013CFFF795FEA7E7D8F800109B
:107AF800CDE900470A1DC8F8002053460A22096844
:107B0800A4E7D8F800301A1DC8F80020F907D3F800
:107B1800009012D54F46A7EB090B17F8011B41B986
:107B2800A345BFF447AF20212846013CFFF772FE6A
:107B3800F6E72846FFF76EFEEDE7B9F1000F17D01C
:107B4800484602F062FF0746BC4200D954B909F121
:107B5800FF3919F8011F00293FF42CAF2846FFF719
:107B680059FEF6E720212846013CFFF753FEEBE7D4
:107B78004F46E9E703B0BDE8F08F2DE9F047B0F8CC
:107B880006904479D2F800A09DF8208009FB04F4FF
:107B9800043C06460AEB0300A0420F4688BFA4EB4C
:107BA800030A191DC2F800A0B1FBF9F509FB15116C
:107BB8004DB9A9EB0104544528BF5446BAF1000F4A
:107BC80004D1BDE8F0873668013DF1E704317B193F
:107BD80070182246B8F1000F0ED001461846AAEBDD
:107BE800040A02F0B6FED145254436684C464FF0EB
:107BF800000128BF5446E1E71946F0E7FFF79DBDAD
:107C0800F8B546790146721E0546002393422D6851
:107C180003D30024A64202D8F8BD0133F6E70F6863
:107C28002846FFF7C4FD01343946F3E72DE9F84348
:107C3800068ACD1C0746FFF797FD043E35440446E7
:107C4800B5FBF6F5F0B14FF48073EDB28380C680D2
:107C5800013D076081464FF00008A84512D238461A
:107C6800FFF782FD064648B163790133637108F175
:107C78000108C9F8000007608146EEE72046FFF7D3
:107C8800BFFF34462046BDE8F88301210430FFF7E2
:107C980038BD10B5012104460430FFF73DFD10F052
:107CA800FF0F04D12046BDE81040FFF7A9BF10BD63
:107CB8001FB504AC44F8042D002200922246FFF7B9
:107CC8005CFF04B010BD1FB504AC44F8042D0122BC
:107CD80000922246FFF751FF04B010BD41DF704704
:107CE800064B10B500241C70054B1C60BFF35F8F5A
:107CF8000449054800F039F8204610BD742A0020D0
:107D0800782A0020B8AC02006C2A002007B502A827
:107D1800002300F8013DFFF773FCF1EE103A23F061
:107D28009F03E1EE103ABFF35F8F0A4B4022C3F87E
:107D380084219DF80700FFF787FC02F047FC20B17B
:107D4800FFF7CCFF03B05DF804FB20BF40BF20BFA6
:107D5800F8E700BF00E100E0836800225A609A60FB
:107D6800C3E90422DA601A6070470B684A68436006
:107D7800934208BF0023016008BF4360704743680F
:107D880043B10268916852680B449342436004BF50
:107D980000234360704700000D4930B5A1F5947287
:107DA8000225914201D800200EE08B1ADB1093FBCC
:107DB800F5F302EBC30452F83330834205D802D2FC
:107DC80004F10802EDE7606830BD2146E9E700BF2D
:107DD80008AE020008B5FFF7DFFF024B002808BF16
:107DE800184608BDCDAC0200054B1B68082B01BF27
:107DF800044B1868B0FA80F0400918BF002070479B
:107E0800300100103401001008B54FF08043002203
:107E1800C3F80C21C3F81021C3F838254FF080525D
:107E280003F54043D2F80414C3F82015D2F8081417
:107E3800C3F82415D2F80C14C3F82815D2F8101476
:107E4800C3F82C15D2F81414C3F83015D2F8181446
:107E5800C3F83415D2F81C14C3F84015D2F820140E
:107E6800C3F84415D2F82414C3F84815D2F82814D6
:107E7800C3F84C15D2F82C14C3F85015D2F83014A6
:107E8800C3F85415D2F83414C3F86015D2F838146E
:107E9800C3F86415D2F83C14C3F86815D2F8401436
:107EA800C3F86C15D2F84424C3F87025FFF79CFF7B
:107EB80010B1384B384A1A60FFF796FF18B1374BA4
:107EC800FB22C3F81825FFF78FFF48B13449354B1B
:107ED8000A681B6822F00F0203F00F0313430B60BC
:107EE800FFF782FF18B1304B4FF400721A604FF061
:107EF8008043D3F80024D20744BF6FF00102C3F8CF
:107F080000242A4AD2F8883043F47003C2F8883033
:107F1800BFF34F8FBFF36F8F4FF01023D3F80022BA
:107F2800002A03DBD3F80432002B2FDA204B01227E
:107F3800C3F80425D3F80024002AFBD04FF0102200
:107F48001221C2F80012D3F80024002AFBD04FF007
:107F580010231222C3F80422154B1A46D3F8001432
:107F68000029FBD00021C3F80415D2F80034002BF7
:107F7800FBD0BFF34F8F0D490E4BCA6802F4E06285
:107F88001343CB60BFF34F8F00BFFDE70A4B0B4A8B
:107F98001A6008BD8C5600404881030000F000407C
:107FA800E40E0040580200104096024000ED00E048
:107FB80000E001400400FA05FC2200200090D003F4
:107FC800074B1B5C1F2B86BF03F01F0305494FF0AF
:107FD800A041012202FA03F3C1F80C35704700BF33
:107FE800C2B1020000030050074B1B5C1F2B86BF69
:107FF80003F01F0305494FF0A041012202FA03F3E1
:10800800C1F80835704700BFC2B102000003005034
:1080180008B50020FFF7E8FF0120FFF7E5FF022081
:10802800FFF7E2FF0320BDE80840FFF7DDBF0000CF
:10803800C10710B5044642D54FF08043D3F8403607
:10804800DA072ED54FF01023D3F8043303F00703D3
:10805800072B26D11D4B0122C3F80425D3F8002491
:10806800002AFBD04FF01021D1F8042322F0070298
:1080780042F00402C1F804230022C3F80425134A7D
:10808800D2F80034002BFBD0BFF34F8F1049114BAF
:10809800CA6802F4E0621343CB60BFF34F8F00BF9E
:1080A800FDE74FF0A0420C490323C2F81837C2F885
:1080B8002037C1F82437C2F83037FFF7A9FFA307E4
:1080C80042BF054B0C22C3F8182710BD00E0014041
:1080D80000ED00E00400FA050003005038B5084C34
:1080E80004F108030546002818BF1C4623682BB175
:1080F8001A6822605B6828469847F7E738BD00BFD2
:10810800842A002020B9054B01225A70FFF7E6BFE8
:10811800012802D1014A9070F8E770477C2A0020B4
:1081280020B9034B01225A70FFF7D8BF704700BF30
:108138007C2A002038B50B4C237883B90A48636041
:10814800A3602361E36000F0C7F8054602F03EFA39
:1081580008B900F0CFF801232370284638BD8525DB
:10816800FBE700BF7C2A00200D81020037B502A87A
:108178000023094C00F8013DFFF742FAE368013B90
:10818800E360E56815B900F0C7F8A5709DF8070029
:10819800FFF75AFA03B030BD7C2A0020012813B536
:1081A80009D003D303281BD002B010BD0F4B012206
:1081B800C3F88020F8E702A800230D4C00F8013D21
:1081C800FFF71EFA23780BB9FFF7B4FFE3689DF8B1
:1081D80007000133E3600123A370FFF735FAE3E7F3
:1081E80000F088F8FFF7C2FFDEE700BF00E100E01B
:1081F8007C2A00201FB503788DF80030436801936E
:1082080083688DF80830C3680393054A054B6846B0
:1082180053F8213052F82110984705B05DF804FB57
:10822800902A0020982A00201FB503788DF8003086
:108238004368019383688DF80830C3680393054A3F
:10824800054B684653F8213052F82110984705B07D
:108258005DF804FB902A0020982A0020F0B5194BFD
:108268000678DFF870E043F82620174B94460A6931
:1082780043F826204B7F0EF806300C4607460FCCF5
:1082880089B06D460FC594E80F0085E80F001EF809
:108298000630049653B1BCF1000F0C4A694608BF7A
:1082A8000022381D00F0F8FD09B0F0BDBCF1000F48
:1082B800074A694608BF002207F10C0000F0DCFB02
:1082C800F2E700BF982A0020902A0020FD810200D2
:1082D80031820200A02A0020054A13792BB9012116
:1082E800106011715371184670478520704700BFA0
:1082F800A42A0020074B1A68D2075FBFC02283F860
:10830800002301221A604FF080430122C3F8182588
:10831800704700BF00E100E0044B01221A604FF0F3
:108328008042D2F81834DB03FBD470470C000040BD
:10833800154B07B51A687AB100221A601B680093BA
:10834800009B4FF080430122C3F808230F4B587954
:1083580010B95A711B6898470D4B1A6882B10022F0
:108368001A601B680193019B4FF080430222C3F8F7
:108378000823064B1B68012003B05DF804EB18477F
:1083880003B05DF804FB00BF00010040A42A0020F0
:108398000401004000F1804000F5C040002382B095
:1083A800036003680193019B02B0704703681F2BA9
:1083B80083BF03F01F03036001484FF0A0407047DC
:1083C8000003005007B502AB43F8040D1846FFF749
:1083D800EDFF019B00EB8300D0F8003723F4403316
:1083E800C0F80037D0F8003743EA0141C0F8001759
:1083F80003B05DF804FB0000054B4FF0FF3207287F
:1084080043F8202084BF1B1883F85820704700BF0A
:10841800AC2A002010B5164C94F86A3033BBFF2103
:10842800E2180133302B82F83010F9D10021C8B29C
:10843800FFF7E2FF01310C29F9D1062200210D488E
:1084480002F0B0FA0C4BC02283F8062340221A60CF
:108458004FF4BE70FFF79EFF084B4FF00042C3F881
:108468000423012384F86A30002010BD0820FCE7AB
:10847800AC2A0020102B002000E100E00060004042
:10848800034B93F86A00003018BF0120704700BF03
:10849800AC2A0020F7B5404F3B18044693F930301A
:1084A800002B944675DA8B78C3F34003002B15BF75
:1084B8000025082508200C20854202D1042003B09D
:1084C800F0BD57F8252001324FEA850649D1381901
:1084D80047F825C080F8305013B97B1983F8584005
:1084E8008B785A071BD4D8073DD502A840F8084D09
:1084F800FFF75CFF009B00EB8300D0F8003723F008
:108508000203C0F800372548E20804F0070C0123ED
:1085180003FA0CF310F802C043EA0C03835488787A
:1085280091F800C010F002002AD006F1804303F54C
:10853800C0432402D3F8102522F44F3222F44072AB
:10854800C3F810254FEA0C4CD3F8102504F47C54DA
:108558000CF4403C44EA0C041443C3F810450020D2
:10856800ADE70135A8E702A84A7840F8044DFFF7BF
:108578001DFF019B03F5E073920040F82320C2E73A
:10858800083D3D4495F8604044EA8C1C85F860C07D
:1085980095E7082093E700BFAC2A0020102B0020A5
:1085A80073B5224C2518064695F93020072A1ADD9E
:1085B800224492F858309B09032B10D102A840F8A6
:1085C800046DFFF7F3FE019AD0F81035D340DB07AE
:1085D80007D402213046FFF7F5FE02B070BD012B2B
:1085E800F7D00321F6E7D3B2072BF6D8930003F1AF
:1085F800804303F5C043D3F8100540F00100C3F8E9
:10860800100502F14000800080B2FFF7C3FE002988
:10861800E3D095F9303054F82330002BDDD0012316
:1086280003FA02F2024BC3F80423D6E7AC2A00206F
:10863800006000400E4B034493F93020072A02DD06
:108648000021FFF7BFBED3B2072B10D8930003F168
:10865800804303F5C043D3F8101521F00101C3F896
:108668001015012303FA02F2024BC3F808237047DE
:10867800AC2A00200060004007B502AB43F8040DA7
:108688001846FFF793FE019BD0F81005D84000F07C
:10869800010003B05DF804FB2DE9F04F002489B018
:1086A800CDE902445F4A604E604D01211368A2F58E
:1086B800C040012B80B206D1D6F804330B4202D059
:1086C800FFF768FE0C430432AA424FEA4101EDD19C
:1086D800574B1B68012B0ED14FF4BE70FFF75AFEA3
:1086E8004FF0A04344F00044D3F810350293514BA7
:1086F800D3F81035039314F0FF0F1AD04E4F00250E
:108708000126344210D0AB0003F1804303F5C04387
:10871800D3F81005D3F8101557F82530C0F3052005
:10872800C1F3014103B198470135082D4FEA4606C8
:10873800E7D1002C72DA04AE0023049373604FF083
:10874800FF33CDE906333C4F4FF0010800252C4696
:108758007B1993F96020531C47D0D2B222F0C0098C
:1087680008A84FEAD90300EB030B02F007011BF836
:10877800080C08FA01F1084237D007EB0900920902
:1087880090F9300057F820A0BAF1000F05D1032A5C
:108798002BD1F05C0843F05401E0032AF9D001A87A
:1087A800CDF80490FFF702FE019B03F5E07350F843
:1087B80023301BF8180C0842C3F3014305D0022BE1
:1087C80013D1032A0BD1114604E0032B0DD1032A40
:1087D80005D102214846FFF7F5FD0134E4B2BAF1AC
:1087E800000F02D011464846D0470135042DAFD1BD
:1087F800A4B14FF0A0430299D3F8102503F54073B4
:108808009142D3F8103502D10399994206D00292C9
:108818000393049A059B0692079397E709B0BDE86E
:10882800F08F00BF00610040006000402061004000
:108838007C61004000030050AC2A0020014B1B68FB
:10884800184700BF182B00200D4B984237B50D462E
:1088580010D102A8002300F8013DFEF7D1FE094B14
:108868001C7914B901221D601A719DF80700FEF7E2
:10887800EBFE14B9002003B030BD1120FBE700BFA8
:1088880000200040182B0020034B984201BF034BE7
:1088980000221A601A71704700200040182B00202F
:1088A8000023435082B043580193019B02B07047A4
:1088B8000A4610B54FF48E71FFF7F2FF136A9168FC
:1088C800C95C136A01331362C0F81C1510BD8B69AB
:1088D8000A4610B54FF4847123B9FFF7E1FFD0F8C9
:1088E800183510BDFFF7DCFF536AD168D0F81805BA
:1088F800C854536A01335362F3E700001FB50123DC
:108908008DF80030044BCDE90110D3E90012684618
:10891800904705B05DF804FB202B002030B54C4A89
:10892800D2F8043313F4007F85B015464FD0D2F83F
:108938002431002B4BD04FF492711046FFF7B0FF53
:108948004FF40173C2F80833424B93F8291009B960
:10895800012151603E4902228DF80020D1F880247F
:10896800C1F8802403929A690292DA68019200227F
:10897800C3E906226846D3E9001290473448D0F884
:108988001C315BB133490A6A4B699A420A464BD299
:1089980091F82830002B47D1FFF78AFF2C4AD2F8EC
:1089A800443193B14FF4A2711046FFF779FF294B78
:1089B80093F8291009B1012111609A692AB100229E
:1089C8009A61586AD968FFF799FF05B030BDD5F8A4
:1089D80004335B07D2D5D5F80831002BCED01D4C17
:1089E8001B482146FFF773FF636AA2699A42234630
:1089F800C4D1E269E1684AB12369E3600023606A8F
:108A0800A261E3616362FFF779FFB7E794F8292071
:108A18000AB901226A600E4A4FF40170C2F80803CD
:108A280000229A61586AEEE74FF48E710848FFF702
:108A380037FF51690029B1D00023029191688DF860
:108A48000030019153616846D2E900139847A5E7C1
:108A580000200040202B00201F2886BF00F01F00A8
:108A6800044B4FF0A04300F5E070022243F82020A9
:108A7800704700BF000300502DE9F843624F0479A6
:108A880091462C2202FB0472064692F82A200D46D3
:108A9800002A40F0B3805D490068FFF7D5FE8046A4
:108AA800002840F0AE8029684A1C10D01F2987BFD3
:108AB80001F01F03564A0B464FF0A0420120984090
:108AC80003F5E073C2F80805032042F8230068683C
:108AD800431C0DD01F288BBF00F01F0303464C4AD0
:108AE8004FF0A04203F5E0734FF0000C42F823C0AA
:108AF8003368AA6995F814C0C3F824256A7DBCF1C7
:108B0800010F4CEA0202C3F86C25C3F81405C3F838
:108B18000C152BD1A968481C0DD01F298BBF01F05B
:108B28001F020A463A484FF0A04002F5E0724FF0A3
:108B3800000C40F822C0E868421C13D01F2887BFE9
:108B480000F01F0C324A84464FF0A0424FF0010E4D
:108B58000EFA0CFE0CF5E07CC2F808E54FF0030EA7
:108B680042F82CE0C3F80805C3F810152C2363431A
:108B7800FA18C2F804902A69FA50B9F1000F2AD0FD
:108B88004FF48E7130682D7FFFF78AFE30684FF4FE
:108B9800A271FFF785FE32681E4BC2F80433120B30
:108BA80051B20029A8BF01F160404FEA4513BABF8E
:108BB800194802F00F0500F56140DBB2B4BF435518
:108BC80080F8003302F01F02012303FA02F2490978
:108BD800124B43F8212033680422C3F800252C23C4
:108BE80003FB04730022C3E9062283F829205A6193
:108BF800012283F82A204046BDE8F8834FF0080890
:108C0800F9E74FF01108F6E7202B0020258902002C
:108C1800000300508000020014ED00E000E100E0D5
:108C28002DE9F04103680479254D0022C3F8002599
:108C38002C2202FB04520646526872B1214AC3F83C
:108C48000823190B4AB20120520901F01F0100FA4A
:108C580001F120321C4840F82210D3F80C05D3F853
:108C68001485D3F80815D3F810754FF0FF329042E9
:108C7800C3F81425C3F80C25C3F80825C3F8102534
:108C880001D0FFF7E9FEB8F1FF3F02D04046FFF7F9
:108C9800E3FE7A1C02D03846FFF7DEFE4B1C02D0FA
:108CA8000846FFF7D9FE3068FFF7EEFD2C2303FBDB
:108CB8000454002384F82A306360BDE8F08100BFC3
:108CC800202B00208402020000E100E02DE9F84397
:108CD800224F06794FF02C0909FB06748046656916
:108CE800002D37D16261A16025624FF48E71006852
:108CF80084F82850FFF7D4FDD8F8000001238360DA
:108D08002146FFF7D5FD6368A1462BBBD8F8005074
:108D1800226A63699A4212D3D8F80030D3F81C212A
:108D2800002AFBD00122DA6000202C2303FB067600
:108D380000237361BDE8F88394F8283043B9D5F867
:108D48001C31002BF8D049462846FFF7B1FDDFE774
:108D58000F20EAE71120EDE72846EBE7202B00205B
:108D68000023435082B043580193019B02B07047DF
:108D78001FB501238DF80030044BCDE90110D3E96C
:108D880000126846904705B05DF804FB4C2B0020A4
:108D98007FB5374AD2F82461002E48D010464FF4E8
:108DA8009271FFF7DDFF02238DF80030D2F880348E
:108DB800C2F880340393D2F83C3502932D4BDA681D
:108DC80001920022C3E906226846D3E900129047BF
:108DD800274AD2F844317BB14FF4A2711046FFF70D
:108DE800BFFF244B996939B10021C3E90611D9683D
:108DF800D2F83C05FFF7BCFF1D4AD2F82031A3B1D9
:108E08004FF490711046FFF7ABFF1A4B596961B1E7
:108E1800D2F84C150291002299688DF80020019132
:108E28005A616846D3E90012904704B070BDD2F881
:108E38001031002BCCD04FF488711046FFF790FF0B
:108E48000C4BD2F83C0599698842C1D1DC69D968D4
:108E580064B1D2F8005225F02005C2F800521A6910
:108E68009C61DA60DE61FFF783FFB1E79C61FAE796
:108E7800002000404C2B00201F2886BF00F01F0058
:108E8800044B4FF0A04300F5E070022243F8202085
:108E9800704700BF000300502DE9F843664F06797C
:108EA8009146242202FB0672044692F820200D46C1
:108EB800002A40F0BB8061490068FFF7C5FC804686
:108EC800002840F0B6802868421C10D01F2887BFB1
:108ED80000F01F035A4A03464FF0A042012199406F
:108EE80003F5E073C2F80815032142F823106968F6
:108EF8004B1C0DD01F298BBF01F01F030B46504A96
:108F08004FF0A04203F5E0734FF0000C42F823C085
:108F18002368AA6995F814C0C3F824256A7DBCF1B2
:108F2800010F4CEA0202C3F86C25C3F80C05C3F81C
:108F380014152BD1A968481C0DD01F298BBF01F02F
:108F48001F020A463E484FF0A04002F5E0724FF07B
:108F5800000C40F822C0E868421C13D01F2887BFC5
:108F680000F01F0C364A84464FF0A0424FF0010E25
:108F78000EFA0CFE0CF5E07CC2F808E54FF0030E83
:108F880042F82CE0C3F80805C3F8101524237343EE
:108F9800FA18C2F804902A69FA50B9F1000F34D0CF
:108FA8004FF4887120682D7FFFF7DAFE4FF4907137
:108FB8002068FFF7D5FE4FF492712068FFF7D0FEC6
:108FC80020684FF4A271FFF7CBFE22681D4BC2F850
:108FD8000433120B51B20029A8BF01F160404FEAD7
:108FE8004513BABF184802F00F0500F56140DBB21F
:108FF800B4BF435580F8003302F01F02012303FA7F
:1090080002F24909114B43F8212023680822C3F8CA
:109018000025242303FB06730022C3E906225A61B4
:10902800012283F820204046BDE8F8834FF0080865
:10903800F9E74FF01108F6E74C2B0020998D020054
:10904800000300501003020014ED00E000E100E00E
:109058002DE9F04103680479254D0022C3F8002565
:10906800242202FB04520646526872B1214AC3F810
:109078000823190B4AB20120520901F01F0100FA16
:1090880001F120321C4840F82210D3F80C05D3F81F
:109098001485D3F80815D3F810754FF0FF329042B5
:1090A800C3F80C25C3F81425C3F80825C3F8102500
:1090B80001D0FFF7E1FEB8F1FF3F02D04046FFF7CD
:1090C800DBFE7A1C02D03846FFF7D6FE4B1C02D0D6
:1090D8000846FFF7D1FE3068FFF7D6FB242303FBD1
:1090E8000454002384F820306360BDE8F08100BF99
:1090F8004C2B00201003020000E100E001F0604367
:10910800B3F1005F2DE9F041074632D11C4B0679D7
:10911800242505FB063598466C6964BB6A61A9601D
:1091280000684FF49071FFF71BFE4FF4AC7138687C
:10913800FFF716FE3B686A69A968C3F84415C3F8C7
:10914800482501229A606A68BAB9D3F82011D3F881
:10915800582149B9002AF8D00F20242303FB06869A
:1091680000237361BDE8F081002A14BF0F2000209E
:10917800F3E71020F6E71120F4E72046F2E700BFF6
:109188004C2B002072DF704773DF704776DF704723
:109198007ADF70477CDF70477FDF70478FDF70476B
:1091A800B1DF70471F2886BF00F01F00044A4FF048
:1091B800A042012303FA00F0C2F80C05704700BF73
:1091C80000030050FDF734BF08B5064B012118789D
:1091D800FFF7DAFF08B1FDF72BFF0120BDE80840D3
:1091E800FEF7EEBE182300200388212B13B5044692
:1091F80052D024D8112B2DD0132B45D0102B41D170
:109208002D4B2E482E49C01AC008000440F0030018
:10921800FDF74CFC0220FEF7D3FE0120FEF7E4FE2A
:10922800284BA1882848198001F04CF808B1FDF7AF
:10923800FFFEFDF7CDFE28B3FDF7FAFE22E0522B24
:1092480032D0562B01D03B2B1CD11321A088FFF71D
:109258009DFFF0E7184B19481C49C01AC0080004C4
:1092680040F00300FDF722FC0220FEF7BDFE154B7F
:109278004FF6FF721A80FDF7C1FE08B1FDF7D8FE60
:10928800FFF7A2FF02B010BD0E4800231A46852141
:109298000088FFF781FFCEE702A9002321F8043DEB
:1092A8008088FFF77BFFC6E7064800231A46194661
:1092B8000088FFF775FFBEE7D8AA020000AB0200DE
:1092C800E8B102001A230020DC2B0020F2B10200D2
:1092D80008B503784BB9054B3B211888FFF756FFB3
:1092E80018B1BDE80840FDF7A3BE08BD1A23002049
:1092F800262810B50C461AD10F4B10481049C01A31
:10930800C008000440F00300FDF7D0FB0D4B0E49E8
:109318001888224601F0B4F830F008020BD043F266
:109328000202904207D043F20142904203D0BDE8C6
:109338001040FDF77DBE10BDD8AA020000AB0200A8
:10934800FFB102001A230020C42B002010B50A4BDD
:109358000A4CE41AE408240444F0030403203AB154
:10936800FEF72EFE06492046BDE81040FDF79EBBDD
:10937800FEF73AFE0349F6E7D8AA020000AB02005E
:1093880026B2020037B2020038B5054D4FF4C87452
:1093980045F001054FF47A40A847013CFAD138BDA1
:1093A80020B20200FDF744BE00F5E0704FF0A04384
:1093B800032243F8202070471F2886BF00F01F00B3
:1093C800044A4FF0A042012303FA00F0C2F808054E
:1093D800704700BF0003005000B50220A7B0FFF798
:1093E800E3FF1F20FFF7E0FF1820FFF7DDFF16203F
:1093F800FFF7DAFF1420FFF7D7FF1120FFF7D4FF9C
:109408000F20FFF7D1FF0D20FFF7CEFF4FF40041EB
:109418000020FDF785F908B1FDF70AFEFDF7B8F859
:109428000120FEF705FEFEF755F808B1FDF700FE2E
:1094380040F2666201218A48FDF776FD08B1FDF722
:10944800F7FDFEF74DFC08B1FDF7F2FD01F082F8DB
:1094580008B1FDF7EDFD26AC002344F83C3D0120A2
:10946800214601F0FDF808B1FDF7E2FD204601F0C4
:10947800A9F908B1FDF7DCFD26AD1123794805F8F7
:10948800783D01F0C2FA774982B22846FFF782FE9A
:1094980008B1FDF7CDFD08220021204601F082FA2F
:1094A800714A4FF0C8732046CDE91723FFF770FEC5
:1094B80008B1FDF7BDFD00216C4800F0F1FD08B1D1
:1094C800FDF7B6FD002308932146694B69481793B9
:1094D80000F0E6FE08B1FDF7ABFD674B674808935F
:1094E800294600F065FF08B1FDF7A2FD41F22353BC
:1094F800ADF80430614B3C229B7C8DF8063000218E
:10950800284601F04FFA022301268DF820303C222C
:109518000623002120468DF822608DF8233001F0C3
:1095280041FAADF86C60564E01AB321D31681C93A0
:10953800284600F029F908B1FDF77AFD514AB168CB
:10954800204600F021F908B1FDF772FD182200212C
:1095580002A801F027FA00230122ADF81430039382
:109568004FF480738DF80820ADF81C3002AA402310
:10957800434945480493FFF705FE08B1FDF758FD38
:109588001C220021204601F00DFA00234FF420226E
:10959800CDE91732ADF86A304FF420328DF86C30CF
:1095A8003A4B19921C930322394B8DF868202046B8
:1095B8001D9300F0B5FB08B1FDF73AFD354B364871
:1095C8003649C01AC008000440F00300FDF76EFADF
:1095D800FFF7FAFDFDF7FEF808B9FEF797FB022042
:1095E800FFF7EAFEFFF7D0FE1F20FFF7E5FEFFF7C3
:1095F800CBFE1820FFF7E0FEFFF7C6FE1620FFF7A8
:10960800DBFEFFF7C1FE1420FFF7D6FEFFF7BCFE16
:109618001120FFF7D1FEFFF7B7FE0F20FFF7CCFEB2
:10962800FFF7B2FE0D20FFF7C7FEFFF7ADFE0220E1
:10963800FFF7B8FD1F20FFF7B5FD1820FFF7B2FDB3
:109648001620FFF7AFFD1420FFF7ACFD1120FFF740
:10965800A9FD0F20FFF7A6FD0D20FFF7A3FDB9E731
:109668000023002049B202005000A000B02B0020C7
:10967800CD910200DC2B002055930200C42B002062
:10968800082300201423002018230020D992020068
:10969800AD930200D8AA020000AB020051B202004A
:1096A8006DDF704779DF70477DDF704764DF704793
:1096B8002DE9F74F0C9CBDF834B02788002580466B
:1096C8008A4691462E46B8F80020B2420BDC35B1E6
:1096D8002288013AD21B92B2FF2A39D8DA550020E3
:1096E80003B0BDE8F08FD8F8042052F826000190A6
:1096F80000220DF1030101A8FFF7D8FF0028EFD1E0
:109708009DF803204A4521D12288002D14BF00204E
:10971800022002EB09010144594519DC3DB9013227
:1097280092B2228003F802A0228801322280228885
:109738000DF103011A4401A8FFF7B8FF0028CFD1A3
:1097480021889DF803200A44228001250136BAE7C2
:109758000C20C5E72DE9F341089CBDF824501746B5
:10976800CDE9004502220646FFF7A2FF48B91022BC
:1097780039463046CDE9084502B0BDE8F041FFF76B
:1097880097BF02B0BDE8F0812DE9F04F002316889D
:10979800138090F82D3085B007460D46144653B314
:1097A800082E01D80C2026E102A8FFF779FF00282F
:1097B80040F0218113880822CA54238801339BB2C0
:1097C8001B222380CA542088013080B220800622C0
:1097D8000DF10901284401F0BCF823889DF8082000
:1097E80006339BB212F0FE0218BF01222380EA540E
:1097F800238801332380BB78FBB123880433B34229
:10980800D0D802A8FFF74EFF002840F0F480238844
:109818000322EA54238801339BB219222380EA5495
:109828002388BDF8082001339BB2E9182380EA5445
:10983800120A4A70238802332380FA789AB123885F
:10984800D91CB142AED80221E954238801339BB216
:1098580001212380E95423880B449BB22380EA54D6
:1098680023880B4423807A68AAB12388D91CB14283
:1098780098D8022192F90020E954238801339BB239
:109888000A212380E954238801339BB22380EA54B8
:109898002388013323803B89002B40F0A0803B8A3A
:1098A8005BB1CDE900462B460722032107F11000E2
:1098B800FFF750FF002840F09E803B8B5BB1CDE95D
:1098C80000462B461522142107F11800FFF742FF26
:1098D800002840F090803A6A002A40F08F80D7F83C
:1098E8002480B8F1000F30D0B8F804302188981CD3
:1098F8008A1C0244B2423FF655AFFE283FF652AFEB
:1099080003336B54238801339BB2FF222380EA542C
:10991800238801339BB22380B8F80020EA54E91861
:10992800120A4A702088023080B22080B8F80420D9
:109938005AB1D8F8081000296AD0284401F009F86B
:109948002388B8F804201344238097F82C30002B80
:1099580040F09980387800284DD03B88012B57D0AB
:1099680021888A1CB2423FF61DAF012805D17B78B9
:1099780002330B449E42FFF415AF023E761A04A947
:10998800B6B221F8086DA818FFF78EFE98BB397893
:10999800BDF80820022900F0BB807B78934202D3EF
:1099A800B24240F2B380012940F0B4809BB29E429B
:1099B800C0F0B080ADF808300821BDF80830FE2BA3
:1099C8003FF6F0AE22880133AB542288013292B2BE
:1099D8002280A95422881344238000200BE0CDE97B
:1099E80000462B460622022107F10800FFF7B2FEC7
:1099F80000283FF454AF05B0BDE8F08FB4F800C0BC
:109A08000CF10603B3423FF6CDAE1188052901D803
:109A18000720F0E76FF4486E01EB0E039BB24FF29C
:109A28007D3E7345F4D95388052BF1D96FF448600E
:109A3800181880B27045EBD94FF6FF70814203D0F9
:109A4800834201D09942E3D8052305F80C302388D6
:109A580001339BB212212380E954238801339BB23E
:109A680023801188E954E818090A417023880233D1
:109A78009BB223805288EA54E918120A4A70238854
:109A8800023323802BE7BB6A002BC1D04FF00009BB
:109A98004FF00C0A4FF0160B97F82C305FFA89F24A
:109AA80093427FF657AFB96A0AFB02F201EB02084C
:109AB800B8F80430981CFE283FF674AE20880333AB
:109AC8002B54238801339BB2238005F803B02388E5
:109AD80001339BB223808A5AEA54E918120A4A7061
:109AE8002088023080B22080B8F804205AB1D8F813
:109AF800081000298CD0284400F02BFF2388B8F8E0
:109B080004201344238009F10109C5E7092154E71A
:109B1800B242FBD9ADF808604EE775DF704776DFD3
:109B280070477ADF70477BDF70470000034B1A8865
:109B380082420CBF18460020704700BF042C00204A
:109B4800024B9B6903B11847704700BFE82B002000
:109B580037B585B22846FFF7E9FF034670B1164CC2
:109B6800017A227B91420BD200F10A012846FFF7C5
:109B7800D4FFE8B1112801D0FFF7E2FF03B030BDF0
:109B8800237C0022027243B13B212846FFF7C7FF1E
:109B980030F0080301D0FFF7D3FF6369002BEDD045
:109BA80000228DF80420ADF8065001A89847E5E793
:109BB8001A7A01321A72E1E7E82B002013B50B4636
:109BC800497A0F4C024669B9D4E901101C7A002C75
:109BD80018BF01465868FDF7BFFC08B1FFF7B0FF92
:109BE80002B010BD002119726369002BF8D0012161
:109BF800ADF806008DF8041001A89847F0E700BFFB
:109C0800E82B00208388B3F5FA7F28BF6FF4F97238
:109C180030B528BF9C1805884A8838BF002495426B
:109C28000CD84088904209D38A88A24206D303F20E
:109C3800F310904234BF0020012030BD0020FCE723
:109C48000388112B70B5014648D002D8102B1ED0BE
:109C580070BD122B52D0502BFAD12F4BC288DB8902
:109C68009A42F5D1038A022BF2D186883046FFF753
:109C78005DFF05460028EBD001F1120000F025F940
:109C880030BB6868FDF7ACFC0028E1D009E0C37B75
:109C9800012BDDD14FF6FF70FFF748FF054620B9CD
:109CA8000420BDE87040FFF74BBF1C4A8E88068031
:109CB800002303721368C5F80A300A3053684360FA
:109CC8001031FFF79FFF144B6872DB89002BBFD15F
:109CD80029463046BDE87040FFF770BF8088FFF71F
:109CE80025FF04460028B3D04068FDF779FC08B189
:109CF800FFF726FF4FF6FF732380A9E786883046D3
:109D0800FFF714FF05460028A2D008310A30FFF7F4
:109D180079FF6872DCE700BFE82B0020182C0020D0
:109D2800F8B5064650B305460FCD154F3C460FC44F
:109D380095E8070084E807003068124B3B60B8B12B
:109D4800FFF7EFFEC8B931680A681A604A685A60B6
:109D58000D480E4A4FF6FF7303800D4B40F8043F41
:109D68000021FDF7E7FB002814BF0320002004E0D2
:109D78001846FFF7D8FE0028EAD0F8BD0E20FCE709
:109D8800E82B0020182C0020042C0020599B0200EE
:109D9800202C002073B50191019C06466CB100256A
:109DA8002C46294601A8FDF778FC18B106EB4403B8
:109DB80001349D800135142DF3D13046346002B052
:109DC80070BD00002DE9F04303888488112B8DB005
:109DD800064640D01A2B43D0102B16D1294DAB681C
:109DE8000CA8DB4340F8303D55F8041FFDF77EFC16
:109DF800009901A8FFF7CEFF0027019B9F4207D3D8
:109E0800132C18D90420FDF713F90DB0BDE8F08321
:109E180001AB03EB47034FF00008B3F8049005EBE0
:109E28000800494608F10408FDF72DFCB8F1740F45
:109E3800F5D10137E1E721461348FDF71BFC214620
:109E48001248FDF717FCF37B012BDED010482146A2
:109E5800FDF710FCD9E70C482146FDF714FCD4E7C0
:109E6800057A0C482D09012D214606D9FDF702FC7B
:109E7800022D21460848F0D0EAE7FDF704FC214608
:109E88000548EAE7402C0020482C0020442C0020FC
:109E98004C2C0020502C0020542C0020AADF7047A6
:109EA800002301380B70042806D8DFE800F0030609
:109EB800080A0C0011230B7070472123FBE731239C
:109EC800F9E71223F7E72223F5E7007800F001000D
:109ED8007047F0B58B7891B005460C46164603B925
:109EE800012303228DF80E3000212388ADF80C30B1
:109EF800684600F057FD6946607CFFF7D1FF0DF119
:109F08000101A07CFFF7CCFF9DF80230E27B62F3F1
:109F1800C303227C62F30413227B62F30003227DD5
:109F2800002A14BF0222012262F3420300211C22EC
:109F380009A88DF8023000F035FD637B13F0300F6F
:109F480015D002AF03220021384600F02BFD0DF199
:109F58000901E07CFFF7A4FF11238DF808309DF874
:109F68000A300E97012262F342038DF80A30637BB0
:109F78008DF824301422A37B8DF82530002104A805
:109F880000F010FD03AB0493A388ADF81C30A36860
:109F9800CDF814D01BB1E288ADF818200893A36956
:109FA800002B2ED001AF03220021384600F0FAFC26
:109FB800A3691A88ADF82C205A88187BADF82E2092
:109FC80039465A680A920D97FFF76AFFA3690DF19F
:109FD8000501587BFFF764FFA2699DF80630917A66
:109FE80061F3C303D17A61F30413117A927B002AD7
:109FF80061F3000314BF0222012262F342038DF8C9
:10A008000630E36903B10C93334604AA09A928462C
:10A01800FFF744FF11B0F0BD90DF7047A5DF704730
:10A02800B5DF70477FB50023ADF80810ADF80A100A
:10A038006A4602A9064603930093ADF80430FFF779
:10A04800EBFF0546F8B1114B114CE41AE408FDF793
:10A05800C1FE240444F00104034632460D4920465B
:10A06800FCF732FDBDF80020BDF8023002B91BB183
:10A0780009492046FCF728FDBDF804201AB1074914
:10A088002046FCF717FD284604B070BDD8AA020088
:10A0980010AB020069B20200B3B20200F2B20200D1
:10A0A80080B14FF0171303601B2303711723C3807C
:10A0B800038141F61B32002301618372C3728281DE
:10A0C800184670470E20704713B5034680880C4623
:10A0D800A0B91A88232A00F0AE8011D8102A25D0FA
:10A0E800112A54D0A37A4BB1E1880020FFF796FFDC
:10A0F800002840F0A6800123A072E37202B010BDD0
:10A108003A2A4DD0552A67D0242AEBD11A7A0B69FE
:10A118004A73002BE6D04DF67A21ADF80400ADF86D
:10A128000010ADF802008DF8042080E0DB7B0A798E
:10A138000A73012B13D0022B14D0E18823898B4298
:10A1480005D20020FFF76AFF70B90123E372217B73
:10A15800637B8B42C6D20020FFF764FFC2E70B88FF
:10A16800E380EAE74B88FBE7112802D10123A372B9
:10A17800EDE7FDF72FFE3B4A3B4B3C499B1ADB08BA
:10A188001B04024643F00100FCF794FCDFE71723A9
:10A19800CB800B8141F61B338872C8728B81A1E793
:10A1A8005B89CA88934228BF1346172B0A6938BFB0
:10A1B80017230B8162B1C97A51B140F67721ADF806
:10A1C8000010ADF80200ADF804306946204690470B
:10A1D8000023E372A37285E7DB88C988A072172B76
:10A1E80038BF17238B4228BF0B462381FFF718FF80
:10A1F80060B1FDF7EFFD1B4A1B4B1D499B1ADB089D
:10A208001B04024643F00100FCF754FCE27A002AE2
:10A218007FF468AF2369002B3FF464AF40F67721E1
:10A22800ADF802202289ADF80010ADF80420694687
:10A238002046984756E7197A237B994228BF194642
:10A248008AE711283FF45AAFFDF7C4FD054A064BCB
:10A2580006499B1ADB081B04024643F00100FCF781
:10A2680029FC4BE7D8AA020010AB020048B3020051
:10A2780079B30200B0DF704766DF7047034610B558
:10A2880000214088FFF7F8FF024608B91A7210BD8E
:10A29800112801D10122F9E75B68BDE81040184791
:10A2A80060B159B10378DE2B0AD00B684360DE2316
:10A2B80003704FF6FF734380002070470E207047ED
:10A2C8000820704728B10378DE2B04D14180002094
:10A2D80070470E20704708207047F0B5054685B0D6
:10A2E8000C46F1B1E8B10B78DE2B1AD182884B8885
:10A2F8009A4204D10B7A13B10846FFF7BFFF2B88A7
:10A30800112B32D0512B0ED0012B0AD12B7A012BD5
:10A3180007D1A9886288914203D123722046FFF7AA
:10A32800ADFF05B0F0BDAE886388B342F9D1AF790F
:10A33800022FF6D1AD7B2B1F022BF2D80021102261
:10A34800684600F02FFB052D14BF4FF4C07300239F
:10A35800694630468DF80070ADF80430FFF78AFF83
:10A368000028DED063689847DBE76388AA889A42AA
:10A3780004BF4FF6FF736380D3E7A8DF7047AEDFF3
:10A38800704762DF70470288502A10B40DD1C48824
:10A398004A88944209D1028A012A06D14B6923B11D
:10A3A800827C5DF8044B808818475DF8044B704741
:10A3B800F0B50B6843618FB0304B02AA044603F135
:10A3C8001007164618685968154603C50833BB4276
:10A3D8002A46F7D104F112013046FFF7D2FF0028D0
:10A3E8004AD1A37C8DF806300EA941F2235321F8F7
:10A3F800343D22460120FFF7C0FF00283CD101462A
:10A40800202206A800F0CEFA41F22453ADF8183005
:10A41800A37C8DF81A309DF82530208801254FF04F
:10A42800011643F0120304F10A0206A907968DF8F3
:10A4380025308DF829508DF82B50FFF74AFDD8B9F3
:10A448000146202206A800F0ADFA41F22553ADF8E6
:10A458001830A37C8DF81A309DF82530208807968F
:10A4680043F00A03A21C06A98DF825308DF829505F
:10A478008DF82A50FFF72DFD0FB0F0BDB5B30200DF
:10A4880070B588B00E468DF80720102205460124C5
:10A498000DEB02000021ADF80E4000F083FA73893D
:10A4A800ADF810300DF10703079304A90DF10E0361
:10A4B80028468DF812400693FFF761FF08B070BD7B
:10A4C80010DF704713B5044609496846FDF74DFC8F
:10A4D800019808B902B010BDD0E90031204698476C
:10A4E80018B16846FDF74BFCF2E71120F2E700BF10
:10A4F800CCB3020013B5044607496846FDF735FC9E
:10A50800019B0BB902B010BD2046D3E9002190474A
:10A518006846FDF734FCF3E7E4B302000B4991F811
:10A5280016335A09EC231341DB0706D5084B9A6802
:10A538003AB94FF480030B60704742F20200FCF70F
:10A5480077BD1A6842F480021A60704700E100E0A3
:10A55800602A0020F7B5184F3C785CBB174E0125E0
:10A5680020463570FFF7AEFF112820D02046FFF7B0
:10A57800C1FF134B1868019002A800F8054DFDF7BC
:10A588003FF8104901A8FFF79BFF0446B0FA80F096
:10A59800400938709DF80300FDF756F83CB90A4B9E
:10A5A80034701C70FFF7BAFF2846FFF7A3FF204658
:10A5B80003B0F0BD0824FAE7B92C0020B82C00201D
:10A5C800C5B3020055700200BA2C0020014B187860
:10A5D800704700BFB92C002007B508496846FDF749
:10A5E800C4FB019B13B903B05DF804FBD3E9002059
:10A5F80090476846FDF7C3FBF3E700BFD8B30200F6
:10A60800FFF7EABF60DF704769DF704761DF7047B7
:10A6180030B5114B1B7891B0E3B1104D34240DF1D6
:10A62800020103A8ADF80240FFF7F0FF70B9294610
:10A6380001A8FDF79AFB029B002BF0D003A8D3E9F1
:10A648000021904701A8FDF79AFBF4E7052801D0FF
:10A65800FCF7EEFC11B030BDBB2C002024B6020084
:10A6680030B5054685B00C46002900F099804D4B61
:10A678000B600C22002101A800F094F901238DF849
:10A68800063022688DF80450062301A92020ADF871
:10A698000830FFF7B9FF60B1FDF79CFB424A434B16
:10A6A80043499B1ADB081B04024643F00100FCF7F0
:10A6B80001FA0C22002101A800F074F901238DF899
:10A6C80005302268002301A940208DF806308DF856
:10A6D8000730FFF799FF60B1FDF77CFB324A334B37
:10A6E80034499B1ADB081B04024643F00100FCF7BF
:10A6F800E1F90C22002101A800F054F90A2322688C
:10A708008DF8043001A90120FFF77EFF60B1FDF745
:10A7180061FB254A254B28499B1ADB081B04024686
:10A7280043F00100FCF7C6F90C22002101A800F053
:10A7380039F94FF4B0632268019301A9A120FFF70A
:10A7480063FF60B1FDF746FB174A184B1B499B1A7C
:10A75800DB081B04024643F00100FCF7ABF90C22AE
:10A76800002101A800F01EF99DF8043022686FF35B
:10A77800000301A9A0208DF80430FFF745FF68B158
:10A78800FDF728FB084A094B0D499B1ADB081B04F7
:10A79800024643F00100FCF78DF9002005B030BDFA
:10A7A8000E20FBE7E0220020D8AA020020AB02001E
:10A7B800F8B302003EB402008AB40200D6B4020024
:10A7C80027B50200F8B506460768FFF71BFF336890
:10A7D800BB4205461DD9194B194C1A49E41AE4081D
:10A7E800240444F002042046FCF760F93368164953
:10A7F8003A462046FCF768F94FF080533268D3F8A0
:10A808000C3112499B0203F100539A1A2046FCF7B7
:10A8180051F925B90E4B01221A702846F8BD284671
:10A82800FDF7D8FA054A064B0A499B1ADB081B04B0
:10A83800024643F00100FCF73DF9EEE7D8AA020012
:10A8480020AB02007AB50200A9B50200DAB5020011
:10A85800BB2C002004B602004BDF70471FB50D4C1F
:10A8680001A8FFF7F9FF70B9214602A8FDF77DFAA4
:10A87800039B002BF4D00198D3E90021904702A84C
:10A88800FDF77DFAF4E7052801D0FCF7D1FB04B009
:10A8980010BD00BF3CB602007F2805D8034B185CEA
:10A8A800034B5B5C184070470020704754B60200A9
:10A8B800D4B60200A0F16103192B98BF2038704765
:10A8C800A0F14103192B98BF203070477F2805D885
:10A8D800034B185C034B5B5C1840704700207047C3
:10A8E80054B60200D4B60200A0F16103192B98BF38
:10A8F80020387047A0F14103192B98BF20307047CA
:10A908007F299ABF017001206FF02E0070475AB15D
:10A918000A787F2A0AD800B10260002119605960BC
:10A92800501A18BF01207047002070476FF02E00A2
:10A938007047000008B5034B5B689B681B68984725
:10A9480008BD00BF1C23002008B50921FFF7F2FF4E
:10A9580008BD844640EA010313F0030F18D184466A
:10A96800202A0BD32DE9F007B1E8F807A0E8F8078B
:10A97800A2F12002202AF7D2BDE8F007042A07D363
:10A9880051F8043B40F8043BA2F10402042AF7D230
:10A99800002A05D011F8013B00F8013B013AF9D132
:10A9A800604670478446002A2DD010F0030F04D06B
:10A9B80000F8011B013A26D0F7E7C9B241EA0121A4
:10A9C80041EA0141202A12D3A2F120022DE9F00325
:10A9D8000B460C460D460E460F4688468946A0E8AB
:10A9E800FA03203AFBD2BDE8F00320320BD0042A48
:10A9F80005D340F8041B043A05D0042AF9D200F81C
:10AA0800011B013AFBD16046704700F1010110F0CB
:10AA1800030F11D010F8012B002A23D010F0030FD8
:10AA28000AD010F8012B002A1CD010F0030F03D015
:10AA380010F8012B002A15D02DE970004FF00132D3
:10AA48004FF0803350F8044BA4EB020525EA0405C7
:10AA58001D4000D1F6E7A0F1040070BC10F8012BEE
:0AAA6800002AFBD1A0EB01007047AB
:08AA740029810200000000002E
:10AA7C00CD9D020000000000D1A00200B02B0020F0
:10AA8C00499C020000000000E3A20200DC2B002025
:10AA9C008FA30200C42B0020F191020000000000E3
:08AAAC00A5810200000000007A
:10AAB40019A602000000000065A8020000000000C2
:10AAC400742300203C240020442400207C23002004
:04AAD4001800000066
:10AAD800CCB1020000000000D2B10200000000006A
:10AAE800D9B1020000000000DDB102000000000042
:10AAF800E2B1020000000000A5AB02000000030361
:10AB0800C6B1020000000000A8B302000000030361
:10AB1800F0B302000000030330B602000000030394
:10AB280048B6020000000303C4AC020000000000A5
:10AB380068AB02000000000074AB0200F4220020A1
:10AB4800FFFFFFFFFFFFFFFFFFFFFFFFFFFFFFFF0D
:10AB580000000000000000000000D601060100000F
:10AB68000165020065650200B164020075617274D6
:10AB78005F6C6F675F6261636B656E640000000005
:10AB8800682800207F000000E82800204261636BED
:10AB9800656E647320666C757368656400617070B7
:10ABA80000000000DFAB020028AC0200E7AB0200A7
:10ABB80030AC020038AC020040AC020048AC0200E5
:10ABC80050AC020058AC020020253032780020201A
:10ABD80020007C002563001B5B306D002573001B83
:10ABE8005B313B33316D0025734C6F6773206472A2
:10ABF8006F70706564202825642925730D0A003C50
:10AC080025733E2025733A20000000000000000054
:10AC18007EAC020060AC020068AC02006DAC0200C1
:10AC28001B5B313B33306D001B5B313B33326D00B6
:10AC38001B5B313B33336D001B5B313B33346D00A1
:10AC48001B5B313B33356D001B5B313B33366D008D
:10AC58001B5B313B33376D007761726E696E67003D
:10AC6800696E666F006465627567000008290020D8
:10AC7800466174616C206572726F720053797374E7
:10AC8800656D2072657365740000000000000000A7
:10AC980000000000000000000338FDD87047303184
:10ACA800323334353637383941424344454600005B
:10ACB8007CAA02007CAA0200040000007077725F80
:10ACC8006D676D7400556E6B6E6F776E206572726E
:10ACD8006F7220636F6465000000000008AE020018
:10ACE8000100000014AE02000200000032AE0200B3
:10ACF8000300000053AE02000400000066AE02002C
:10AD08000500000077AE0200060000008BAE0200CE
:10AD180007000000A3AE020008000000BBAE02005E
:10AD280009000000D3AE02000A000000ECAE0200E9
:10AD38000B00000004AF02000C0000001BAF020073
:10AD48000D0000002FAF02000E00000041AF02000E
:10AD58000F00000050AF02001000000064AF0200B6
:10AD6800110000007BAF0200120000008AAF020051
:10AD7800130000009FAF020080000000B3AF020084
:10AD880081000000D4AF020082000000F0AF020092
:10AD9800830000000CB00200840000002AB002000A
:10ADA800850000004BB002008600000070B0020071
:10ADB8009000000087B0020091000000A5B00200DA
:10ADC80092000000C3B0020000820000D8B0020068
:10ADD80001820000F6B002000282000012B10200F7
:10ADE800008400002EB102000184000052B102006C
:10ADF800028400007CB1020003840000A1B10200BB
:10AE08004E52465F53554343455353004E52465F97
:10AE18004552524F525F5356435F48414E444C454A
:10AE2800525F4D495353494E47004E52465F455273
:10AE3800524F525F534F46544445564943455F4E1F
:10AE48004F545F454E41424C4544004E52465F4583
:10AE580052524F525F494E5445524E414C004E5249
:10AE6800465F4552524F525F4E4F5F4D454D004E23
:10AE780052465F4552524F525F4E4F545F464F55B0
:10AE88004E44004E52465F4552524F525F4E4F5409
:10AE98005F535550504F52544544004E52465F45FB
:10AEA80052524F525F494E56414C49445F504152AD
:10AEB800414D004E52465F4552524F525F494E56E1
:10AEC800414C49445F5354415445004E52465F45F6
:10AED80052524F525F494E56414C49445F4C454E81
:10AEE800475448004E52465F4552524F525F494EB2
:10AEF80056414C49445F464C414753004E52465FC9
:10AF08004552524F525F494E56414C49445F444165
:10AF18005441004E52465F4552524F525F4441548D
:10AF2800415F53495A45004E52465F4552524F526F
:10AF38005F54494D454F5554004E52465F45525255
:10AF48004F525F4E554C4C004E52465F4552524F41
:10AF5800525F464F5242494444454E004E52465F66
:10AF68004552524F525F494E56414C49445F414405
:10AF78004452004E52465F4552524F525F4255531B
:10AF880059004E52465F4552524F525F434F4E4E04
:10AF98005F434F554E54004E52465F4552524F52F2
:10AFA8005F5245534F5552434553004E52465F45F5
:10AFB80052524F525F4D4F44554C455F4E4F545F70
:10AFC800494E495449414C495A4544004E52465FFE
:10AFD8004552524F525F4D555445585F494E49545A
:10AFE8005F4641494C4544004E52465F4552524FD8
:10AFF800525F4D555445585F4C4F434B5F4641494E
:10B008004C4544004E52465F4552524F525F4D5593
:10B018005445585F554E4C4F434B5F4641494C454C
:10B0280044004E52465F4552524F525F4D5554456B
:10B03800585F434F4E445F494E49545F4641494C1F
:10B048004544004E52465F4552524F525F4D4F4461
:10B05800554C455F414C52454144595F494E49540E
:10B0680049414C495A4544004E52465F4552524F59
:10B07800525F53544F524147455F46554C4C004E22
:10B0880052465F4552524F525F4150495F4E4F54AE
:10B098005F494D504C454D454E544544004E52462F
:10B0A8005F4552524F525F464541545552455F4E97
:10B0B8004F545F454E41424C4544004E52465F4511
:10B0C80052524F525F494F5F50454E44494E4700D8
:10B0D8004E52465F4552524F525F4452565F545744
:10B0E800495F4552525F4F56455252554E004E5297
:10B0F800465F4552524F525F4452565F5457495F1C
:10B108004552525F414E41434B004E52465F4552B5
:10B11800524F525F4452565F5457495F4552525FEF
:10B12800444E41434B004E52465F4552524F525F88
:10B13800424C455F495053505F52585F504B545FE3
:10B148005452554E4341544544004E52465F455271
:10B15800524F525F424C455F495053505F434841FC
:10B168004E4E454C5F414C52454144595F45584904
:10B17800535453004E52465F4552524F525F424C11
:10B18800455F495053505F4C494E4B5F44495343C8
:10B198004F4E4E4543544544004E52465F45525229
:10B1A8004F525F424C455F495053505F504545529E
:10B1B8005F52454A4543544544000608290C636CD0
:10B1C8006F636B00434C4F434B004750494F544506
:10B1D80000505253005541525400554152544500B5
:10B1E800436F6E6E656374656400446973636F6E64
:10B1F8006E65637465640053656E6420627574746B
:10B208006F6E207374617465206368616E67652E64
:10B2180000000000000000000338FDD870475265A8
:10B22800636569766564204C4544204F4E21005281
:10B2380065636569766564204C4544204F46462120
:10B248000053656E736F723000426C696E6B7920C3
:10B258006578616D706C6520737461727465642EB5
:10B268000073645F626C655F6761705F64617461DD
:10B278005F6C656E6774685F7570646174652829B2
:10B2880020287265717565737429206F6E20636F4D
:10B298006E6E656374696F6E2030782578207265EC
:10B2A8007475726E65642025732E0054686520726B
:10B2B80065717565737465642054582F52582070F1
:10B2C80061636B6574206C656E67746820697320B0
:10B2D800746F6F206C6F6E672062792025752F253B
:10B2E80075206F63746574732E00546865207265E9
:10B2F8007175657374656420636F6D62696E6174DE
:10B30800696F6E206F6620545820616E6420525811
:10B31800207061636B6574206C656E677468732058
:10B32800697320746F6F206C6F6E672062792025B7
:10B3380075206D6963726F7365636F6E64732E0039
:10B3480073645F626C655F67617474635F6578637B
:10B3580068616E67655F6D74755F72657175657339
:10B368007428292072657475726E65642025732EA1
:10B378000073645F626C655F67617474735F65789E
:10B388006368616E67655F6D74755F7265706C790F
:10B3980028292072657475726E65642025732E00E5
:10B3A8006E72665F626C655F676174740023D1BCFE
:10B3B800EA5F782315DEEF1212000000000100009A
:10B3C80007000000ACAA0200ACAA020008000000B6
:10B3D800B4AA0200C4AA020008000000ACAA020035
:10B3E800B4AA0200080000006E72665F7364680009
:10B3F80073645F626C655F6366675F736574282951
:10B408002072657475726E6564202573207768658F
:10B418006E20617474656D7074696E6720746F2036
:10B4280073657420424C455F434F4E4E5F43464719
:10B438005F4741502E0073645F626C655F636667A7
:10B448005F73657428292072657475726E6564204F
:10B458002573207768656E20617474656D707469F2
:10B468006E6720746F2073657420424C455F4741B6
:10B47800505F4346475F524F4C455F434F554E54CC
:10B488002E0073645F626C655F6366675F736574E3
:10B4980028292072657475726E656420257320777B
:10B4A80068656E20617474656D7074696E67207468
:10B4B8006F2073657420424C455F434F4D4D4F4E8E
:10B4C8005F4346475F56535F555549442E007364A2
:10B4D8005F626C655F6366675F73657428292072B5
:10B4E800657475726E6564202573207768656E20B3
:10B4F800617474656D7074696E6720746F2073650C
:10B508007420424C455F47415454535F4346475F5C
:10B51800415454525F5441425F53495A452E007377
:10B52800645F626C655F6366675F73657428292072
:10B5380072657475726E6564202573207768656E10
:10B5480020617474656D7074696E6720746F207300
:10B55800657420424C455F47415454535F43464706
:10B568005F534552564943455F4348414E4745441A
:10B578002E00496E73756666696369656E7420523C
:10B58800414D20616C6C6F636174656420666F72F5
:10B598002074686520536F66744465766963652E08
:10B5A800004368616E6765207468652052414D20CC
:10B5B8007374617274206C6F636174696F6E206656
:10B5C800726F6D203078257820746F203078257858
:10B5D8002E004D6178696D756D2052414D2073695B
:10B5E8007A6520666F72206170706C696361746936
:10B5F8006F6E20697320307825782E0073645F623F
:10B608006C655F656E61626C65282920726574756A
:10B61800726E65642025732E000000007CAA02006B
:10B62800ACAA0200080000006E72665F7364685F6F
:10B63800626C650074AA02007CAA0200080000007F
:10B648006E72665F7364685F736F630020202020EA
:10B65800202020202068282828282020202020207A
:10B6680020202020202020202020202048101010DA
:10B6780010101010101010101010101084848484F2
:10B6880084848484848410101010101010818181A7
:10B698008181810101010101010101010101010112
:10B6A80001010101010101101010101010828282A5
:10B6B80082828202020202020202020202020202E2
:10B6C80002020202020202101010102000070320DA
:10B6D80004170201085710408000000088B80200D3
:10B6E8004CB7020060B8020053756E004D6F6E00D3
:10B6F80054756500576564005468750046726900A2
:10B7080053617400000000004A616E0046656200E3
:10B718004D617200417072004D6179004A756E008A
:10B728004A756C0041756700536570004F6374007B
:10B738004E6F76004465630000000000414D0050E4
:10B748004D00000084B8020080B8020080B80200F2
:10B7580080B8020080B8020080B8020080B80200F9
:10B7680080B8020080B8020080B80200FFFFFFFF27
:10B77800FFFFFFFFFFFFFFFFFFFF0000C0B7020052
:10B78800F0B60200FCB7020010B7020044B702008E
:10B79800A4B7020054B80200B0B70200256D2F25E7
:10B7A800642F257900000000256120256220256589
:10B7B800202554202559000053756E646179004D89
:10B7C8006F6E6461790054756573646179005765BB
:10B7D800646E657364617900546875727364617925
:10B7E80000467269646179005361747572646179A5
:10B7F800000000004A616E756172790046656272E8
:10B8080075617279004D6172636800417072696C8C
:10B81800004D6179004A756E65004A756C79004182
:10B8280075677573740053657074656D6265720031
:10B838004F63746F626572004E6F76656D626572F4
:10B8480000446563656D62657200000025483A250D
:10B858004D3A255300000000A1A80200BDA802002F
:10B86800C9A80200D5A80200F1A80200FDA802009C
:10B8780009A9020017A90200000000002E0000001C
:0CB8880043000000504F534958000000DE
:10B8940000000000002000400000000000200040E4
:10B8A4000000000000000000FF0000000090D00332
:10B8B40026000300F9920200702B00201F000000F4
:10B8C4008F2B00201F000000FF00FFFFE4B60200E2
:10B8D400E4B60200E4B60200E4B60200E4B60200F4
:0400000320006379FD
:00000001FF
