:020000022000DC
:106000000000042079630200616302006363020000
:10601000656302006763020069630200000000001C
:106020000000000000000000000000006B630200A0
:106030006D630200000000006F63020071630200E4
:10604000ED79020073630200F97E020073630200BF
:106050007363020073630200557D02001D7F02001E
:10606000C1840200D18402007363020073630200E2
:1060700073630200736302007363020073630200C0
:1060800073630200DD6C020073630200736302003D
:10609000796D020073630200399A02007363020093
:1060A0007363020073630200736302007363020090
:1060B0007363020073630200000000000000000030
:1060C0007363020073630200736302007363020070
:1060D0007363020073630200736302007363020060
:1060E0007363020073630200736302000000000028
:1060F00000000000736302000000000073630200F0
:10610000000000000000000000000000000000008F
:10611000000000000000000000000000000000007F
:10612000000000000000000000000000000000006F
:10613000000000000000000000000000000000005F
:10614000000000000000000000000000000000004F
:10615000000000000000000000000000000000003F
:10616000000000000000000000000000000000002F
:10617000000000000000000000000000000000001F
:10618000000000000000000000000000000000000F
:1061900000000000000000000000000000000000FF
:1061A00000000000000000000000000000000000EF
:1061B00000000000000000000000000000000000DF
:1061C00000000000000000000000000000000000CF
:1061D00000000000000000000000000000000000BF
:1061E00000000000000000000000000000000000AF
:1061F000000000000000000000000000000000009F
:10620000364937480A1A02D0072291438D4635494C
:1062100035480A1A06D00722914381F309880222E1
:1062200082F3148831483249324A00F045F8324846
:106230003249334A00F040F832483349334A00F0DB
:106240003BF833483349344A00F036F83348344990
:10625000344A00F031F834483449354A00F02CF81B
:1062600034483549354A00F027F835483549002289
:1062700000F02DF834483549002200F028F8344861
:106280003449091A082903DB002202600430016046
:10629000314A90471F482049884205D0026804309F
:1062A00003B4904703BCF7E700208646EC46002085
:1062B00000212A4A9047FEE7884207D0521A05D0AB
:1062C000037801300B700131013AF9D170478842EF
:1062D00002D002700130FAE770470000000004208D
:1062E00000E003200000042000000420D0A80200E9
:1062F000E022002000230020D8630200D8630200BF
:10630000E89D0200D0A80200E0220020E022002048
:10631000B49E0200B49E0200B49E0200B49E02002D
:10632000B49E0200B49E0200B49E0200B49E02001D
:10633000D0A80200F0A802000023002000230020C3
:1063400000230020442C0020442C0020442C00205A
:10635000442C0020444C0020A1630200118702005D
:10636000FEE7FEE7FEE7FEE7FEE7FEE7FEE7FEE705
:10637000FEE7FEE7704700BF1048804710484FF027
:106380000701884385460F4880470F48016841F45C
:1063900070010160BFF34F8FBFF36F8FFFF730BF06
:1063A0000A480B490B4A884207D0521A05D0037895
:1063B00001300B700131013AF9D170477563020069
:1063C00000000420A975020088ED00E0B49E0200E0
:0863D000E0220020E022002081
:1063D8007047037813F0040216D003F00303012B6F
:1063E80003D0022B09D0012070470A6800880232C6
:1063F800C0F3831002440A60F5E70B684288023351
:1064080003EB92130B60EEE7104670472DE9F04F4F
:1064180089B00546861C08A8484C019200230F46FF
:1064280000F8113D00F090FE23683B60D4E9012399
:106438001344226801339B1A04F21C4704F5836A4B
:1064480004F21448B3421AD3019A0023002A6DD0EB
:10645800012262F3010343F0040365F38913216801
:10646800A2689DF80F000A4003320E4444F8223017
:10647800266000F08DFE012009B0BDE8F08F0121F3
:10648800384600F0E2FE504600F0F5FE404600F0C7
:10649800F2FE0DF120096068D4F808B049F8100D33
:1064A80000EA0B00033004EB80004946FFF791FF38
:1064B800049BB0B90BEA030204EB8202D168059190
:1064C8009A1C013303EA0B0B04EB8B0C01F003035A
:1064D800012B0492DCF80CB020D0022B04D08346A8
:1064E8000BE00BEA0300DDE7BDF816309B09033328
:1064F8004FEA1B4B02EB93030493404600F0BEFEA9
:1065080008B1049B63605946384600F09EFED4E902
:1065180001231344226801339B1A93E7BDF8143012
:10652800C3F383134FEA1B4B1344E5E7022262F3DC
:10653800010343F0040365F39F5390E7D023002041
:106548000B4B0C48FF2210B59A600022C3F81824A0
:10655800C3E90022C3F8142483F8202400F025FF9F
:10656800044610B9044800F0C3FF204610BD00BF20
:10657800D0230020389E0200B49E0200034BD3E9CA
:106588000030C31A58425841704700BFD02300203A
:106598002DE9F04387B0FFF7F1FF0646002840F0E9
:1065A800FC807F4DC5F81804BFF34F8F6868AC684E
:1065B80006AF47F8100D2040033005EB8000394640
:1065C800FFF707FF029B18B1D5F81824002A5FD0FF
:1065D80004EA0302991C013305EB8202234005EB10
:1065E8008303D268DB68049302F00303022B03924F
:1065F800029162D1BDF80E306A484FEA9318B8F19B
:10660800500FC14628BF4FF0500969F38F1309F1A5
:106618000801ADF80E3000F0E0FE0746002800F053
:10662800A78000F009FF03A900230822384600F0DC
:1066380016FF029924EA01060136B600B14535D99C
:106648005FFA89F97EB3F6B2A9EB06092140033156
:106658005FFA89F4B146544E05EB810108234A4696
:10666800384600F0FCFE36B109F1080322463146EF
:10667800384600F0F4FE029B08F1030803EB980388
:106688000293D5F81834002B4BD1D5F810445BE0B1
:106698002A689A4204D86A60304607B0BDE8F08399
:1066A80004EA030088E740493446D7E7214003312C
:1066B80008234A4605EB8101DAE7012B58D1BDF8DA
:1066C8000C303848C3F38311062928BF062161F32B
:1066D800891302318900ADF80C3000F07EFE0746C0
:1066E800002845D000F0A8FE0023082203A9384658
:1066F80000F0B5FE0026BDF80C20C2F38312B31CCF
:1067080096424FEA8303BCD202994A1C21400331C6
:10671800029205EB81010422384600F0A0FE013602
:10672800E9E7384600F08CFEFFF728FF80F001000B
:10673800C6B2B1E7E3685B7923B1236839461B68C1
:1067480020469847E3681C68002CF3D1384600F0CF
:1067580077FE06A800F8114D00F0F6FCD5F81834BD
:106768000BB9029B6B609DF8070000F011FDDBE799
:10677800D5F8104454B90D4B0D480E49C01AC0083D
:10678800000440F0020000F06FF8CDE723682046CF
:106798009B689847E3681C68ECE700267CE700BF25
:1067A800D0230020389E0200DC2300204C9E0200EB
:1067B8007C9E0200C09E02002DE9F74F284C8046BF
:1067C8000F46924601A9012218469B46D4F8089024
:1067D800FFF71CFE88B3019D0026A91C5E4506EB49
:1067E800010234D100211F4800F004FD80F310009D
:1067F8006A1C02EA090204EB8202000405EA0903A2
:10680800033340EA1840D06014F8232068F3C50227
:1068180004F8232034F8232066F3891224F823206F
:1068280054F82320012167F39F2244F8232061F3C1
:1068380001026FF3820204F8232094F820341BB17C
:10684800FFF7A6FE0028FBD103B0BDE8F08F09EAE8
:10685800020204EB82025AF82630D3600136BDE703
:10686800D0230020EC27002000231A46FFF7A4BFFE
:1068780013B502AC012344F8042D2246FFF79CFF10
:1068880002B010BD07B5CDE9002302236A46FFF721
:1068980093FF03B05DF804FB094A38B50123D2F829
:1068A800104482F820341D4604B938BDE3685D7190
:1068B800236820465B689847E3681C68F4E700BFD4
:1068C800D02300202DE9F04F3B4F89B000263B4BE9
:1068D8001B78F5B2AB4202D809B0BDE8F08F384B4F
:1068E800196811F835000124A0F12002C0F1200335
:1068F80004FA02F924FA03F349EA0309D7E9002361
:1069080004FA00F8CDE9042302EA080203EA0903BD
:10691800134301EBC50B4CD0DDE9042322EA08023E
:1069280023EA0903C7E90023079101F0FFF9079952
:10693800844611F83500A0F12002C0F1200324FAA2
:1069480003F304FA02F21A4304FA00F300931D4B0E
:106958000192DDE90045D3E9002314401D40224699
:106968002B465FFA8CF40025CDE90445049CA0F180
:106978002005AC400394049CC0F1200124FA01F1E5
:10698800039C0C430499039481400291DDE902457C
:10699800AB4208BFA2420CD19BF801104B1E5942D2
:1069A8005941A1EB0C02DBF804305142514103B1CB
:1069B800984701368BE700BFC02800208C280020AC
:1069C800C8280020B82800202DE9F84F064624489A
:1069D80000F0AAFB002841D10123A6F12001C6F14D
:1069E800200203FA01FB23FA02F203FA06FA1D4B0E
:1069F800D3E900014BEA020B00EA0A0801EA0B0995
:106A080058EA09021F4623D1304601F08FF9164B88
:106A1800B8B1D3E9000140EA0A0441EA0B05C3E929
:106A28000045D7E900234BEA0305104B0C481968C9
:106A38004AEA0204C7E900450022BDE8F84F00F021
:106A48002FBBD3E9000120EA0A0421EA0B05E6E797
:106A580020EA0A0421EA0B05C3E90045BDE8F88FDE
:106A680094280020C0280020B82800209028002062
:106A7800042A2DE9F34105460C4616463AD901F099
:106A880059F8D8B11C4B1D491D601D4BDFF8848097
:106A98001C701C4B00221E600023C1E900231A4908
:106AA800C1E90023013CE4B200260327FF2C0CD1E6
:106AB800164A1748002100F0E1FA03E001F004F853
:106AC8000028DFD002B0BDE8F08123B205EBC30295
:106AD80001A992788DF8052015F833008DF8066025
:106AE80042468DF8047001F02FF8013CE4B200280A
:106AF800DCD0E7E70720E5E7C8280020B828002011
:106B08008C28002090280020C0280020CD68020092
:106B1800D89E0200D169020070B5084D084E0024C5
:106B28002B789C4201D3002070BD3368012113F8F3
:106B3800340001F08FF80134F2E700BF8C28002000
:106B4800C828002070B5094D094E00242B789C42B6
:106B580004D30848BDE8704000F0E6BA336813F87B
:106B6800340001F0C1F80134F0E700BF8C280020A0
:106B7800C8280020942800201FB50021039001AAEE
:106B880044F20100CDE9011100F004F805B05DF808
:106B980004FB000010B572B6FFF77EFEFFF7F8FCA5
:106BA8000028FBD1104B114C1149E41AE4082404C5
:106BB80044F00100FFF758FE0E4B1B68DB0700D5B9
:106BC80000BE0D4944F00200FFF74EFEBFF34F8FA1
:106BD8000A490B4BCA6802F4E0621343CB60BFF367
:106BE8004F8F00BFFDE700BF4C9E02007C9E020055
:106BF800DC9E0200F0ED00E0E89E020000ED00E0FF
:106C08000400FA05094A537891780133DBB29942B6
:106C180008BF0023117899421FBF037050781823CA
:106C280003FB002014BF043000207047CC2800204C
:106C380073B5054602A8002400F8014D0E4600F081
:106C480083FA0DF10600FFF7DDFF90B106700A4BDD
:106C58009DF8062045605A709DF8070000F098FAE4
:106C680024B9064B4FF48012C3F80021204602B025
:106C780070BD0424F0E700BFCC28002000E100E04C
:106C8800024B4FF43C6043F001031847009F020099
:106C980038B50C4B0C4C4FF40032C3F8802001255A
:106CA8004FF48033C4F84833C4F808336560FFF7FD
:106CB800E7FF064BA56000241C60FFF7E1FF044BCB
:106CC8001C7038BD00E100E000100140E8290020F8
:106CD800D9290020F8B51F4B1F491B680025C1F8AA
:106CE8004051C1F84451C1F84851C1F84C51C1F85C
:106CF8000051C1F804514BB3D1F80445174909684C
:106D0800641A24F07F442F461A68A24209D8A41AAC
:106D180015441A7CDE691AB11F74D3E9052090471F
:106D2800AEB90F4B0F4A197813788B4205D101334E
:106D3800DBB2022B08BF0023137012780A4B43F80A
:106D480022500A4B4FF48012C3F80021F8BD334695
:106D5800DAE700BFEC29002000100140E8290020F4
:106D6800E4290020E5290020DC29002000E100E0DA
:106D78002DE9F74F9E4A9F49137809789E4D99420D
:106D88003CD00133DBB2022B08BF002313709B49B0
:106D980012789B4B0F6853F822003B1823F07F436F
:106DA80000220B602B6816461446944613B942B16C
:106DB8002B6006E0196881420ED902B12B60091ACE
:106DC80019604FF001082B68DFF83CA200930027F8
:106DD800BEB9DFF83CB260E0401A0C44D968C3F889
:106DE80000C0D3F81CE031B13A1922F07F42C3E960
:106DF8000121DE611E4601227346D7E70026B04610
:106E0800E1E73446F6697D4A63681268DFF804C230
:106E1800A068991A21F07F41614500F2A5800144DC
:106E28002160012222742A680023C4E90133E36146
:106E3800002A40F0A2802C60CAE75A1C9BF8021076
:106E4800D2B291428BF8002004BF00228BF80020B8
:106E5800182202FB03B32A6819799C68022974D0A6
:106E680003297ED0012918D1217CB1B9DA68626082
:106E78001A69A2605A699B69A361624BE2601B7838
:106E8800002BC0D06160BEE79C4200F09380994619
:106E9800DB69002BF8D1002323749BF800309BF8A2
:106EA80001209A42C9D12B682FB9009A934202D186
:106EB800B8F1000F43D0002B79D0D3F800A0524D81
:106EC8004E4BD5F804751C68DFF84C813E1B98F8CA
:106ED800003026F07F4603369BB94FF48033C5F85F
:106EE8004433C5F80433494B4FF400324FF00109DD
:106EF800C3F880211A60C5F80090FFF7C1FE88F832
:106F08000090B2452CBF5444A41924F07F44C5F81E
:106F18004045D5F80435DB1B23F07F43E41B0333DE
:106F280024F07F44A3420AD9D5F80435C5F8403582
:106F3800FFF7A6FE354B4FF40032C3F80021314B62
:106F480000221A7003B0BDE8F08F13469146A0E7FF
:106F58001174D2690123002AFAD1002B9DD02A602E
:106F68009BE700231946F6E7D31A23F07F438342B1
:106F780034BFC31A0023236053E72168136899427A
:106F880013D8591A1160E26155E7091AD8691A46E7
:106F980038B1034618688842F7D3401A1860184673
:106FA80013462160E061DC6112E71346F2E7FFF760
:106FB8006FFEC4E74C450DD1D3692B6053B90F4818
:106FC80001920121CAF8081003600E4B1970FFF7EF
:106FD80057FE019AE1692368C9F81C1011B10868C5
:106FE80003440B602B689A4218BF012753E700BF80
:106FF800E4290020E5290020EC290020E8290020C8
:10700800DC290020D82900200010014000E100E020
:10701800CC280020FEFF7F00D929002008B5FFF703
:1070280037FE104B00200B2218809A700E4B186008
:107038000E4B18700E4B18700E4B4FF48012C02177
:10704800C3F8802183F814131A6002F18042A2F574
:107058006F22C2F8080583F81113074BD2F80425EC
:107068001A6008BDCC280020EC290020E429002063
:10707800E529002000E100E0E8290020074B9B7883
:107088004BB132B128B10368187C20B959745A61E0
:107098007047072070470820704700BFCC280020A1
:1070A8002DE9F7431D4FBB7805460E4690469BB326
:1070B80090B304292ED9436973B3437C02A80024F2
:1070C800012B00F8014D0CBF8946A14600F03CF8A1
:1070D8000DF10600FFF796FDD0B101230370104BA8
:1070E8004560D3F80435C0E90498C0E902369DF834
:1070F80006307B709DF8070000F04AF824B9094B68
:107108004FF48012C3F80021204603B0BDE8F08395
:107118000424EFE70724F7E70824F5E7CC28002044
:107128000010014000E100E0064A92783AB130B11F
:10713800426922B1002202740221FFF779BD0820BA
:10714800704700BFCC28002070B5EFF3108672B6E8
:107158000C4A946801239CB993600B4B0B4DD3F8F0
:10716800801029401160C3F88050D3F88410516012
:107178004FF0FF32C3F88420047006B962B670BDC0
:107188000370FAE7F029002000E100E0FC06FFBDEB
:10719800084B9A6810B55AB150B9EFF3108172B61E
:1071A800054A1C6814605C685460986001B962B64E
:1071B80010BD00BFF029002000E100E001F01F022F
:1071C8004B090121914000EB830000F01DB801F04C
:1071D8001F0301229A404B0900EB8300D14300F0C2
:1071E80029B84B0901F01F0150F82300C84000F0EE
:1071F8000100704750E8002F0B4640E8003C9CF027
:10720800000FF7D11046704750E8003F43EA0102EB
:1072180040E8002C9CF0000FF6D11046704750E86B
:10722800002F02EA010340E8003C9CF0000FF6D171
:107238001046704750E8003F03EA010240E8002C7E
:107248009CF0000FF6D11046704750E8003F03EB62
:10725800010240E8002C9CF0000FF6D11046704760
:1072680050E8003FA3EB010240E8002C9CF0000F1F
:10727800F6D1104670470121FFF7C6BF0021FFF77E
:10728800CEBF10B590B1D0E9012301689B1ADBB2DB
:107298000A60013BDBB2FF2B026802D100201071AB
:1072A80010BD11684C1C14600B70F2E70E20F7E754
:1072B80037B5054602A8002400F8014DFFF744FF42
:1072C8002A686B68116899420ED9481E106011F837
:1072D800014CEB68298A01FB0434AB6811791B1A4D
:1072E800DBB2994238BF13719DF80700FFF750FFD2
:1072F800204603B030BD37B5054602A8002300F884
:10730800013D0C46FFF720FF2A681368591C1160DD
:10731800E968641A298AB4FBF1F41C709DF8070027
:10732800FFF736FF03B030BD2DE9F047B0F80690FF
:107338004479D2F800A09DF8208009FB04F4043CAD
:1073480006460AEB0300A0420F4688BFA4EB030AD7
:10735800191DC2F800A0B1FBF9F509FB15114DB9CB
:10736800A9EB0104544528BF5446BAF1000F04D1D3
:10737800BDE8F0873668013DF1E704317B197018E4
:107388002246B8F1000F0ED001461846AAEB040AAF
:1073980002F09AFCD145254436684C464FF000016E
:1073A80028BF5446E1E71946F0E7FFF76ABFF8B58A
:1073B80046790146721E0546002393422D6803D381
:1073C8000024A64202D8F8BD0133F6E70F68284624
:1073D800FFF791FF01343946F3E72DE9F843068AB0
:1073E800CD1C0746FFF764FF043E35440446B5FB51
:1073F800F6F5F0B14FF48073EDB28380C680013D9D
:10740800076081464FF00008A84512D23846FFF7BA
:107418004FFF064648B163790133637108F10108EB
:10742800C9F8000007608146EEE72046FFF7BFFF76
:1074380034462046BDE8F88301210430FFF705BF34
:1074480010B5012104460430FFF70AFF10F0FF0FC2
:1074580004D12046BDE81040FFF7A9BF10BD1FB5F5
:1074680004AC44F8042D002200922246FFF75CFF8A
:1074780004B010BD41DF7047064B10B500241C70E6
:10748800054B1C60BFF35F8F0449054800F039F8CD
:10749800204610BD042A0020082A0020089F020068
:1074A800FC29002007B502A8002300F8013DFFF7DA
:1074B8004BFEF1EE103A23F09F03E1EE103ABFF3D2
:1074C8005F8F0A4B4022C3F884219DF80700FFF71D
:1074D8005FFE02F093FA20B1FFF7CCFF03B05DF82E
:1074E80004FB20BF40BF20BFF8E700BF00E100E079
:1074F800836800225A609A60C3E90422DA601A603D
:1075080070470B684A684360934208BF00230160D4
:1075180008BF43607047436843B102689168526886
:107528000B449342436004BF00234360704700004C
:107538000D4930B5A1F594720225914201D8002079
:107548000EE08B1ADB1093FBF5F302EBC30452F841
:107558003330834205D802D204F10802EDE76068AF
:1075680030BD2146E9E700BF58A0020008B5FFF783
:10757800DFFF024B002808BF184608BD1D9F020008
:10758800054B1B68082B01BF044B1868B0FA80F044
:10759800400918BF00207047300100103401001066
:1075A80008B54FF080430022C3F80C21C3F810211E
:1075B800C3F838254FF0805203F54043D2F804143D
:1075C800C3F82015D2F80814C3F82415D2F80C14FF
:1075D800C3F82815D2F81014C3F82C15D2F81414CF
:1075E800C3F83015D2F81814C3F83415D2F81C149F
:1075F800C3F84015D2F82014C3F84415D2F824145F
:10760800C3F84815D2F82814C3F84C15D2F82C142E
:10761800C3F85015D2F83014C3F85415D2F83414FE
:10762800C3F86015D2F83814C3F86415D2F83C14BE
:10763800C3F86815D2F84014C3F86C15D2F844247E
:10764800C3F87025FFF79CFF10B1384B384A1A6011
:10765800FFF796FF18B1374BFB22C3F81825FFF741
:107668008FFF48B13449354B0A681B6822F00F0276
:1076780003F00F0313430B60FFF782FF18B1304B81
:107688004FF400721A604FF08043D3F80024D207F9
:1076980044BF6FF00102C3F800242A4AD2F88830A8
:1076A80043F47003C2F88830BFF34F8FBFF36F8F76
:1076B8004FF01023D3F80022002A03DBD3F804325A
:1076C800002B2FDA204B0122C3F80425D3F800241D
:1076D800002AFBD04FF010221221C2F80012D3F872
:1076E8000024002AFBD04FF010231222C3F80422F2
:1076F800154B1A46D3F800140029FBD00021C3F813
:107708000415D2F80034002BFBD0BFF34F8F0D497E
:107718000E4BCA6802F4E0621343CB60BFF34F8F8D
:1077280000BFFDE70A4B0B4A1A6008BD8C560040A3
:107738004881030000F00040E40E004058020010A9
:107748004096024000ED00E000E001400400FA0528
:10775800E02200200090D003074B1B5C1F2B86BF44
:1077680003F01F0305494FF0A041012202FA03F379
:10777800C1F80C35704700BF12A402000003005086
:10778800074B1B5C1F2B86BF03F01F0305494FF0F7
:10779800A041012202FA03F3C1F80835704700BF7F
:1077A80012A402000003005008B50020FFF7E8FF0C
:1077B8000120FFF7E5FF0220FFF7E2FF0320BDE805
:1077C8000840FFF7DDBF0000C10710B5044642D5E9
:1077D8004FF08043D3F84036DA072ED54FF0102308
:1077E800D3F8043303F00703072B26D11D4B0122DE
:1077F800C3F80425D3F80024002AFBD04FF0102149
:10780800D1F8042322F0070242F00402C1F804234D
:107818000022C3F80425134AD2F80034002BFBD009
:10782800BFF34F8F1049114BCA6802F4E06213434B
:10783800CB60BFF34F8F00BFFDE74FF0A0420C496C
:107848000323C2F81837C2F82037C1F82437C2F822
:107858003037FFF7A9FFA30742BF054B0C22C3F837
:10786800182710BD00E0014000ED00E00400FA0513
:107878000003005038B5084C04F1080305460028F9
:1078880018BF1C4623682BB11A6822605B6828461B
:107898009847F7E738BD00BF142A002020B9054BE8
:1078A80001225A70FFF7E6BF012802D1014A907001
:1078B800F8E770470C2A002020B9034B01225A70C0
:1078C800FFF7D8BF704700BF0C2A002038B50B4C13
:1078D800237883B90A486360A3602361E36000F0FA
:1078E80055F8054602F08AF808B900F05DF801235A
:1078F8002370284638BD8525FBE700BF0C2A0020E9
:10790800A578020037B502A80023094C00F8013D0C
:10791800FFF71AFCE368013BE360E56815B900F07E
:1079280055F8A5709DF80700FFF732FC03B030BD8D
:107938000C2A0020012813B509D003D303281BD033
:1079480002B010BD0F4B0122C3F88020F8E702A84F
:1079580000230D4C00F8013DFFF7F6FB23780BB927
:10796800FFF7B4FFE3689DF807000133E3600123E4
:10797800A370FFF70DFCE3E700F016F8FFF7C2FF6E
:10798800DEE700BF00E100E00C2A0020054A137979
:107998002BB9012110601171537118467047852069
:1079A800704700BF202A0020074B1A68D2075FBF24
:1079B800C02283F8002301221A604FF0804301227D
:1079C800C3F81825704700BF00E100E0044B01220E
:1079D8001A604FF08042D2F81834DB03FBD47047AA
:1079E8000C000040154B07B51A687AB100221A60DE
:1079F8001B680093009B4FF080430122C3F80823C3
:107A08000F4B587910B95A711B6898470D4B1A6873
:107A180082B100221A601B680193019B4FF08043DA
:107A28000222C3F80823064B1B68012003B05DF847
:107A380004EB184703B05DF804FB00BF00010040E9
:107A4800202A00200401004000F1804000F5C040D9
:107A5800002382B0036003680193019B02B0704762
:107A680003681F2B83BF03F01F03036001484FF017
:107A7800A04070470003005007B502AB43F8040D5F
:107A88001846FFF7EDFF019B00EB8300D0F80037A5
:107A980023F44033C0F80037D0F8003743EA0141F7
:107AA800C0F8001703B05DF804FB0000054B4FF069
:107AB800FF32072843F8202084BF1B1883F858207A
:107AC800704700BF282A002010B5164C94F86A3079
:107AD80033BBFF21E2180133302B82F83010F9D183
:107AE8000021C8B2FFF7E2FF01310C29F9D10622C3
:107AF80000210D4802F011F90C4BC02283F806232F
:107B080040221A604FF4BE70FFF79EFF084B4FF0FB
:107B18000042C3F80423012384F86A30002010BD12
:107B28000820FCE7282A00208C2A002000E100E039
:107B380000600040034B93F86A00003018BF012032
:107B4800704700BF282A0020F7B5404F3B1804466D
:107B580093F93030002B944675DA8B78C3F34003E1
:107B6800002B15BF0025082508200C20854202D1CE
:107B7800042003B0F0BD57F8252001324FEA8506EE
:107B880049D1381947F825C080F8305013B97B1906
:107B980083F858408B785A071BD4D8073DD502A8DC
:107BA80040F8084DFFF75CFF009B00EB8300D0F81E
:107BB800003723F00203C0F800372548E20804F034
:107BC800070C012303FA0CF310F802C043EA0C0374
:107BD8008354887891F800C010F002002AD006F18A
:107BE800804303F5C0432402D3F8102522F44F3212
:107BF80022F44072C3F810254FEA0C4CD3F8102534
:107C080004F47C540CF4403C44EA0C041443C3F8D8
:107C180010450020ADE70135A8E702A84A7840F8EA
:107C2800044DFFF71DFF019B03F5E073920040F838
:107C38002320C2E7083D3D4495F8604044EA8C1C87
:107C480085F860C095E7082093E700BF282A002040
:107C58008C2A002073B5224C2518064695F9302049
:107C6800072A1ADD224492F858309B09032B10D1B9
:107C780002A840F8046DFFF7F3FE019AD0F810351A
:107C8800D340DB0707D402213046FFF7F5FE02B0E8
:107C980070BD012BF7D00321F6E7D3B2072BF6D836
:107CA800930003F1804303F5C043D3F8100540F077
:107CB8000100C3F8100502F14000800080B2FFF710
:107CC800C3FE0029E3D095F9303054F82330002B57
:107CD800DDD0012303FA02F2024BC3F80423D6E7EE
:107CE800282A0020006000400E4B034493F93020FE
:107CF800072A02DD0021FFF7BFBED3B2072B10D839
:107D0800930003F1804303F5C043D3F8101521F025
:107D18000101C3F81015012303FA02F2024BC3F85C
:107D280008237047282A00200060004007B502ABEE
:107D380043F8040D1846FFF793FE019BD0F8100591
:107D4800D84000F0010003B05DF804FB2DE9F04FC6
:107D5800002489B0CDE902445F4A604E604D01219C
:107D68001368A2F5C040012B80B206D1D6F80433BF
:107D78000B4202D0FFF768FE0C430432AA424FEAD6
:107D88004101EDD1574B1B68012B0ED14FF4BE704A
:107D9800FFF75AFE4FF0A04344F00044D3F81035E3
:107DA8000293514BD3F81035039314F0FF0F1AD0F8
:107DB8004E4F00250126344210D0AB0003F180431A
:107DC80003F5C043D3F81005D3F8101557F825303C
:107DD800C0F30520C1F3014103B198470135082DCF
:107DE8004FEA4606E7D1002C72DA04AE002304936A
:107DF80073604FF0FF33CDE906333C4F4FF0010875
:107E080000252C467B1993F96020531C47D0D2B229
:107E180022F0C00908A84FEAD90300EB030B02F0CF
:107E280007011BF8080C08FA01F1084237D007EBE4
:107E38000900920990F9300057F820A0BAF1000F14
:107E480005D1032A2BD1F05C0843F05401E0032A42
:107E5800F9D001A8CDF80490FFF702FE019B03F5C5
:107E6800E07350F823301BF8180C0842C3F30143A1
:107E780005D0022B13D1032A0BD1114604E0032BA2
:107E88000DD1032A05D102214846FFF7F5FD01343B
:107E9800E4B2BAF1000F02D011464846D047013586
:107EA800042DAFD1A4B14FF0A0430299D3F8102507
:107EB80003F540739142D3F8103502D103999942E2
:107EC80006D002920393049A059B0692079397E7BC
:107ED80009B0BDE8F08F00BF0061004000600040BD
:107EE800206100407C61004000030050282A0020E7
:107EF800014B1B68184700BF942A002000F18040FE
:107F080000F5E040002382B0036003680193019B01
:107F180002B07047F0B5514B514C1B6885B0DBB1CE
:107F28004FF4827094F82E20FFF7E8FF12B194F80E
:107F38002F30A3B1636802932389ADF80C30E3684E
:107F480000218DF80410002B44D12374236801A864
:107F58009847002384F82F3094F82E3003B3414B10
:107F68001B68EBB14FF48070FFF7C8FF94F82D2021
:107F7800638B91B28B4238D95B1A21899BB2638398
:107F8800CB1A616801EB4301374BC3F82C16C3F8D1
:107F980030264FF48270FFF7B1FF344B01221A608C
:107FA800334B1B685BB14FF48870FFF7A7FF0023C2
:107FB80004A82374022300F80C3D236898472D4B2E
:107FC8001B6813B34FF48A70FFF798FF00232374DC
:107FD80005B0F0BD208B608363602081E160002ADA
:107FE800B4D1214B01221A60B0E7D2D1E368012154
:107FF80084F82F103BB1002161831B49C1F82C364E
:10800800C1F83026C5E76383C3E766694FF00047C8
:108018000125002EDCD0B6FA86F227FA02F34632A2
:10802800920026EA030602F1804303F5E0431B6849
:10803800002BEED01046FFF761FFA2F58C72D30833
:1080480082F00402C2F380028DF808308DF80450E3
:108058008DF80920236801A89847DAE704710040E1
:108068009C2A00200071004000700040047000400D
:10807800107100401471004038B51E4B044693F847
:108088002C00A8BB1C4A19602178C2F8F015617849
:10809800C2F8F415E5781874012183F82C1083F8D8
:1080A8002D00586183F82F0083F82E506FF000439D
:1080B800C2F808334FF48270FFF720FF4FF4807046
:1080C800FFF71CFF4FF48A70FFF718FFA3780B48DF
:1080D8005B01DBB280F80733802303600223C2F818
:1080E80004330DB1C2F80413C2F80015002038BDDE
:1080F8000820FCE79C2A00200070004000E100E016
:10810800224B1A7C30B5002A3ED100F10C0403EB57
:108118004402127922B993F82D20013283F82D20D8
:1081280003EB4403CA790C7A1A715C718D784B7829
:108138002D021B0105F4E06503F030032B430D7895
:1081480005F003052B43CD782D0305F480552B430B
:108158000D792D0405F4E0252B434D7989792D05FA
:1081680005F48015090601F080712B430B430101CA
:1081780001F1804101F5E0410020C1F81835C1F84E
:108188001445C1F8102530BD1120FCE79C2A0020B9
:10819800264A274B70B505461220C2F808031C7CF6
:1081A800022C03D1C2F80403112070BD187C0128E9
:1081B8001DD1D86818B10223C2F80433F4E7DD6092
:1081C800198393F82E3063B91A4A1368002BFCD030
:1081D8004FF48070FFF792FE144BC3F82C56C3F887
:1081E8003016124B0222C3F804230020DDE70220D8
:1081F80093F82E40C2F80403012600201E745D6027
:108208001981D8603CB1598393F82D30C2F82C56A7
:10821800C2F83036C9E7C2F82C564FF48070C2F85D
:108228003016FFF76BFE20461660BEE70070004070
:108238009C2A002000710040084A137CDBB2012B05
:1082480009D192F82E0018B1054A00201360704732
:10825800044A136070470820704700BF9C2A00201A
:108268000070004004700040F0B51B4F8BB207EB64
:10827800001443EA0243C4F81C35184B40005C69FB
:1082880000F1010C4FF0004611F5006F26FA0CF6CC
:108298004FF0800505FA00F50BBFB44334435C6129
:1082A8005C610CBFC7F80853C7F8045340244FF06B
:1082B80000455969844025FA00F040F2FF75AA424A
:1082C800054A0BBF81430143596159610CBFC2F88C
:1082D8000843C2F80443F0BD007000409C2A002007
:1082E800124B1A7C10B5FAB900F10C0103EB4102EC
:1082F800127922B193F82D20013A83F82D2003EB4F
:10830800410300241C715C71030103F1804303F5F0
:10831800E04340F2FF72C3F814450549C3F810451D
:10832800FFF7A2FF204610BD1120FCE79C2A002081
:1083380000F8FFFF38B5134B6FF00042C3F808236D
:10834800114A8021C2F88010104A01211160104999
:1083580042F21072086808B9013AFBD10D4D0024A9
:10836800C3F800452C7405EB44031B7F13B1E0B23E
:10837800FFF7B6FF0134082CF5D1002385F82C301F
:1083880038BD00BF0070004000E100E00870004008
:10839800147100409C2A0020054B1A7810B52AB1A8
:1083A80000241C7000F006F8204610BD0820FCE7E9
:1083B800CC2A00201049114B002270B5C1F80835AD
:1083C800012533231646D0B205FA00F41C4218BF23
:1083D80000F5007002F1010218BF41F82060A343C4
:1083E800F1D1074A13685B0C5B041360054A1378E4
:1083F80023F03303137070BD00F00140FFFF01004C
:10840800D02A0020D42A002038B5012303FA00F02E
:10841800430C5B04CBB918B10E4B1B68184216D03D
:108428000D4B0025C3F808052846FFF79FF80B4CAD
:108438000B4B0C4A0C49E41AE4082404034644F0A4
:108448000300FEF71FFA284638BD0725ECE7082584
:10845800EAE700BFD02A002000F001405C9E02003D
:108468004C9E020033A4020063A402002DE9F743E6
:10847800002406460F4600F5A0754FF48038A14643
:1084880004F150002B68800080B26BB1D6F8043339
:1084980008FA04F21A4207D0C5F800902B68019335
:1084A800019BD7E9003198470134042C05F10405F4
:1084B800E6D103B0BDE8F08301490248FFF7D6BF13
:1084C800D82A00200080004001490248FFF7CEBFAB
:1084D800E42A00200090004072DF704773DF704785
:1084E80076DF70477ADF70477CDF70477FDF704741
:1084F8008FDF7047B1DF7047FEF73EBB08B5054B0D
:1085080001211878FFF7EAFF18B1BDE80840FEF727
:1085180033BB08BDFC2200200388212B13B5044679
:1085280049D01ED8112B27D0132B3CD0102B38D173
:10853800294B2A482A49C01AC008000440F0030001
:10854800FEF792F9274BA1882748198001F0D2F845
:1085580008B1FEF711FBFEF7DFFA10B3FEF70CFBCC
:108568001FE0522B2FD0562B01D03B2B19D11321B2
:10857800A088FFF7B5FFF0E7174B18481B49C01A4A
:10858800C008000440F00300FEF76EF9154B4FF6E3
:10859800FF721A80FEF7D6FA08B1FEF7EDFAFFF778
:1085A800ADFF02B010BD0F4800231A468521008890
:1085B800FFF79CFFD1E702A9002321F8043D80883A
:1085C800FFF796FFC9E7074800231A4619460088AF
:1085D800FFF790FFC1E700BF4C9E02007C9E02009F
:1085E8008BA40200FE2200205C2B002095A4020030
:1085F80008B503784BB9054B3B211888FFF770FF86
:1086080018B1BDE80840FEF7B7BA08BDFE22002041
:10861800262810B50C461AD10F4B10481049C01A1D
:10862800C008000440F00300FEF71EF90D4B0E4988
:108638001888224601F03CF930F008020BD043F2CA
:108648000202904207D043F20142904203D0BDE8B3
:108658001040FEF791BA10BD4C9E02007C9E0200AD
:10866800A2A40200FE220020442B002070B5184C62
:1086780000232360F2B100F04FF9164E00F074F9B0
:10868800642546F001064FF47A40B047013DFAD11F
:10869800114B0F48B3F90030236000F0DDF90F4BA0
:1086A80022780F49188801F003F92846BDE8704080
:1086B80000F064B91046FFF763F80120FFF760F88F
:1086C8000220FFF75DF80320BDE87040FFF758B8B7
:1086D800682B0020C0A402006C2B0020FE22002082
:1086E800442B0020FEF748BA08B540F26662012123
:1086F8000448FEF7BDF918B1BDE80840FEF73CBADA
:1087080008BD00BFE422002000B54FF40041A7B027
:108718000020FDF715FF08B1FEF72EFAFDF758FE09
:1087280000F087F900F090F900F07AF9FFF7DCFF24
:1087380000F052F901F026F908B1FEF71DFA26AC4F
:10874800002344F83C3D0120214601F0A1F908B17D
:10875800FEF712FA204601F04DFA08B1FEF70CFABE
:1087680026AD112305F8783D574801F009FB564915
:1087780082B22846FFF7B8FE08B1FEF7FDF90822D5
:108788000021204601F0C9FA504A4FF0C87320462C
:10879800CDE91723FFF7A6FE08B1FEF7EDF9002192
:1087A8004B4800F095FE08B1FEF7E6F90023089360
:1087B8002146484B4848179300F08AFF08B1FEF756
:1087C800DBF9464B46480893294601F009F808B1F9
:1087D800FEF7D2F941F22353ADF80430404B3C2266
:1087E8009B7C8DF806300021284601F096FA02237A
:1087F80001268DF820303C220623002120468DF8E2
:1088080022608DF8233001F088FAADF86C60354E9F
:1088180001AB321D31681C93284600F0CEF908B12F
:10882800FEF7AAF9304AB168204600F0C6F908B147
:10883800FEF7A2F91822002102A801F06EFA00231F
:108848000122ADF8143003934FF480738DF808209B
:10885800ADF81C3002AA4023224924480493FFF7AC
:108868003BFE08B1FEF788F91C220021204601F0E2
:1088780054FA00234FF42022CDE91732ADF86A30BC
:108888004FF420328DF86C30194B19921C93032247
:10889800184B8DF8682020461D9300F059FC08B14C
:1088A800FEF76AF9144CFFF729FE44F0010400F0C2
:1088B8009FF800F0C1F84FF4FA654FF47A40A047EA
:1088C800013DFAD1F3E700BFC6A402005000A000A2
:1088D800302B0020018502005C2B002075860200E9
:1088E800442B0020EC220020F8220020FC2200204B
:1088F800F9850200ED860200C0A4020008B50378DD
:1089080043B901214068FFF743FC18B1BDE80840AE
:10891800FEF732B908BD00001FB50F4A106851684C
:10892800127A01AB03C30D490D481A70FFF7A4FB77
:1089380008B1FEF721F901A90020FFF7E1FB08B112
:10894800FEF71AF901210748FFF722FC08B1FEF7E4
:1089580013F905B05DF804FBD2A4020005890200F2
:10896800DBA402006C2B002008B5FFF765FC18B1EA
:10897800BDE80840FEF700B908BD000038B5114B46
:10898800114C05461878FFF73FFDFFF705FD012359
:10899800A360FFF7CFFC0223C4F808330B4B8022F7
:1089A800C3F8802165B1BFF34F8F0949094BCA68E5
:1089B80002F4E0621343CB60BFF34F8F00BFFDE7C3
:1089C80038BD00BF6E2B00200070004000E100E0C1
:1089D80000ED00E00400FA0508B5FEF74DFD08B10A
:1089E800FEF7CAF84FF080430122C3F8782508BD86
:1089F80008B5FDF7CDFD18B9BDE80840FEF752BD32
:108A080008BD000038B5054D4FF4FA7445F001056E
:108A18004FF47A40A847013CFAD138BDE0A40200DF
:108A280008B5FEF7FBFA18B1BDE80840FEF7A4B890
:108A380008BD0120FEF7C8BE024B4FF40052C3F830
:108A48000C25704700030050024B0322C3F834275B
:108A5800704700BF0003005008B50368632B06DCAD
:108A68000020FEF779FEBDE80840FFF7CBBFA3F171
:108A78006502622A01D80120F3E7A3F1C902622A3C
:108A880001D80220EDE76FF4967C03EB0C02622A12
:108A980001D80320E5E76FF4C8701A18622A03D8D2
:108AA8000120FEF759FEECE76FF4FA71591840F20D
:108AB8005622914203D80120FEF74EFEE9E76FF4F3
:108AC800FA62134440F2CE72934201D80220F3E7CF
:108AD80008BD6DDF704779DF70477DDF704764DF61
:108AE80070472DE9F74F0C9CBDF834B02788002556
:108AF80080468A4691462E46B8F80020B2420BDCE2
:108B080035B12288013AD21B92B2FF2A39D8DA55F8
:108B1800002003B0BDE8F08FD8F8042052F82600F2
:108B2800019000220DF1030101A8FFF7D8FF0028EA
:108B3800EFD19DF803204A4521D12288002D14BF8A
:108B48000020022002EB09010144594519DC3DB916
:108B5800013292B2228003F802A0228801322280D8
:108B680022880DF103011A4401A8FFF7B8FF002875
:108B7800CFD121889DF803200A442280012501369F
:108B8800BAE70C20C5E72DE9F341089CBDF824504D
:108B98001746CDE9004502220646FFF7A2FF48B96D
:108BA800102239463046CDE9084502B0BDE8F0410B
:108BB800FFF797BF02B0BDE8F0812DE9F04F002321
:108BC8001688138090F82D3085B007460D46144658
:108BD80053B3082E01D80C2026E102A8FFF779FF2D
:108BE800002840F0218113880822CA5423880133C1
:108BF8009BB21B222380CA542088013080B2208077
:108C080006220DF10901284401F05EF823889DF839
:108C1800082006339BB212F0FE0218BF01222380FF
:108C2800EA54238801332380BB78FBB123880433BB
:108C3800B342D0D802A8FFF74EFF002840F0F480D6
:108C480023880322EA54238801339BB21922238004
:108C5800EA542388BDF8082001339BB2E918238021
:108C6800EA54120A4A70238802332380FA789AB1A8
:108C78002388D91CB142AED80221E9542388013394
:108C88009BB201212380E95423880B449BB22380A3
:108C9800EA5423880B4423807A68AAB12388D91C14
:108CA800B14298D8022192F90020E954238801336F
:108CB8009BB20A212380E954238801339BB2238085
:108CC800EA542388013323803B89002B40F0A0809D
:108CD8003B8A5BB1CDE900462B460722032107F109
:108CE8001000FFF750FF002840F09E803B8B5BB1DF
:108CF800CDE900462B461522142107F11800FFF78D
:108D080042FF002840F090803A6A002A40F08F80A5
:108D1800D7F82480B8F1000F30D0B8F80430218893
:108D2800981C8A1C0244B2423FF655AFFE283FF613
:108D380052AF03336B54238801339BB2FF22238045
:108D4800EA54238801339BB22380B8F80020EA5400
:108D5800E918120A4A702088023080B22080B8F8D8
:108D680004205AB1D8F8081000296AD0284400F025
:108D7800ABFF2388B8F804201344238097F82C30DD
:108D8800002B40F09980387800284DD03B88012B83
:108D980057D021888A1CB2423FF61DAF012805D161
:108DA8007B7802330B449E42FFF415AF023E761ADD
:108DB80004A9B6B221F8086DA818FFF78EFE98BB73
:108DC8003978BDF80820022900F0BB807B789342EF
:108DD80002D3B24240F2B380012940F0B4809BB282
:108DE8009E42C0F0B080ADF808300821BDF80830C8
:108DF800FE2B3FF6F0AE22880133AB5422880132B5
:108E080092B22280A95422881344238000200BE0C8
:108E1800CDE900462B460622022107F10800FFF79C
:108E2800B2FE00283FF454AF05B0BDE8F08FB4F8A7
:108E380000C00CF10603B3423FF6CDAE11880529F8
:108E480001D80720F0E76FF4486E01EB0E039BB2E0
:108E58004FF27D3E7345F4D95388052BF1D96FF451
:108E68004860181880B27045EBD94FF6FF70814200
:108E780003D0834201D09942E3D8052305F80C308A
:108E8800238801339BB212212380E95423880133BC
:108E98009BB223801188E954E818090A4170238895
:108EA80002339BB223805288EA54E918120A4A70A6
:108EB8002388023323802BE7BB6A002BC1D04FF0F5
:108EC80000094FF00C0A4FF0160B97F82C305FFA98
:108ED80089F293427FF657AFB96A0AFB02F201EBB7
:108EE8000208B8F80430981CFE283FF674AE2088B3
:108EF80003332B54238801339BB2238005F803B036
:108F0800238801339BB223808A5AEA54E918120A4B
:108F18004A702088023080B22080B8F804205AB104
:108F2800D8F8081000298CD0284400F0CDFE2388FA
:108F3800B8F804201344238009F10109C5E7092181
:108F480054E7B242FBD9ADF808604EE775DF7047C9
:108F580076DF70477ADF70477BDF7047034B1A88EC
:108F680082420CBF18460020704700BF8C2B00209F
:108F7800024B9B6903B11847704700BF702B002054
:108F880037B585B22846FFF7E9FF034670B1164C9E
:108F9800017A227B91420BD200F10A012846FFF7A1
:108FA800D5FFE8B1112801D0FFF7E2FF03B030BDCB
:108FB800237C0022027243B13B212846FFF7C8FFF9
:108FC80030F0080301D0FFF7D3FF6369002BEDD021
:108FD80000228DF80420ADF8065001A89847E5E76F
:108FE8001A7A01321A72E1E7702B002013B50B468A
:108FF800497A0F4C024669B9D4E901101C7A002C51
:1090080018BF01465868FEF74BF808B1FFF7B0FFE4
:1090180002B010BD002119726369002BF8D001213C
:10902800ADF806008DF8041001A89847F0E700BFD6
:10903800702B00208388B3F5FA7F28BF6FF4F9728C
:1090480030B528BF9C1805884A8838BF0024954247
:109058000CD84088904209D38A88A24206D303F2EA
:10906800F310904234BF0020012030BD0020FCE7FF
:109078000388112B70B5014648D002D8102B1ED09A
:1090880070BD122B52D0502BFAD12F4BC288DB89DE
:109098009A42F5D1038A022BF2D186883046FFF72F
:1090A8005DFF05460028EBD001F1120000F025F91C
:1090B80030BB6868FEF738F80028E1D009E0C37BC8
:1090C800012BDDD14FF6FF70FFF748FF054620B9A9
:1090D8000420BDE87040FFF74BBF1C4A8E8806800D
:1090E800002303721368C5F80A300A3053684360D6
:1090F8001031FFF79FFF144B6872DB89002BBFD13B
:1091080029463046BDE87040FFF770BF8088FFF7FA
:1091180025FF04460028B3D04068FEF705F808B1DB
:10912800FFF726FF4FF6FF732380A9E786883046AE
:10913800FFF714FF05460028A2D008310A30FFF7D0
:1091480079FF6872DCE700BF702B0020A02B00209D
:10915800F8B5064650B305460FCD154F3C460FC42B
:1091680095E8070084E807003068124B3B60B8B107
:10917800FFF7F0FEC8B931680A681A604A685A6091
:109188000D480E4A4FF6FF7303800D4B40F8043F1D
:109198000021FDF773FF002814BF0320002004E01E
:1091A8001846FFF7D9FE0028EAD0F8BD0E20FCE7E4
:1091B800702B0020A02B00208C2B0020898F020010
:1091C800A82B002073B50191019C06466CB10025BF
:1091D8002C46294601A8FEF704F818B106EB44030B
:1091E80001349D800135142DF3D13046346002B02E
:1091F80070BD00002DE9F04303888488112B8DB0E1
:10920800064640D01A2B43D0102B16D1294DAB68F7
:109218000CA8DB4340F8303D55F8041FFEF70AF868
:10922800009901A8FFF7CEFF0027019B9F4207D3B3
:10923800132C18D90420FDF79FFC0DB0BDE8F0836E
:1092480001AB03EB47034FF00008B3F8049005EBBC
:109258000800494608F10408FDF7B9FFB8F1740F92
:10926800F5D10137E1E721461348FDF7A7FF21466D
:109278001248FDF7A3FFF37B012BDED010482146EF
:10928800FDF79CFFD9E70C482146FDF7A0FFD4E77E
:10929800057A0C482D09012D214606D9FDF78EFFC8
:1092A800022D21460848F0D0EAE7FDF790FF214655
:1092B8000548EAE7C82B0020D02B0020CC2B002043
:1092C800D42B0020D82B0020DC2B0020AADF7047ED
:1092D800002301380B70042806D8DFE800F00306E5
:1092E800080A0C0011230B7070472123FBE7312378
:1092F800F9E71223F7E72223F5E7007800F00100E9
:109308007047F0B58B7891B005460C46164603B900
:10931800012303228DF80E3000212388ADF80C308C
:10932800684600F0FAFC6946607CFFF7D1FF0DF152
:109338000101A07CFFF7CCFF9DF80230E27B62F3CD
:10934800C303227C62F30413227B62F30003227DB1
:10935800002A14BF0222012262F3420300211C22C8
:1093680009A88DF8023000F0D8FC637B13F0300FA9
:1093780015D002AF03220021384600F0CEFC0DF1D3
:109388000901E07CFFF7A4FF11238DF808309DF850
:109398000A300E97012262F342038DF80A30637B8C
:1093A8008DF824301422A37B8DF82530002104A8E1
:1093B80000F0B3FC03AB0493A388ADF81C30A3689A
:1093C800CDF814D01BB1E288ADF818200893A36932
:1093D800002B2ED001AF03220021384600F09DFC5F
:1093E800A3691A88ADF82C205A88187BADF82E206E
:1093F80039465A680A920D97FFF76AFFA3690DF17B
:109408000501587BFFF764FFA2699DF80630917A41
:1094180061F3C303D17A61F30413117A927B002AB2
:1094280061F3000314BF0222012262F342038DF8A4
:109438000630E36903B10C93334604AA09A9284608
:10944800FFF744FF11B0F0BD90DF7047A5DF70470C
:10945800B5DF70477FB50023ADF80810ADF80A10E6
:109468006A4602A9064603930093ADF80430FFF755
:10947800EBFF0546F8B1114B114CE41AE408FEF76E
:1094880075F8240444F00104034632460D49204689
:10949800FDF7F8F9BDF80020BDF8023002B91BB19C
:1094A80009492046FDF7EEF9BDF804201AB107492D
:1094B8002046FDF7DDF9284604B070BD4C9E020039
:1094C8008C9E0200E6A4020030A502006FA50200EF
:1094D80080B14FF0171303601B2303711723C38058
:1094E800038141F61B32002301618372C3728281BA
:1094F800184670470E20704713B5034680880C46FF
:10950800A0B91A88232A00F0AE8011D8102A25D0D5
:10951800112A54D0A37A4BB1E1880020FFF796FFB7
:10952800002840F0A6800123A072E37202B010BDAB
:109538003A2A4DD0552A67D0242AEBD11A7A0B69DA
:109548004A73002BE6D04DF67A21ADF80400ADF849
:109558000010ADF802008DF8042080E0DB7B0A796A
:109568000A73012B13D0022B14D0E18823898B4274
:1095780005D20020FFF76AFF70B90123E372217B4F
:10958800637B8B42C6D20020FFF764FFC2E70B88DB
:10959800E380EAE74B88FBE7112802D10123A37295
:1095A800EDE7FDF7E3FF3B4A3B4B3C499B1ADB08E1
:1095B8001B04024643F00100FDF75AF9DFE71723C1
:1095C800CB800B8141F61B338872C8728B81A1E76F
:1095D8005B89CA88934228BF1346172B0A6938BF8C
:1095E80017230B8162B1C97A51B140F67721ADF8E2
:1095F8000010ADF80200ADF80430694620469047E7
:109608000023E372A37285E7DB88C988A072172B51
:1096180038BF17238B4228BF0B462381FFF718FF5B
:1096280060B1FDF7A3FF1B4A1B4B1D499B1ADB08C2
:109638001B04024643F00100FDF71AF9E27A002AFA
:109648007FF468AF2369002B3FF464AF40F67721BD
:10965800ADF802202289ADF80010ADF80420694663
:109668002046984756E7197A237B994228BF19461E
:109678008AE711283FF45AAFFDF778FF054A064BF1
:1096880006499B1ADB081B04024643F00100FDF75C
:10969800EFF84BE74C9E02008C9E0200C5A5020025
:1096A800F6A50200B0DF704766DF7047034610B5C5
:1096B80000214088FFF7F8FF024608B91A7210BD6A
:1096C800112801D10122F9E75B68BDE8104018476D
:1096D80060B159B10378DE2B0AD00B684360DE23F2
:1096E80003704FF6FF734380002070470E207047C9
:1096F8000820704728B10378DE2B04D14180002070
:1097080070470E20704708207047F0B5054685B0B1
:109718000C46F1B1E8B10B78DE2B1AD182884B8860
:109728009A4204D10B7A13B10846FFF7BFFF2B8882
:10973800112B32D0512B0ED0012B0AD12B7A012BB1
:1097480007D1A9886288914203D123722046FFF786
:10975800ADFF05B0F0BDAE886388B342F9D1AF79EB
:10976800022FF6D1AD7B2B1F022BF2D8002110223D
:10977800684600F0D2FA052D14BF4FF4C0730023D9
:10978800694630468DF80070ADF80430FFF78AFF5F
:109798000028DED063689847DBE76388AA889A4286
:1097A80004BF4FF6FF736380D3E7A8DF7047AEDFCF
:1097B800704762DF70470288502A10B40DD1C48800
:1097C8004A88944209D1028A012A06D14B6923B1F9
:1097D800827C5DF8044B808818475DF8044B70471D
:1097E800F0B50B6843618FB0304B02AA044603F111
:1097F8001007164618685968154603C50833BB4252
:109808002A46F7D104F112013046FFF7D2FF0028AB
:109818004AD1A37C8DF806300EA941F2235321F8D2
:10982800343D22460120FFF7C0FF00283CD1014605
:10983800202206A800F071FA41F22453ADF818303E
:10984800A37C8DF81A309DF82530208801254FF02B
:10985800011643F0120304F10A0206A907968DF8CF
:1098680025308DF829508DF82B50FFF74AFDD8B9CF
:109878000146202206A800F050FA41F22553ADF81F
:109888001830A37C8DF81A309DF82530208807966B
:1098980043F00A03A21C06A98DF825308DF829503B
:1098A8008DF82A50FFF72DFD0FB0F0BD32A602004B
:1098B80070B588B00E468DF80720102205460124A1
:1098C8000DEB02000021ADF80E4000F026FA738976
:1098D800ADF810300DF10703079304A90DF10E033D
:1098E80028468DF812400693FFF761FF08B070BD57
:1098F80010DF704713B5044609496846FDF701FEB5
:10990800019808B902B010BDD0E900312046984747
:1099180018B16846FDF7FFFDF2E71120F2E700BF36
:1099280048A6020013B5044607496846FDF7E9FD55
:10993800019B0BB902B010BD2046D3E90021904726
:109948006846FDF7E8FDF3E760A602000B4991F8C9
:1099580016335A09EC231341DB0706D5084B9A68DE
:109968003AB94FF480030B60704742F20200FDF7EA
:1099780003B91A6842F480021A60704700E100E0F7
:10998800F0290020F7B5184F3C785CBB174E01252D
:1099980020463570FFF7AEFF112820D02046FFF78C
:1099A800C1FF134B1868019002A800F8054DFDF798
:1099B800CBFB104901A8FFF79BFF0446B0FA80F0E3
:1099C800400938709DF80300FDF7E2FB3CB90A4BEB
:1099D80034701C70FFF7BAFF2846FFF7A3FF204634
:1099E80003B0F0BD0824FAE7412C0020402C0020E9
:1099F80042A602009D6B0200422C0020014B187801
:109A0800704700BF412C002007B508496846FDF79C
:109A180078FD019B13B903B05DF804FBD3E900207E
:109A280090476846FDF777FDF3E700BF54A60200AC
:109A3800FFF7EABF60DF704769DF704761DF704793
:109A480030B5114B1B7891B0E3B1104D34240DF1B2
:109A5800020103A8ADF80240FFF7F0FF70B92946EC
:109A680001A8FDF74EFD029B002BF0D003A8D3E917
:109A78000021904701A8FDF74EFDF4E7052801D025
:109A8800FDF77AF811B030BD432C0020A0A80200E1
:109A980030B5054685B00C46002900F099804D4B3D
:109AA8000B600C22002101A800F037F901238DF882
:109AB800063022688DF80450062301A92020ADF84D
:109AC8000830FFF7B9FF60B1FDF750FD424A434B3C
:109AD80043499B1ADB081B04024643F00100FCF7CC
:109AE800C7FE0C22002101A800F017F901238DF808
:109AF80005302268002301A940208DF806308DF832
:109B08000730FFF799FF60B1FDF730FD324A334B5C
:109B180034499B1ADB081B04024643F00100FCF79A
:109B2800A7FE0C22002101A800F0F7F80A232268FA
:109B38008DF8043001A90120FFF77EFF60B1FDF721
:109B480015FD254A254B28499B1ADB081B040246AC
:109B580043F00100FCF78CFE0C22002101A800F064
:109B6800DCF84FF4B0632268019301A9A120FFF744
:109B780063FF60B1FDF7FAFC174A184B1B499B1AA3
:109B8800DB081B04024643F00100FCF771FE0C22BF
:109B9800002101A800F0C1F89DF8043022686FF395
:109BA800000301A9A0208DF80430FFF745FF68B134
:109BB800FDF7DCFC084A094B0D499B1ADB081B041E
:109BC800024643F00100FCF753FE002005B030BD0B
:109BD8000E20FBE7E02200204C9E02009C9E020023
:109BE80074A60200BAA6020006A7020052A7020045
:109BF800A3A70200F8B506460768FFF71BFF3368FE
:109C0800BB4205461DD9194B194C1A49E41AE408F8
:109C1800240444F002042046FCF726FE3368164963
:109C28003A462046FCF72EFE4FF080533268D3F8B0
:109C38000C3112499B0203F100539A1A2046FCF793
:109C480017FE25B90E4B01221A702846F8BD284682
:109C5800FDF78CFC054A064B0A499B1ADB081B04D6
:109C6800024643F00100FCF703FEEEE74C9E0200BB
:109C78009C9E0200F6A7020025A8020056A8020032
:109C8800432C002080A802004BDF70471FB50D4C05
:109C980001A8FFF7F9FF70B9214602A8FDF731FCCA
:109CA800039B002BF4D00198D3E90021904702A828
:109CB800FDF731FCF4E7052801D0FCF75DFF04B09F
:109CC80010BD00BFB8A80200844640EA010313F0A3
:109CD800030F18D18446202A0BD32DE9F007B1E8E9
:109CE800F807A0E8F807A2F12002202AF7D2BDE879
:109CF800F007042A07D351F8043B40F8043BA2F1CB
:109D08000402042AF7D2002A05D011F8013B00F812
:109D1800013B013AF9D1604670478446002A2DD0AC
:109D280010F0030F04D000F8011B013A26D0F7E722
:109D3800C9B241EA012141EA0141202A12D3A2F124
:109D480020022DE9F0030B460C460D460E460F4641
:109D580088468946A0E8FA03203AFBD2BDE8F0031A
:109D680020320BD0042A05D340F8041B043A05D04E
:109D7800042AF9D200F8011B013AFBD1604670476A
:109D880000F1010110F0030F11D010F8012B002A87
:109D980023D010F0030F0AD010F8012B002A1CD092
:109DA80010F0030F03D010F8012B002A15D02DE96D
:109DB80070004FF001324FF0803350F8044BA4EBA1
:109DC800020525EA04051D4000D1F6E7A0F10400CC
:109DD80070BC10F8012B002AFBD1A0EB01007047E2
:089DE800C17802000000000038
:109DF000FD9102000000000001950200302B0020C0
:109E00007990020000000000139702005C2B0020F4
:109E1000BF970200442B00202185020000000000B3
:089E20003D7902000000000082
:109E2800499A020000000000959C02000000000012
:109E380000230020C8230020D0230020082300206E
:049E480018000000FE
:109E4C001CA402000000000022A40200000000007C
:109E5C0081A402000000030329A4020000000000FA
:109E6C002DA402000000000085A4020000000000E8
:109E7C00D19E02000000030316A4020000000000A3
:109E8C0025A60200000003036CA6020000000303D9
:109E9C00ACA8020000000303C4A8020000000303E6
:089EAC00149F020000000000F9
:109EB400F42700207F000000742800204261636BB7
:109EC400656E647320666C75736865640061707098
:109ED4000000000094280020466174616C206572C3
:109EE400726F720053797374656D20726573657453
:109EF4000000000000000000000000000338FDD84E
:109F040070470000F09D0200F09D02000400000074
:109F14007077725F6D676D7400556E6B6E6F776EE0
:109F2400206572726F7220636F6465000000000028
:109F340058A002000100000064A00200020000001A
:109F440082A0020003000000A3A00200040000009D
:109F5400B6A0020005000000C7A002000600000031
:109F6400DBA0020007000000F3A0020008000000CC
:109F74000BA102000900000023A102000A00000056
:109F84003CA102000B00000054A102000C000000E0
:109F94006BA102000D0000007FA102000E00000072
:109FA40091A102000F000000A0A102001000000017
:109FB400B4A1020011000000CBA1020012000000B5
:109FC400DAA1020013000000EFA1020080000000EB
:109FD40003A202008100000024A20200820000000B
:109FE40040A20200830000005CA202008400000082
:109FF4007AA20200850000009BA2020086000000F5
:10A00400C0A2020090000000D7A20200910000004C
:10A01400F5A202009200000013A3020000820000D7
:10A0240028A302000182000046A30200028200006D
:10A0340062A30200008400007EA3020001840000E9
:10A04400A2A3020002840000CCA302000384000047
:10A05400F1A302004E52465F535543434553530008
:10A064004E52465F4552524F525F5356435F4841EA
:10A074004E444C45525F4D495353494E47004E524E
:10A08400465F4552524F525F534F465444455649DA
:10A0940043455F4E4F545F454E41424C4544004E4C
:10A0A40052465F4552524F525F494E5445524E41BB
:10A0B4004C004E52465F4552524F525F4E4F5F4DD9
:10A0C400454D004E52465F4552524F525F4E4F54DB
:10A0D4005F464F554E44004E52465F4552524F52D2
:10A0E4005F4E4F545F535550504F52544544004EA9
:10A0F40052465F4552524F525F494E56414C494475
:10A104005F504152414D004E52465F4552524F52AC
:10A114005F494E56414C49445F5354415445004EA7
:10A1240052465F4552524F525F494E56414C494444
:10A134005F4C454E475448004E52465F4552524F7D
:10A14400525F494E56414C49445F464C4147530087
:10A154004E52465F4552524F525F494E56414C490A
:10A16400445F44415441004E52465F4552524F525F
:10A174005F444154415F53495A45004E52465F453E
:10A1840052524F525F54494D454F5554004E52461A
:10A194005F4552524F525F4E554C4C004E52465FF3
:10A1A4004552524F525F464F5242494444454E0035
:10A1B4004E52465F4552524F525F494E56414C49AA
:10A1C400445F41444452004E52465F4552524F52FE
:10A1D4005F42555359004E52465F4552524F525FAB
:10A1E400434F4E4E5F434F554E54004E52465F45CB
:10A1F40052524F525F5245534F5552434553004EAE
:10A2040052465F4552524F525F4D4F44554C455F45
:10A214004E4F545F494E495449414C495A454400B4
:10A224004E52465F4552524F525F4D555445585F0A
:10A23400494E49545F4641494C4544004E52465F9D
:10A244004552524F525F4D555445585F4C4F434B06
:10A254005F4641494C4544004E52465F4552524F79
:10A26400525F4D555445585F554E4C4F434B5F46D6
:10A2740041494C4544004E52465F4552524F525F4D
:10A284004D555445585F434F4E445F494E49545FC2
:10A294004641494C4544004E52465F4552524F5246
:10A2A4005F4D4F44554C455F414C52454144595FC5
:10A2B400494E495449414C495A4544004E52465F1F
:10A2C4004552524F525F53544F524147455F465592
:10A2D4004C4C004E52465F4552524F525F415049DA
:10A2E4005F4E4F545F494D504C454D454E54454487
:10A2F400004E52465F4552524F525F4645415455B7
:10A3040052455F4E4F545F454E41424C4544004ECA
:10A3140052465F4552524F525F494F5F50454E443B
:10A32400494E47004E52465F4552524F525F445287
:10A33400565F5457495F4552525F4F5645525255E6
:10A344004E004E52465F4552524F525F4452565F42
:10A354005457495F4552525F414E41434B004E5260
:10A36400465F4552524F525F4452565F5457495FBD
:10A374004552525F444E41434B004E52465F455254
:10A38400524F525F424C455F495053505F52585FA1
:10A39400504B545F5452554E4341544544004E5221
:10A3A400465F4552524F525F424C455F49505350AD
:10A3B4005F4348414E4E454C5F414C5245414459E0
:10A3C4005F455849535453004E52465F4552524FCD
:10A3D400525F424C455F495053505F4C494E4B5F6E
:10A3E400444953434F4E4E4543544544004E524610
:10A3F4005F4552524F525F424C455F495053505F44
:10A40400504545525F52454A454354454400060869
:10A41400290C636C6F636B00434C4F434B004750F4
:10A42400494F544500505253005341414443006E38
:10A434007266785F7070695F6368616E6E656C5F89
:10A4440064697361626C6500416C6C6F636174650F
:10A4540064206368616E6E656C3A2025642E004644
:10A46400756E6374696F6E3A2025732C2065727261
:10A474006F7220636F64653A2025732E0050504933
:10A484000054494D455200436F6E6E6563746564B4
:10A4940000446973636F6E6E65637465640053652D
:10A4A4006E6420627574746F6E20737461746520B9
:10A4B4006368616E67652E00000000000338FDD8F4
:10A4C400704754656D705F53656E736F7200000062
:10A4D4000000020000060001000600000338FDD859
:10A4E400704773645F626C655F6761705F64617419
:10A4F400615F6C656E6774685F757064617465280C
:10A504002920287265717565737429206F6E206324
:10A514006F6E6E656374696F6E2030782578207273
:10A52400657475726E65642025732E005468652009
:10A534007265717565737465642054582F52582080
:10A544007061636B6574206C656E677468206973F1
:10A5540020746F6F206C6F6E672062792025752FD1
:10A564002575206F63746574732E005468652072BA
:10A57400657175657374656420636F6D62696E617E
:10A5840074696F6E206F6620545820616E64205287
:10A5940058207061636B6574206C656E67746873B2
:10A5A40020697320746F6F206C6F6E67206279204E
:10A5B4002575206D6963726F7365636F6E64732EA6
:10A5C4000073645F626C655F67617474635F657870
:10A5D4006368616E67655F6D74755F7265717565DB
:10A5E400737428292072657475726E6564202573EE
:10A5F4002E0073645F626C655F67617474735F657A
:10A60400786368616E67655F6D74755F7265706CA1
:10A614007928292072657475726E65642025732EFD
:10A62400006E72665F626C655F676174740023D14B
:10A63400BCEA5F782315DEEF12120000000001006F
:10A6440000070000209E0200209E02000800000077
:10A65400289E0200389E020008000000209E02008E
:10A66400289E0200080000006E72665F7364680032
:10A6740073645F626C655F6366675F7365742829E2
:10A684002072657475726E65642025732077686521
:10A694006E20617474656D7074696E6720746F20C8
:10A6A40073657420424C455F434F4E4E5F434647AB
:10A6B4005F4741502E0073645F626C655F63666739
:10A6C4005F73657428292072657475726E656420E1
:10A6D4002573207768656E20617474656D70746984
:10A6E4006E6720746F2073657420424C455F474148
:10A6F400505F4346475F524F4C455F434F554E545E
:10A704002E0073645F626C655F6366675F73657474
:10A7140028292072657475726E656420257320770C
:10A7240068656E20617474656D7074696E672074F9
:10A734006F2073657420424C455F434F4D4D4F4E1F
:10A744005F4346475F56535F555549442E00736433
:10A754005F626C655F6366675F7365742829207246
:10A76400657475726E6564202573207768656E2044
:10A77400617474656D7074696E6720746F2073659D
:10A784007420424C455F47415454535F4346475FEE
:10A79400415454525F5441425F53495A452E007309
:10A7A400645F626C655F6366675F73657428292004
:10A7B40072657475726E6564202573207768656EA2
:10A7C40020617474656D7074696E6720746F207392
:10A7D400657420424C455F47415454535F43464798
:10A7E4005F534552564943455F4348414E474544AC
:10A7F4002E00496E73756666696369656E742052CE
:10A80400414D20616C6C6F636174656420666F7286
:10A814002074686520536F66744465766963652E99
:10A82400004368616E6765207468652052414D205D
:10A834007374617274206C6F636174696F6E2066E7
:10A84400726F6D203078257820746F2030782578E9
:10A854002E004D6178696D756D2052414D207369EC
:10A864007A6520666F72206170706C6963617469C7
:10A874006F6E20697320307825782E0073645F62D0
:10A884006C655F656E61626C6528292072657475FC
:10A89400726E65642025732E00000000F09D020096
:10A8A400209E0200080000006E72665F7364685F99
:10A8B400626C6500E89D0200F09D02000800000043
:0CA8C4006E72665F7364685F736F630000
:10A8D0000090D0032600030019860200F02A002011
:10A8E0001F0000000F2B00201F000000FF00FFFFD3
:0400000320006379FD
:00000001FF
