:020000022000DC
:10600000000004205D630200BD630200BF63020064
:10601000C1630200C3630200C56302000000000008
:10602000000000000000000000000000C763020044
:10603000C963020000000000CB630200CD630200D0
:1060400051D80200CF63020041F002004118030062
:10605000890B0300CF63020049E70200C1F402008C
:10606000CF630200CF63020099020300CF630200F6
:10607000CF630200CF630200CF630200CF63020050
:10608000CF63020079840200CF630200CF63020075
:10609000B9840200CF630200E5400300CF63020031
:1060A000CF630200CF630200CF630200B10203009E
:1060B000CF630200CF630200000000000000000078
:1060C000CF630200CF630200CF630200CF63020000
:1060D000CF630200CF630200CF630200CF630200F0
:1060E000CF630200CF630200A19003000000000014
:1060F00000000000CF63020000000000CF63020038
:10610000000000000000000000000000000000008F
:10611000000000000000000000000000000000007F
:10612000000000000000000000000000000000006F
:10613000000000000000000000000000000000005F
:10614000000000000000000000000000000000004F
:10615000000000000000000000000000000000003F
:10616000000000000000000000000000000000002F
:10617000000000000000000000000000000000001F
:10618000000000000000000000000000000000000F
:1061900000000000000000000000000000000000FF
:1061A00000000000000000000000000000000000EF
:1061B00000000000000000000000000000000000DF
:1061C00000000000000000000000000000000000CF
:1061D00000000000000000000000000000000000BF
:1061E00000000000000000000000000000000000AF
:1061F000000000000000000000000000000000009F
:10620000354936480A1A02D0072291438D4634494F
:1062100034480A1A06D00722914381F309880222E2
:1062200082F3148830483149314A00F044F831484B
:106230003149324A00F03FF831483249324A00F0E1
:106240003AF832483249334A00F035F83248334997
:10625000334A00F030F833483349344A00F02BF821
:1062600033483449344A00F026F83448344900228F
:1062700000F02CF833483449002200F027F8334866
:106280003349091A082902DB002202604160314AC1
:1062900090471F481F49884205D00268043003B464
:1062A000904703BCF7E700208646EC46002000211B
:1062B000294A9047FEE7884207D0521A05D0037852
:1062C00001300B700131013AF9D17047884202D098
:1062D00002700130FAE770470000042000E003205C
:1062E0000000042000000420F4B50300F422002084
:1062F00080230020D4630200D4630200E0900300F6
:10630000F4B50300F4220020F422002010920300D0
:1063100010920300109203001092030010920300E9
:10632000109203001092030010920300F3B50300D3
:1063300080B60300802300208023002080230020DB
:106340005C3300205C3300205C3300205C33002091
:106350005C530020856302002156030010488047EB
:1063600010484FF00701884385460F4880470F4883
:10637000016841F470010160BFF34F8FBFF36F8F6D
:10638000FFF73EBF0A480B490B4A884207D0521A12
:1063900005D0037801300B700131013AF9D1704713
:1063A000D163020000000420D5CA020088ED00E09D
:1063B000FC910300E0220020F4220020FEE7FEE72B
:1063C000FEE7FEE7FEE7FEE7FEE7FEE7FEE7FEE7A5
:0463D000704700BF53
:1063D40000B585B00190019B002B0AD0074B43F018
:1063E40001030393019B9B010293039B029898472B
:1063F40000E000BF05B05DF804FB00BF209203007D
:1064040000B583B00190019B002B0AD04FF47A7041
:10641400FFF7DEFF019B013B0193019B002BF5D1AC
:1064240000E000BF03B05DF804FB08B50BF066FBA9
:1064340000BF08BD00B589B0039002910192019B91
:10644400002B33D00023079303230693029A079B60
:106454001344019A194600200BF000FB0590079A9B
:10646400059B13440793019A059BD31A0193059B3B
:10647400002B13D10F4B1B7883F00103DBB2002BED
:1064840013D10120FFF7BCFF069B013B0693069B3B
:10649400002B03D1074B00221A7007E0054B0122A1
:1064A4001A70019B002BD1D100E000BF00BF09B0DE
:1064B4005DF804FB8023002000B585B003900291B1
:1064C400054B00934023054A0299039800F012F803
:1064D40000BF05B05DF804FB39640200842300208A
:1064E40082B0019000BF02B0704782B0019000BF3B
:1064F40002B0704700B5A1B00590049103920293D5
:10650400049803F04FF8039B1593029B1693002302
:10651400179300238DF8603000231993229B1A935C
:1065240000231F930FA91F9B0822049803F0F8F877
:1065340008231F93119B1293BDF84030ADF84C30E3
:10654400BDF84230ADF84E3000238DF851309DF83F
:106554003C3003F00303DBB2012B26D10F9BC3F3C2
:1065640095231C939DF83C30C3F3C203DBB28DF832
:106574005030BDF83C30C3F38313DBB21B931B9B39
:106584009A0009A91F9B049803F0CAF81B9B9B005F
:106594001F9A13441F9312AA09A915AB009313461B
:1065A4001B9A1C9800F0B6FE2FE09DF83C3003F0D7
:1065B4000303DBB2022B28D1BDF83E30C3F38913A9
:1065C4009BB21E939DF83C30C3F3C203DBB28DF83B
:1065D40050301E9B082B28BF08231D9307A91F9B1F
:1065E4001D9A049803F09CF81F9A1D9B13441F9353
:1065F4001E9A1D9BD31A1E9315AB12AA07A81D99A8
:1066040000F02AFF1E9B002BE3D1049802F0D9FF6F
:1066140000BF21B05DF804FB82B00190019BDB68F0
:1066240001225A7100BF02B07047000000B583B068
:106634004FF0FF330193FFF7F8FE0421054800F003
:1066440083FD01900348FFF7E7FF00BF03B05DF847
:1066540004FB00BFEC91030000B583B001900091EE
:10666400019B1B681B6800990198984700BF03B001
:106674005DF804FB00B583B00190019B1B685B6867
:106684000198984700BF03B05DF804FB00B583B0E0
:106694000190019B1B689B680198984700BF03B059
:1066A4005DF804FB82B001900B468DF80330019B2A
:1066B400DB689DF803201A7100BF02B0704782B0F6
:1066C4000190019BDB681B79184602B0704782B0C9
:1066D4000190019BDB6801225A7100BF02B0704730
:1066E40082B00190019BDB685B79184602B0704769
:1066F40000B585B001900091154BFF229A60144BB0
:1067040000221A60124B00225A60114B0022C3F877
:1067140018240F4B0022C3F814240D4B002283F8D5
:1067240020240C4802F0A2FE0390039B002B01D00E
:10673400039B08E0084803F082F8084A084BD31A80
:10674400DB0802930023184605B05DF804FB00BF84
:106754002C2500205091030038920300EC91030093
:106764006C910300024A034BD31ADB0818467047A6
:10677400EC9103006C91030000B587B001900B46C7
:106784008DF803309DF80330002B1FD0FFF7EAFF8C
:1067940004900023059313E0059B9B000E4A1344C9
:1067A4000393039B1B881A46019B1B689A4204D1DE
:1067B400019B059A1A60002309E0059B01330593A8
:1067C400059A049B9A42E7D3052300E00023184668
:1067D40007B05DF804FB00BFF422002000B585B0CB
:1067E40001900B468DF803309DF8032001AB114650
:1067F4001846FFF7C1FF0346002B07D1019BDB00BE
:10680400054A13440393039B1B6800E000231846C6
:1068140005B05DF804FB00BF6C91030084B00190E7
:106824000B468DF80330019BDB00174A1344029397
:106834009DF80330013B032B1CD801A252F823F02E
:10684400556802005D680200656802006F68020016
:1068540002238DF80F3011E004238DF80F300DE082
:10686400029B1B798DF80F3008E0029B5B798DF851
:106874000F3003E000238DF80F3000BF9DF80F3078
:10688400184604B0704700BF6C91030084B00190B7
:10689400009100238DF80F30019B1B7803F0040353
:1068A400DBB2002B24D0019B1B78C3F30103DBB2C2
:1068B400012B02D0022B0CD017E0009B1B68019A1D
:1068C4001288C2F38312D2B213449A1C009B1A603A
:1068D4000BE0009B1B68019A5288C2F3891292B2A2
:1068E40013449A1C009B1A6000BF01238DF80F30DB
:1068F4009DF80F30184604B07047000000B58BB007
:106904000023ADF826303B4802F072F93A4802F011
:106914006FF93A4B5B680493384B9B680693049A6F
:10692400069B134002339B00344A134404330893F8
:1069340004AB19460898FFF7A9FF0346002B09D0BA
:10694400049A069B134002339B002C4A13440433DD
:106954000893EDE700BF0023079311E0049B5A1C42
:106964000492069A1340079A920001A90A44234903
:1069740002339B000B445B681360079B013307934E
:10698400079B012BEAD99DF80430C3F30103DBB262
:10699400012B10D0022B1CD1BDF80A30ADF82630E3
:1069A400BDF80630C3F389139BB203339A08049BE2
:1069B400134404930EE0BDF80A30ADF82630BDF858
:1069C4000430C3F38313DBB21A46049B13440493C9
:1069D40000E000BF084802F017F90590059B002B62
:1069E40002D0049B054A5360BDF8263018460BB00C
:1069F4005DF804FB44290020402900202C250020B8
:106A040000B585B00021074802F027F80390039BE6
:106A14000293029B83F310030193019B184605B074
:106A24005DF804FB4829002000B589B00390029169
:106A340001920093039B1B0C0693FFF7E1FF079061
:106A4400079B1904009B5A1C0A9B1340069A0A438D
:106A54001B4902339B000B445A60009A0A9B134063
:106A640002339B00164A134404330593039B03F03B
:106A74000703D9B2059A137861F3C5031370019B18
:106A840003F00F03D9B2059A138861F389131380B5
:106A9400029BC3F31501059A136861F39F231360E6
:106AA400059A1378012161F301031370059A137891
:106AB4006FF38203137000BF09B05DF804FB00BFDD
:106AC4002C25002000B58DB00390029113468DF85B
:106AD4000730039B02330A9301238DF827300023E8
:106AE4008DF81B300DF11B03184601F01BFE404BC3
:106AF4001A68029B1A603E4B9A683D4B59683C4B9E
:106B04001B68CB1A134401330B9314E00121394859
:106B140002F032F8FFF7F2FE07900799354802F0C9
:106B24002BF8334B9A68324B5968314B1B68CB1A9C
:106B3400134401330B930A9A0B9B9A42E6D89DF8AF
:106B44002730002B48D0002305939DF80730002BF5
:106B540017D09DF81430012262F301038DF814302C
:106B64009DF8143043F004038DF81430039B03F0B4
:106B74000F03DAB2BDF8143062F38913ADF81430A0
:106B840016E09DF81430022262F301038DF81430EC
:106B94009DF8143043F004038DF81430039BC3F3C1
:106BA40009039AB2BDF8163062F38F13ADF81630AC
:106BB4000F4B1A680E4B9B68134002339B000C4A20
:106BC400134404330893059A089B1A60084B1A6807
:106BD4000A9B1344064A13609DF81B30184601F0C3
:106BE400ABFD9DF8273018460DB05DF804FB00BFDF
:106BF4002C2500204829002000B58BB00590049175
:106C0400039202931F4B9B68079306AB012219461C
:106C14000298FFF757FF0346002B24D0069B02334C
:106C240009930023089311E0089B9B00039A1A44DC
:106C3400099B591C099107990B40126811490233A9
:106C44009B000B445A60089B01330893089A029BEB
:106C54009A42E9D3069A079B00931346029A049931
:106C64000598FFF7E1FE074B93F82034002B05D07D
:106C740000BF00F061F80346002BFAD100BF0BB04F
:106C84005DF804FB2C25002000B583B00190009131
:106C94000023002200990198FFF7AEFF00BF03B064
:106CA4005DF804FB00B587B0039002910192019B4B
:106CB400059305AA012302990398FFF79DFF00BFDE
:106CC40007B05DF804FB00B587B003900291019210
:106CD4000093019B0493009B059304AA0223029949
:106CE4000398FFF789FF00BF07B05DF804FB00B508
:106CF40089B00390029101920093019B0593009B3C
:106D040006930A9B079305AA032302990398FFF7A6
:106D140073FF00BF09B05DF804FB0000054B5A681F
:106D2400044B1B689A420CBF01230023DBB21846B4
:106D3400704700BF2C25002000B599B0FFF7EEFF87
:106D44000346002B01D00023BEE19B4B0022C3F875
:106D54001824BFF34F8F00BF974B5B680493964B87
:106D64009B681093049A109B134002339B00924A31
:106D74001344043311930023179300231693002321
:106D84000F9304AB19461198FFF780FD0346002BBF
:106D940019D0894BD3F81834002B14D1864B1A68B8
:106DA400049B9A4205D8844B1B68834A5360002392
:106DB4008AE1049A109B134002339B007E4A1344D9
:106DC40004331193DDE70023159311E0049B5A1C4F
:106DD4000492109A1340159A920001A90A44764924
:106DE40002339B000B445B681360159B01331593BE
:106DF400159B012BEAD99DF8043003F00303DBB2A1
:106E0400022B40F09C80BDF80630C3F389139BB27B
:106E14000D93BDF80630C3F389139BB2502B28BFE2
:106E240050239BB20C930C9BC3F309039AB2BDF895
:106E3400063062F38F13ADF806300C9B08330B93C6
:106E44009DF80430C3F3C203DBB20F930B995B4884
:106E540002F017FB1790179B002B00F0D1801798B6
:106E640002F0A0FB01A9169B0822179802F044FC2B
:106E7400169B08331693049BDA43109B134001338B
:106E84009B000A930C9A0A9B9A4242D90A9B002BB4
:106E940008D0049A109B134002339B00464A1344C3
:106EA400043300E0464B08930A9B002B02D00A9B54
:106EB400DBB201E00C9BDBB28DF81F300A9B002B88
:106EC40001D03F4B00E0002306930A9B002B06D021
:106ED4000C9BDAB20A9BDBB2D31ADBB200E00023CC
:106EE4008DF817309DF81F20169B0899179802F00B
:106EF40003FC9DF81F30169A13441693069B002B2F
:106F040016D09DF81720169B0699179802F0F4FBEB
:106F14000EE0049A109B134002339B00264A13444C
:106F240004330993169B0C9A0999179802F0E4FB11
:106F34000D9B03339A08049B1344049360E09DF86B
:106F4400043003F00303DBB2012B59D1BDF8043044
:106F5400C3F38313DBB2062B28BF0623DAB2BDF8D2
:106F6400043062F38913ADF80430BDF80430C3F380
:106F74008313DBB202330E939DF80430C3F3C203D0
:106F8400DBB20F930E9B9B0019460C4802F079FA72
:106F94001790179B002B33D0179802F003FB01A91D
:106FA400169B0822179802F0A7FB169B083316932A
:106FB400002315931BE000BF2C25002050910300F3
:106FC40038250020049B5A1C0492109A1340023363
:106FD4009B003F4A1344191D169B0422179802F084
:106FE4008BFB169B04331693159B01331593BDF845
:106FF4000430C3F38313DBB21A46159B9342E1D3E7
:10700400179B002B40D0324BD3F810341493304BE1
:10701400D3F81834002B1BD0179802F0D2FA4DE0A5
:1070240000238DF84F301498FFF75AFB0346002BCA
:1070340002D001238DF84F309DF84F30002B03D040
:1070440017991498FFF708FB149BDB681B681493CB
:10705400149B002BE4D1179802F0B3FA00238DF8A7
:1070640003300DF10303184601F05CFB184BD3F811
:107074001834002B02D1049B154A53609DF8033049
:10708400184601F059FB19E0114BD3F81034129350
:1070940006E01298FFF7FAFA129BDB681B6812935A
:1070A400129B002BF5D10B4A0B4BD31ADB081B04A4
:1070B40043F0020309491846FFF7E6FDFFF72EFEE9
:1070C400034683F00103DBB2184619B05DF804FBF4
:1070D4002C250020AC9103006C910300489203001E
:1070E40000B585B00023039323E0164BD3F8103486
:1070F400029301238DF807300FE00298FFF7DFFABF
:1071040003461A46039B934203D100238DF80730AC
:1071140006E0029BDB681B680293029B002BECD108
:107124009DF80730002B01D0039B07E0039B01333C
:107134000393039B092BD8DD4FF0FF33184605B0AA
:107144005DF804FB2C25002000B585B001900B46AA
:107154008DF80330FFF7C4FF0390039BB3F1FF3FA7
:1071640001D1039B22E0039BDBB219460198FFF790
:1071740099FA104BD3F81034002B08D10D4A019B17
:10718400C2F81034019BDB6800221A600DE0094B41
:10719400D3F81034DA68019BDB6812681A60054B77
:1071A400D3F81034DB68019A1A60039B184605B0C3
:1071B4005DF804FB2C25002000B583B00D4BD3F8FB
:1071C400103401930B4B012283F8202409E0019829
:1071D400FFF77DFA0198FFF74DFA019BDB681B6806
:1071E4000193019B002BF2D100BF00BF03B05DF8F7
:1071F40004FB00BF2C25002082B00190009100BF49
:1072040002B0704710B584B003900291039BDB88F1
:10721400002B0AD0039BDB881A461F4B00931346AE
:107224001E4A1F49029801F0BDFD039B1B7A052BE2
:107234002ED0039B5B7A002B12D0039B9B881A46AB
:10724400039B1B7A19461046FFF7E8FA03461A46D1
:10725400144B53F822301A461349029801F0A2FD48
:10726400039B1B6819460298FFF7C6FF039B1B7A12
:107274001A460E4B53F82240039B9B880021184664
:10728400FFF7ACFA034622460949029801F08AFD49
:1072940000BF04B010BD00BF7C9203008C920300B9
:1072A400C492030010230020DC920300FC2200207F
:1072B400E092030000B585B00390029113468DF867
:1072C4000730039B1B7A052B0FD0039B5B7A002BA3
:1072D40006D00D4B1B681A460C49029801F062FD5A
:1072E4000B49029801F05EFD07E09DF80730002B82
:1072F40003D00749029801F055FD029801F03AFDC8
:1073040000BF05B05DF804FB10230020DC920300ED
:10731400EC92030030B58BB007900691059204936C
:107324000E9B1B7B8DF827300E9B00221A730E993F
:107334000498FFF767FF059B062B7FD801A252F83C
:1073440023F000BF657302006F7302007F730200B5
:1073540093730200B1730200D9730200097402002E
:1073640007990E9801F01EFD69E0069B1B681A46FA
:1073740007990E9801F016FD61E0069B1A68069BBA
:1073840004331B6807990E9801F00CFD57E0069B27
:107394001A68069B04331968069B08331B6800931C
:1073A4000B4607990E9801F0FDFC48E0069B19680E
:1073B400069B04331868069B08331B68069A0C3234
:1073C40012680192009303460A4607990E9801F049
:1073D400E9FC34E0069B1868069B04331C68069B92
:1073E40008331B68069A0C32126806991031096832
:1073F4000291019200932346024607990E9801F0E8
:10740400D1FC1CE0069B1C68069B04331D68069B8C
:1074140008331B68069A0C32126806991031096801
:1074240006981430006803900291019200932B4651
:10743400224607990E9801F0B5FC00E000BF002237
:107444000E990498FFF736FF0E9B9DF827201A73B8
:1074540000BF0BB030BD00BF00B587B003900291F0
:1074640001920093029B082B60D8009B1B7B8DF834
:107474001330009B00221A7300990198FFF7C2FE93
:107484000023059314E0059A029B9A4209D2039AB9
:10749400059B13441B781A462649009801F082FC88
:1074A40003E02549009801F07DFC059B0133059319
:1074B400059B072BE7D92149009801F073FC0023B1
:1074C400059326E0059A029B9A421BD2039A059BD8
:1074D40013441B788DF812309DF812307E2B0AD895
:1074E4009DF81230184611F073FC0346002B02D0AD
:1074F4009DF8123000E02E231A461149009801F03D
:1075040051FC03E00F49009801F04CFC059B01334A
:107514000593059B072BD5D9012200990198FFF704
:10752400C9FE009B9DF813201A7300E000BF07B04A
:107534005DF804FBF0920300F8920300FC92030050
:1075440000930300049303002DE9F04F97B00D90CE
:1075540000238DF85730B8E0624B1A689DF8573015
:10756400DB0013441493149B1B781C464FF0010258
:107574004FF00003A4F12001C4F1200003FA04FB3E
:1075840002FA01F14BEA010B22FA00F04BEA000B7C
:1075940002FA04FACDE912AB534BD3E90001DDE959
:1075A400122300EA020400940B400193DDE9001267
:1075B4000B46134300F08480DDE91223D14302918A
:1075C400DB430393484BD3E90023DDE9024521461D
:1075D4001140049129460B400593434BDDE9041205
:1075E400C3E90012149B1B78184607F09BF8034666
:1075F4008DF84730149B1B781C464FF001024FF066
:107604000003A4F12001C4F1200003FA04F902FAF2
:1076140001F149EA010922FA00F049EA000902FAF3
:1076240004F8324BD3E9002308EA0201069109EA7F
:10763400030307939DF84730002208930992149B93
:107644001B781946A1F12003C1F12002DDE90845A8
:10765400284600FA01F7204600FA03F31F432346A5
:1076640023FA02F21743234603FA01F6DDE9061270
:107674000B46BA4208BFB34222D19DF84720149B5F
:107684005B78012B0CBF01230023DBB29A420CBFB1
:1076940001230023DBB2DBB200220A930B92DDE963
:1076A4000A34CDE90E34149B5B68002B08D0149B7C
:1076B4005C68149B1A789DF8383019461046A04728
:1076C4009DF8573001338DF85730094B1A789DF8DF
:1076D40057309342FFF440AF00BF00BF17B0BDE87E
:1076E400F08F00BF50290020882900208029002025
:1076F400542900202DE9704F90B00B900B468DF863
:107704002B304FF001024FF000030B9EA6F1200135
:10771400C6F1200003FA06F502FA01F10D4322FA3C
:1077240000F0054302FA06F4CDE90E45384B18463D
:1077340000F05CFF0D900D9B002B65D1354BD3E918
:107744000001DDE90E2300EA020400940B400193DA
:10775400DDE900120B46134341D10B9806F0E2FF1A
:107764000346002B0FD02C4BD3E90001DDE90E2397
:1077740040EA020402940B430393274BDDE902120F
:10778400C3E9001213E0DDE90E236FEA020A6FEA8F
:10779400030B214BD3E900230AEA020104910BEA0B
:1077A400030305931C4BDDE90412C3E90012194BD2
:1077B400D3E90001DDE90E2340EA020406940B43F9
:1077C4000793144BDDE90612C3E900121048134B6A
:1077D4001B680022194600F0D7FE0D9015E0DDE984
:1077E4000E236FEA02086FEA03090A4BD3E9002368
:1077F40008EA0201089109EA03030993054BDDE94C
:107804000812C3E9001200E000BF10B0BDE8708F99
:107814005C29002088290020802900205829002084
:1078240000B58BB003900B4601928DF80B30019B91
:10783400042B01D807235AE006F074FD034683F0B5
:107844000103DBB2002B09D006F01AFD0990099B55
:107854000893089B002B01D0089B48E0264A039B11
:107864001360264A9DF80B301370254A019B136060
:1078740024494FF000024FF00003C1E900232249DC
:107884004FF000024FF00003C1E9002322E09DF80D
:107894000B30DB00039A1344079305AB00210A461F
:1078A4001A800A469A7003238DF81430079B9B783C
:1078B4008DF81530079B1B78184605AB134A1946FB
:1078C40006F024FE0990099B0693069B002B01D029
:1078D400069B0CE09DF80B305A1E8DF80B20002BF4
:1078E400D5D10B4A00210B4800F01EFE0346184672
:1078F4000BB05DF804FB00BF502900205429002080
:10790400582900208029002088290020F9760200C7
:107914004D7502000893030000B583B00023019362
:107924000CE00C4B1A68019BDB0013441B7801210B
:10793400184606F05BFE019B01330193064B1B784E
:107944001A46019B9342ECD30023184603B05DF81A
:1079540004FB00BF502900205429002000B583B047
:10796400002301930BE00D4B1A68019BDB001344C9
:107974001B78184606F0AEFE019B01330193084BB9
:107984001B781A46019B9342EDD3064B184600F030
:107994002DFE0346184603B05DF804FB5029002071
:1079A400542900205C29002000B587B001900023F1
:1079B400039300230493019B059303AB1A46002110
:1079C40044F2010000F01AF800BF07B05DF804FBB0
:1079D400BFF34F8F00BF074BDB6803F4E062054938
:1079E400054B1343CB60BFF34F8F00BF00BF00BFF5
:1079F400FCE700BF00ED00E00400FA0500B585B027
:107A040003900291019272B600BFFFF7D5FB00BF4D
:107A1400FFF792F90346002BFAD1114A114BD31AFE
:107A2400DB081B0443F001030F491846FFF72CF948
:107A34000E4B1B6803F00103002B00D000BE084A64
:107A4400084BD31ADB081B0443F002030849184609
:107A5400FFF71AF9FFF7BCFF00BF05B05DF804FBA0
:107A6400AC9103006C9103000C930300F0ED00E073
:107A74001893030082B003468DF807309DF8073051
:107A840003F01F0205499DF907305B09012000FA44
:107A940002F241F8232000BF02B0704700E100E089
:107AA40082B003468DF807309DF8073003F01F02BB
:107AB40006499DF907305B09012000FA02F22033E0
:107AC40041F8232000BF02B0704700BF00E100E08E
:107AD40082B003468DF807309DF8073003F01F028B
:107AE40006499DF907305B09012000FA02F2403390
:107AF40041F8232000BF02B0704700BF00E100E05E
:107B040082B003468DF807309DF8073003F01F025A
:107B140006499DF907305B09012000FA02F260333F
:107B240041F8232000BF02B0704700BF00E100E02D
:107B340082B0034600918DF807309DF90730002B81
:107B44000CDA009BDAB20C499DF8073003F00F03FE
:107B5400043B5201D2B20B441A7609E0009BDAB21C
:107B640006499DF907305201D2B20B4483F8002331
:107B740000BF02B0704700BF00ED00E000E100E08C
:107B840000B585B00190019B002B0AD0074B43F050
:107B940001030393019B9B010293039B0298984763
:107BA40000E000BF05B05DF804FB00BF30930300A4
:107BB40000B583B00190064A019BC2F8083506213E
:107BC4001120FFF7B5FF00BF03B05DF804FB00BF51
:107BD4000010014008B50D4B4FF48032C3F8442324
:107BE4000A4B4FF48032C3F804231120FFF788FFB7
:107BF4001120FFF73FFF054B01221A602F20FFF7EA
:107C0400BFFF034B01221A7000BF08BD00100140E2
:107C1400AE2A002008B51120FFF742FF0E4B4FF4A7
:107C24008032C3F848230C4B4FF48032C3F8082346
:107C3400094B01225A602F20FFF7A2FF064B0122B5
:107C44009A60064B00221A602F20FFF799FF044B1D
:107C540000221A7000BF08BD00100140A02A0020B5
:107C6400AE2A0020024BD3F804351846704700BFF3
:107C74000010014082B001900091019A009BD31A38
:107C840023F07F43184602B07047000082B0019091
:107C9400034A019BC2F8403500BF02B0704700BFE1
:107CA4000010014086B00190284B1B68002B03D1C3
:107CB400264A019B136045E0019B1A68234B1B680D
:107CC4001B689A4210D8214B1B681968019B1A68DB
:107CD4001E4B1B688A1A1A601C4B1A68019BDA61D6
:107CE4001A4A019B13602DE0019B1B680393174BF9
:107CF4001B680593154B1B68049309E0049B1B68E0
:107D0400039AD31A0393049B0593049BDB6904939E
:107D1400049B002B04D0049B1B68039A9A42EDD861
:107D2400049B002B05D0049B1A68039BD21A049B66
:107D34001A60019B039A1A60019B049ADA61059BFD
:107D4400019ADA6100BF06B0704700BF9C2A002088
:107D540000B587B001902A4B1B680393284B1B681E
:107D64000593059B049308E0049A019B9A4208D06A
:107D7400049B0593049BDB690493049B002BF3D1C0
:107D840000E000BF049B002B01D1002333E0059ADF
:107D9400049B9A4214D11A4B1B68DB69184A13607E
:107DA400174B1B68002B0BD1164B01229A60164B04
:107DB40000221A60154B01221A702F20FFF7E0FEF3
:107DC400049B1B680293049BDA69059BDA61059B9B
:107DD400DB690493049B002B05D0049B1A68029B67
:107DE4001A44049B1A60064B1B68039A9A4214BFF8
:107DF40001230023DBB2184607B05DF804FB00BF83
:107E04009C2A002000100140A02A0020AF2A002054
:107E140008B51120FFF75CFE00BF08BD08B51420AB
:107E2400FFF756FE00BF08BD00B583B00190019B6B
:107E34005B69019A92691046984700BF03B05DF8E8
:107E440004FB000000B585B02B4B1B68002B4ED003
:107E540000230193FFF706FF0246284B1B681946CF
:107E64001046FFF707FF0290234B1B6803931DE0A6
:107E7400039B1B68029A9A421CD3039B1B68029AB9
:107E8400D31A0293039B1B68019A13440193039B27
:107E94000093039BDB690393009B1B7C002B05D0A1
:107EA400009B00221A740098FFF7BEFF039B002B6F
:107EB400DED100E000BF124B1A78124B1B789A42B5
:107EC4000CD1104B1B780133DAB20E4B1A700D4BE8
:107ED4001B78022B02D10B4B00221A70094B1B7822
:107EE4001946094A019B42F82130FFF797FF00BF6A
:107EF40005B05DF804FB00BF9C2A0020A02A0020E6
:107F0400AC2A0020AD2A0020A42A002082B00190CF
:107F1400184B1A78184B1B789A4223D0154B1B78B0
:107F24000133DAB2134B1A70124B1B78022B02D1B5
:107F3400104B00221A700F4B1B781A460F4B53F844
:107F44002220019B1A60019B1A680D4B1B68134485
:107F54000B4A13600A4B1B6823F07F43084A1360E3
:107F6400012303E0019B00221A600023184602B09B
:107F7400704700BFAC2A0020AD2A0020A42A0020AC
:107F8400A02A002088B00390029101920023079355
:107F940038E0204B1B680693069B1B68039A9A42A1
:107FA40006D2069B1A68039BD21A069B1A602EE01F
:107FB400069B1B68039AD31A0393069B1B68079AB4
:107FC40013440793069B00221A60124B1B68059307
:107FD400069BDB690F4A1360069BDB68002B11D0FC
:107FE400029A079B134423F07F42069B5A60069B28
:107FF400DA68069B9A60019B1A68069BDA61019B0A
:10800400059A1A60034B1B68002BC2D100BF00BF46
:1080140008B070479C2A002000B589B00190002365
:108024008DF81F30664B1B680593AAE0019B002B5B
:1080340005D0019B0693069BDB69019361E0614BCC
:108044001B781A4613465B001344DB005D4A134455
:10805400043304935B4B1B780133DAB2594B1A7027
:10806400584B1A78574B9B789A4202D1554B0022B1
:108074001A70049B5B680693049B1B78032B1ED029
:10808400032B7EDC012B1FD0022B7AD1049B5B686F
:108094001846FFF75DFE0346002B02D001238DF83E
:1080A4001F30069B00221A746BE0454B1B68039338
:1080B400039B00221A74039BDB69414A1360404B03
:1080C4001B68002BF1D15CE000BF069B1B7C002BDE
:1080D40000D056E0049B9A68069B5A60049BDA68B9
:1080E400069B9A60049B1A69069BDA60049B5A6992
:1080F400069B9A61344B1B78002B02D0069B00220E
:108104005A60069B5A68314B1B68D31A23F07F438D
:108114002F4A93420ED8069B5B682C4A126811467C
:108124001846FFF7A7FD0246069B9B681A44069B68
:108134001A6017E0254B1A68069B5B6819461046BF
:10814400FFF798FD0290069B9B68029A9A4206D21A
:10815400069B9A68029BD21A069B1A6002E0069B51
:1081640000221A60069B00225A60069B00229A6035
:10817400069B01221A74069B0022DA610698FFF717
:1081840091FD019B002B7FF451AF0E4B1A780D4BE0
:108194005B789A427FF44AAF9DF81F30002B04D1DC
:1081A400074B1B68059A9A4201D0012300E0002383
:1081B40003F00103DBB2184609B05DF804FB00BF0D
:1081C4009C2A002090290020AF2A0020A02A002009
:1081D400FEFF7F0010B588B00190274B1B68002B71
:1081E40044D0254B1B681B680793FFF73BFD0690A3
:1081F400224B1B68059305990698FFF73BFD034640
:10820400033304931E4B1B7883F00103DBB2002B72
:1082140001D0FFF7DFFC049A079B934238BF134653
:10822400059A13440593059B23F07F430593059812
:10823400FFF72CFDFFF716FD039006990398FFF74F
:1082440019FD0346DC1C06990598FFF713FD034648
:108254009C420DD9FFF706FD03461846FFF716FDAD
:108264002F20FFF78DFCFFF7D3FD01E0FFF7D2FCD1
:1082740000BF08B010BD00BF9C2A0020A02A002027
:10828400AE2A002000B587B00023019300238DF8A7
:108294001730194B1B680493184B1B6803936B46E8
:1082A4001846FFF733FE03468DF80B309DF80B306C
:1082B400002B08D0009B01AA04991846FFF762FE20
:1082C40001238DF81730019B1846FFF7A5FE0346DE
:1082D400002B02D001238DF817309DF81730002BA6
:1082E40002D00398FFF776FF054B00221A7000BFF7
:1082F40007B05DF804FB00BFA02A00209C2A0020E0
:10830400AF2A002082B003468DF80730034A9DF857
:108314000730537000BF02B0704700BF902900209F
:1083240084B00190144B5B7801338DF80F30124BFD
:108334009B789DF80F209A4202D100238DF80F30CC
:108344000D4B1B789DF80F209A4201D100230FE0BA
:10835400019B9DF80F201A70074B5B781A46134651
:108364005B001344DB00044A134404330293029B6E
:10837400184604B0704700BF9029002000B589B0AA
:1083840003900291019200930023079300238DF838
:1083940016300DF11603184600F0C4F90DF1170359
:1083A4001846FFF7BDFF0690069B002B02D104235D
:1083B400079318E0069B01221A70069B039A5A60E1
:1083C400FFF750FC0246069B9A60069B029ADA600D
:1083D400069B019A1A61069B009A5A619DF8173010
:1083E4001846FFF78FFF9DF81630184600F0A4F9E1
:1083F400079B002B01D1FFF711FD079B184609B01D
:108404005DF804FB00B587B001900B468DF803308E
:108414000023059300238DF80E300DF10E0318464A
:1084240000F080F90DF10F031846FFF779FF04906F
:10843400049B002B02D1042305930BE0049B9DF8BD
:1084440003201A70049B019A5A609DF80F30184655
:10845400FFF758FF9DF80E30184600F06DF9059BA4
:10846400002B01D1FFF7DAFC059B184607B05DF835
:1084740004FB000008B50E4B0022C3F840210C4B4E
:108484000022C3F844210A4B0022C3F84821084BB8
:108494000022C3F84C21064B0022C3F80021044BF0
:1084A4000022C3F80421FFF7CDFC00BF08BD00BFC4
:1084B4000010014008B5FFF7E5FE00BF08BD00004D
:1084C40008B5FFF7A7FB134B00221A70114B0022CB
:1084D4005A70104B0B229A700F4B00221A600F4BEC
:1084E40000221A700E4B00221A701420FFF708FBAA
:1084F40006211420FFF71CFB1420FFF7BBFA002011
:10850400FFF756FBFFF7AEFB0346064A1360002352
:10851400184608BD902900209C2A0020AC2A00207F
:10852400AD2A0020A02A002086B003900B460192B9
:108534008DF80B30134B9B78002B01D108231EE0E0
:10854400019B002B01D1072319E0039B002B01D1D0
:10855400072314E0039B1B681B7C002B01D008231A
:108564000DE0039B1B680593059B00221A74059B71
:108574009DF80B205A74059B019A5A6100231846F2
:1085840006B070479029002000B587B0039002918F
:108594000192039B0593144B9B78002B01D1082374
:1085A4001EE0039B002B01D1082319E0029B042B3E
:1085B40001D8072314E0059B5B69002B01D1082334
:1085C4000EE0059B5B7C012B01D1029B00E00023A4
:1085D4000493019B049A02990598FFF7CFFE034682
:1085E400184607B05DF804FB9029002000B585B05B
:1085F4000190019B03930D4B9B78002B01D1082321
:1086040010E0019B002B03D0039B5B69002B01D17D
:10861400082307E0039B00221A7402210398FFF742
:10862400F1FE0346184605B05DF804FB90290020CE
:1086340008B5FFF717FB0346184608BD82B0EFF3F1
:1086440010830093009B019372B600BF019B1846F0
:1086540002B0704762B600BF00BF704700B585B076
:108664000190FFF7EBFF0390164B9B68002B1BD187
:10867400144B01229A60144BD3F88020134B1340FF
:10868400104A1360104B114AC3F880200E4BD3F8E4
:1086940084300C4A53600C4B4FF0FF32C3F88420F3
:1086A400019B00221A7002E0019B01221A70039BB5
:1086B400002B01D1FFF7CEFF0023184605B05DF86B
:1086C40004FB00BFB02A002000E100E0FC06FFBD6F
:1086D40000B585B003468DF80730104B9B68002B1E
:1086E40016D09DF80730002B12D1FFF7A7FF039097
:1086F4000B4A0A4B1B681360094A084B5B685360BA
:10870400064B00229A60039B002B01D1FFF7A2FFC6
:108714000023184605B05DF804FB00BFB02A002012
:1087240000E100E000B583B001900198FFF796FFE7
:1087340000BF03B05DF804FB00B583B003468DF8B9
:1087440007309DF807301846FFF7C2FF00BF03B09B
:108754005DF804FB86B001900091019B53E8011F72
:108764008AB2D88902449889824228BF121A188989
:10877400824202BFBFF32F8F002307E0C2EA010247
:1087840043E801200028E9D14FF001038DF80F30B0
:10879400059002910492029A009B1A609DF80F3092
:1087A400DBB2184606B0704784B00190019951E8D5
:1087B400013FC3EA034341E80132002AF7D103929F
:1087C400029300BF04B0704786B001900091019BF2
:1087D40053E8021F1FFAA1F2D888824202BFBFF3F6
:1087E4002F8F00230DE0D88902449889824228BF44
:1087F400121AC1EA024243E802200028E8D14FF0ED
:1088040001038DF80F30059002910492029A009BA7
:108814001A609DF80F30DBB2184606B0704784B07A
:108824000190019951E8023FC3EA234341E802322F
:10883400002AF7D10392029300BF04B0704786B0B8
:108844000190019B53E8021FDA88B1EB314F4FF0DE
:10885400000017BF89B242EA024241EA024204E040
:108864005968B1EB314F08BF012043E802210029C8
:10887400E8D18DF80F00059104929DF80F30DBB21A
:10888400184606B0704784B00390029111461A4608
:108894000B46ADF806301346ADF80430029B002BAE
:1088A40001D10E231FE0BDF80630BDF80420B3FB50
:1088B400F2F101FB02F29B1A9BB2002B01D00923B7
:1088C40011E0039B029A1A60039B00225A60039BE7
:1088D40000229A60039BBDF806209A81039BBDF891
:1088E4000420DA810023184604B0704700B585B02F
:1088F40001900198FFF7A3FF03468DF80F309DF810
:108904000F30002B01D0002300E01123184605B0DE
:108914005DF804FB00B585B001900091009B1946F9
:108924000198FFF717FF0346002B07D0019B1B6834
:10893400009A128813440393039B00E00023184613
:1089440005B05DF804FB00B583B001900091009B75
:108954001A88009B5B889A4204D10198FFF724FF90
:10896400012300E00023184603B05DF804FB00B5C2
:1089740085B001900091009B19460198FFF724FFF0
:108984000346002B07D0019B1B68009A52881344AE
:108994000393039B00E00023184605B05DF804FB35
:1089A40000B583B001900091009B1A88009B5B88FE
:1089B4009A4204D10198FFF732FF012300E000231B
:1089C400184603B05DF804FB00B585B00190009132
:1089D400009B5B099B00019A1A44009B03F01F0350
:1089E400012101FA03F31946104600F065F80390DB
:1089F40000BF05B05DF804FB00B585B0019000919F
:108A0400009B5B099B00019A1A44009B03F01F031F
:108A1400012101FA03F3DB431946104600F07CF808
:108A2400039000BF05B05DF804FB82B00190009193
:108A3400009B5B099B00019A13441A68009B03F096
:108A44001F0322FA03F303F00103002B14BF0123D5
:108A54000023DBB2184602B0704710B487B001900F
:108A64000091019B009A53E8004F104643E800012F
:108A740091F0000FF7D1059404900391059B1846DB
:108A840007B05DF8044B704710B487B001900091B3
:108A9400019B009A53E8004F44EA020043E80001B6
:108AA40091F0000FF6D1059404900391059B1846AC
:108AB40007B05DF8044B704710B487B00190009183
:108AC400019B009A53E8004F44EA020043E8000186
:108AD40091F0000FF6D1059404900391049B18467D
:108AE40007B05DF8044B704710B487B00190009153
:108AF400019B009A53E8004F04EA020043E8000196
:108B040091F0000FF6D1059404900391059B18464B
:108B140007B05DF8044B704710B487B00190009122
:108B2400019B009A53E8004F04EA020043E8000165
:108B340091F0000FF6D1059404900391049B18461C
:108B440007B05DF8044B704710B487B001900091F2
:108B5400019B009A53E8004F04EB020043E8000134
:108B640091F0000FF6D1059404900391059B1846EB
:108B740007B05DF8044B704710B487B001900091C2
:108B8400019B009A53E8004F04EB020043E8000104
:108B940091F0000FF6D1059404900391049B1846BC
:108BA40007B05DF8044B704710B487B00190009192
:108BB400019B009A53E8004FA4EB020043E8000134
:108BC40091F0000FF6D1059404900391049B18468C
:108BD40007B05DF8044B704700B583B001900121E4
:108BE4000198FFF751FF0346184603B05DF804FBF4
:108BF40000B583B0019001210198FFF75DFF0346A2
:108C0400184603B05DF804FB00B583B00190002161
:108C14000198FFF769FF0346184603B05DF804FBAB
:108C240082B001900B468DF80330019BDA689DF801
:108C340003300199098A01FB03F31344184602B077
:108C4400704782B001900091009B019AD2689B1AF0
:108C5400019A128AB3FBF2F3DBB2184602B07047F2
:108C640084B00190019B002B01D10E2320E0019BD5
:108C74009A68019B5B68D31A8DF80F30019B1B68BF
:108C8400019A52681A6007E0019B1A681368591C1C
:108C940011609DF80F201A709DF80F305A1E8DF840
:108CA4000F20002BF0D1019B1B6800221A710023B6
:108CB400184604B0704700B585B0019000230393B3
:108CC40000238DF80A300DF10A031846FFF72AFD38
:108CD400019B1B681A68019B5B689A421FD9019B20
:108CE4001B681A68013A1A601B681B7819460198B8
:108CF400FFF796FF0390019B9A68019B1B681B6812
:108D0400D31A8DF80B30019B1B681B799DF80B203F
:108D14009A4204D9019B1B689DF80B201A719DF897
:108D24000A301846FFF708FD039B184605B05DF8A6
:108D340004FB10B584B001900091009B03930023C1
:108D44008DF80B300DF10B031846FFF7EBFC019B7C
:108D54001B681C68621C1A6003990198FFF771FF75
:108D6400034623709DF80B301846FFF7E5FC00BF5F
:108D740004B010BD00B583B00190019B9B68002B2B
:108D84000CD0019B5B69019A1069019A1168019AE0
:108D940092689847019B00229A6000E000BF03B0EC
:108DA4005DF804FB0EB400B584B00190059B002B64
:108DB4000AD00023039306AB039303AB1A46059929
:108DC400019800F0B5F900E000BF04B05DF804EBD1
:108DD40003B0704700B583B001900B468DF80330A3
:108DE4009DF803300A2B03D10D210198FFF7F2FF00
:108DF400019B1A68019B9B68581C01998860134465
:108E04009DF803201A70019B9A68019B5B689A4243
:108E140002D30198FFF7AEFF00BF03B05DF804FB77
:108E240000B587B00390029101920093002305934B
:108E3400009B03F00103002B24D00BE0029B0133C1
:108E44000293059B013305939DF81330194603984B
:108E5400FFF7C0FF029B1B788DF813309DF8133089
:108E6400002BEBD106E0019B013B019320210398E9
:108E7400FFF7B0FF019A059B9A422ED9019B002B64
:108E8400F1D12AE0029B002B0BD0029810F001F8DC
:108E9400059006E0019B013B019320210398FFF715
:108EA40099FF019A059B9A420FD9019B002BF1D19E
:108EB4000BE0029B01330293059B013305939DF85C
:108EC400133019460398FFF785FF029B1B788DF832
:108ED40013309DF81330002BEBD100BF07B05DF8C1
:108EE40004FB000000B589B0039002910192009345
:108EF400029B07930123069307E0079A019BB2FBA9
:108F0400F3F30793069B01330693079A019B9A4256
:108F1400F3D2009A069B9A4201D9009B06930B9BBD
:108F240003F00103002B22D10A9B002B1FD00B9BC3
:108F340003F00203002B06D0009B002B03D1302347
:108F44008DF8173002E020238DF8173008E00A9BD3
:108F5400013B0A939DF8173019460398FFF73AFF2F
:108F64000A9B002B03D0069A0A9B9A42EFD3012353
:108F74000793009B012B03D9009B013B009309E05D
:108F8400029A079BB2FBF3F30493049A019B9A425F
:108F940000D205E0079B019A02FB03F30793E8E77D
:108FA400029A079BB2FBF3F30493049B079A02FB18
:108FB40003F3029AD31A0293154A049B13441B78B1
:108FC40019460398FFF706FF079A019BB2FBF3F3D8
:108FD4000793079B002BE3D10B9B03F00103002BAA
:108FE40011D00A9B002B0ED006E00A9B013B0A938A
:108FF40020210398FFF7EEFE0A9B002B03D0069A6C
:109004000A9B9A42F1D300BF09B05DF804FB00BF8C
:109014003893030000B589B005900491039202933C
:10902400049B002BB8BF5B4206930123079307E020
:10903400039B069A92FBF3F30693079B0133079372
:10904400039B069A9A42F3DA029A079B9A4201D941
:10905400029B07930A9B002B0AD0049B002B04DB82
:109064000B9B03F00403002B02D00A9B013B0A93E1
:109074000B9B03F00203002B02D0029B002B16D0A3
:109084000B9B03F00103002B11D10A9B002B0ED084
:1090940006E00A9B013B0A9320210598FFF79AFEFC
:1090A4000A9B002B03D0079A0A9B9A42F1D3049B94
:1090B400002B07DA049B5B4204932D210598FFF7EC
:1090C40089FE08E00B9B03F00403002B03D02B2143
:1090D4000598FFF77FFE0B9B03F00203002B19D0CA
:1090E4000B9B03F00103002B14D1029B002B11D125
:1090F4000A9B002B0ED006E00A9B013B0A93302109
:109104000598FFF767FE0A9B002B03D0079A0A9B7A
:109114009A42F1D304990B9B01930A9B0093029BFF
:10912400039A0598FFF7DEFE00BF09B05DF804FB63
:1091340000B58FB0059004910392049B002B00F0BE
:109144009181049B1B788DF83730049B0133049381
:109154009DF83730002B00F07C819DF83730252BAB
:1091640040F06B8100230A9301230C93049B1B782A
:109174008DF837309DF83730302B0DD0302B1BDC79
:109184002B2B11D02D2B17D10A9B43F001030A93EB
:10919400049B0133049312E00A9B43F002030A93F5
:1091A400049B013304930AE00A9B43F004030A93EB
:1091B400049B0133049302E000230C9300BF0C9B37
:1091C400002BD3D1002309939DF837302A2B0CD1DF
:1091D400039B1B68191D039A11601B68099A1344A9
:1091E4000993049B013304931AE0049B1B788DF8C4
:1091F40037309DF837302F2B12D99DF83730392B63
:109204000ED8049B01330493099A13469B0013441C
:109214005B001A469DF837301344303B0993D3E77B
:1092240000230B93049B1B788DF837309DF837305F
:109234002E2B1DD1049B01330493049B1B788DF8C2
:1092440037309DF837302F2B12D99DF83730392B12
:109254000ED8049B013304930B9A13469B001344CA
:109264005B001A469DF837301344303B0B93E4E718
:10927400049B1B788DF837309DF837306C2B03D066
:109284009DF83730682B07D1049B01330493049B6A
:109294001B788DF83730EFE79DF83730252B00F039
:1092A400C280252BC0F2C480782B00F3C180582BD8
:1092B400C0F2BE80583B202B00F2BA8001A252F8C3
:1092C40023F000BFB79302003594020035940200E6
:1092D400359402003594020035940200359402005E
:1092E400359402003594020035940200359402004E
:1092F4004D9302006F9302003594020035940200EE
:1093040035940200359402006F93020035940200F4
:10931400359402003594020035940200359402001D
:1093240035940200F793020035940200359402004C
:10933400DB930200359402009393020035940200FB
:1093440035940200B7930200039B1B68191D039A0E
:1093540011601B680C930C9B8DF81F309DF81F3017
:1093640019460598FFF736FD63E0039B1B68191D3A
:10937400039A11601B680C930A9B0193099B009349
:109384000B9B0A220C990598FFF744FE51E0039BBE
:109394001B68191D039A11601B680C930C990A9B96
:1093A4000193099B00930B9B0A220598FFF79AFDF2
:1093B4003FE0039B1B68191D039A11601B680C9303
:1093C4000C990A9B0193099B00930B9B102205980F
:1093D400FFF788FD2DE0039B1B68191D039A11609C
:1093E4001B6808930A9B099A08990598FFF718FDCA
:1093F4001FE0039B1B68191D039A11601B680C93E3
:1094040030210598FFF7E6FC78210598FFF7E2FC88
:109414000C99002301930823009308231022059834
:10942400FFF760FD05E025210598FFF7D3FC00E078
:1094340000BF049B0133049305E09DF837301946BF
:109444000598FFF7C7FC049B1B78002B7FF479AECB
:1094540000E000BF059B1B7B002B04D00598FFF7A1
:1094640089FC00E000BF0FB05DF804FB00B583B0D9
:1094740001900198FFF7F4FB0346184603B05DF82A
:1094840004FB00B58BB001900091019B1B8A043B47
:109494000793009A079B1344DA1C079BB2FBF3F370
:1094A4008DF81B300198FFF706FC0590059B002BF7
:1094B40001D1002338E0059B00221A71059B01228B
:1094C4005A71079B9AB2059BDA80059B09939DF814
:1094D4001B30013B0493099B019A1A6000230893F3
:1094E4001DE00198FFF7E7FB0390039B002B0ED0D0
:1094F400059B5B790133DAB2059B5A71099B039A88
:109504001A60039B019A1A60039B099304E005986F
:1095140000F00EF8002307E0089B01330893089A33
:10952400049B9A42DDD3059B18460BB05DF804FBFF
:1095340000B58BB00190019B0793079B5B798DF875
:109544001B30019B08939DF81B30013B05930023BE
:10955400099305E0089B1B680893099B0133099351
:10956400099A059B9A42F5D3089B1B680493019BB7
:109574000893002309930BE0089B1B680393089945
:109584000498FFF7D6FB039B0893099B01330993C7
:109594009DF81B30099A9A42EED300BF00BF0BB06E
:1095A4005DF804FB00B585B00190019B0393039B18
:1095B400043301211846FFF7DFFA00BF05B05DF858
:1095C40004FB00B587B00190019B0593059B043310
:1095D40001211846FFF7E8FA0346039303AB04930B
:1095E400049B1B78002B02D10198FFF7A1FF00BF59
:1095F40007B05DF804FB00B591B0039002910192AD
:109604000093039B0993039B0F93099BDB881A46E2
:10961400099B5B7902FB03F3043B0893099BDB88FA
:109624000793009B1A1D079BB2FBF3F30E93009B59
:109634000433079AB3FBF2F2079901FB02F29B1A77
:109644000D93019B1A68009B1344089A9A4203D213
:10965400089A009BD31A01E0019B1B680C93019BA1
:109664000C9A1A6005E00F9B1B680F930E9B013B3D
:109674000E930E9B002BF6D100230B93079A0D9BA0
:10968400D31A0A930A9A0C9B934228BF13460A934F
:109694002AE0029A0B9B134406930F9A0D9B1344E2
:1096A400043305939DF84830002B05D00A9A059998
:1096B40006980FF092FB04E00A9A069905980FF0B9
:1096C4008CFB00230D930F9B1B680F930C9A0A9B32
:1096D400D31A0C930B9A0A9B13440B93079A0C9B73
:1096E400934228BF13460A930C9B002BD1D100BF91
:1096F40000BF11B05DF804FB00B589B0059004917A
:1097040003920293039B079307AA00230093029BEF
:1097140004990598FFF76FFF00BF09B05DF804FBDB
:1097240000B589B00590049103920293039B0793BB
:1097340007AA01230093029B04990598FFF75BFF96
:1097440000BF09B05DF804FB82B003468DF8073012
:109754009DF8073003F01F0206499DF907305B09A5
:10976400012000FA02F2603341F8232000BF02B066
:10977400704700BF00E100E082B00190019B00222D
:109784001A60BFF35F8F00BF00BF02B0704741DFB4
:10979400704700BF184600B585B000238DF803302C
:1097A4000DF103031846FEF7BDFFF1EE103A0193E5
:1097B400019B0393039B23F09F030293029BE1EE1F
:1097C400103A00BFBFF35F8F00BF2620FFF7BCFF36
:1097D4009DF803301846FEF7AFFF00BF05B05DF8F3
:1097E40004FB000008B5064B00221A700548FFF779
:1097F400C3FF0549054800F03FF80023184608BD9B
:10980400C02A0020BC2A002054930300C42A00204C
:1098140000B583B0FFF7BFFF0AF034FC0346002B0A
:1098240003D0FFF7B4FF019005E020BF00BF40BFA5
:1098340000BF20BF00BF00BF03B05DF804FB82B0CF
:109844000190019B9B6800229A60019B9B68002207
:109854001A61019B9B6800225A61019B9B6800224C
:10986400DA60019B9B6800225A60019B9B6800227E
:109874001A6000BF02B0704782B001900091019B52
:10988400009A1A60019B1B681A68019B5A60019B2D
:109894005A68019B1B685B689A4202D1019B0022B3
:1098A4005A6000BF02B0704782B00190019B5B68B0
:1098B400002B14D0019B5B681A46019B1B689B68B4
:1098C40013441A46019B5A60019B5A68019B1B680A
:1098D4005B689A4204D1019B00225A6000E000BFF9
:1098E40002B0704700B585B00190019800F00EF801
:1098F4000390039B002B01D0039B00E0024B18460E
:1099040005B05DF804FB00BF6093030086B00190CE
:10991400164B0593164B04931FE0049A059BD31A28
:10992400DB10DA0F13445B10DB00059A1344039336
:10993400039B1B680293029A019B9A4202D9039BE0
:1099440004930AE0029A019B9A4203D2039B0833D0
:10995400059302E0039B5B6804E0059A049B9A422A
:10996400DBD30023184606B0704700BF609703009E
:109974008898030082B001900B46ADF80230BDF820
:109984000230019A1344184602B0704782B0019025
:10999400019BD3F81035DBB2184602B0704782B091
:1099A40001900B468DF803309DF80320019B02F5CE
:1099B400A87253F82230184602B0704782B0019062
:1099C400019B9BB250339BB29B009BB2184602B0E2
:1099D4007047F0B486B001900B468DF803309DF8C3
:1099E40003300593019B00221E4617464FF00002E8
:1099F4004FF000033B0143EA167332010599C1F1AC
:109A04002006A1F1200022FA01F403FA06F63443F9
:109A140023FA00F0044323FA01F5CDE90245029B41
:109A2400184606B0F0BC704710B582B001900091A2
:109A3400019B1C680098FFF7C1FF034619462046A6
:109A4400FFF798FF0346184602B010BD00B583B077
:109A540001900B468DF80330019B1B689DF8032091
:109A640011461846FFF79BFF0346184603B05DF8FE
:109A740004FB00B583B001900091019B1B6818465C
:109A8400FFF784FF034619460098FFF7A2FF034639
:109A9400184603B05DF804FB82B00190019B1B687B
:109AA4001F2B02D84FF0A04306E0019B1B6803F074
:109AB4001F02019B1A60024B184602B0704700BF98
:109AC4000003005000B585B0019001AB1846FFF7C4
:109AD400E3FF0390019B012202FA03F31946039862
:109AE40000F018F800BF05B05DF804FB00B585B0C0
:109AF400019001AB1846FFF7CFFF0390019B0122B1
:109B040002FA03F31946039800F00EF800BF05B0FB
:109B14005DF804FB82B001900091019B009AC3F8A8
:109B2400082500BF02B0704782B001900091019BEC
:109B3400009AC3F80C2500BF02B0704782B00190B0
:109B44000B468DF8033000BF02B0704700B585B0F6
:109B54000190019B5B681B791A461A4B9B5C8DF83C
:109B64000E3001238DF80F309DF80E30FF2B20D0DE
:109B74009DF80E30FE2B1FD0019B5B689DF80E20D4
:109B840011461846FFF762FF0246019B5B681B798A
:109B940019460D4B53F821309A420DD1019B5B6855
:109BA4001B791A46074BFF21995400238DF80F3077
:109BB40002E000238DF80F309DF80F30184605B0F1
:109BC4005DF804FBD02A0020D82A002000B583B019
:109BD4000190019B5B680221184606F0E8FA00BF79
:109BE40003B05DF804FB00B583B00190019B5B6892
:109BF4000221184606F0F6FA00BF03B05DF804FB34
:109C040000B587B003460091ADF80630009B04937D
:109C140001238DF8173000238DF816303AE09DF8B3
:109C240016302649049A52000A4413441B78DBB2C6
:109C3400002B2AD09DF816302049049A52000A4479
:109C44001A441278D2B2013AD0B21C49049A520092
:109C54000A44134402461A709DF816301749049AB0
:109C640052000A4413441B78DBB2002B0AD1144A75
:109C7400049B52F823301B680393039BDB6904980D
:109C8400984702E000238DF817309DF81630013311
:109C94008DF816309DF81630012BC0D99DF8173079
:109CA400002B06D0064A049B52F823301846FFF7CF
:109CB4009AFF00BF07B05DF804FB00BFEC2A002048
:109CC400F82A002000B585B00190019B1B6802931F
:109CD400029B93F82030184605F066F800238DF8AF
:109CE4000F306CE000238DF80E3031E09DF80F202A
:109CF4009DF80E10029813465B0013449B00034426
:109D04000B4408331B78FF2B1DD09DF80F209DF8C2
:109D14000E10029813465B0013449B0003440B444B
:109D240008331B78184605F03FF89DF80F209DF87E
:109D34000E10029813465B0013449B0003440B442B
:109D44000833FF221A709DF80E3001338DF80E305F
:109D54009DF80E30012BC9D99DF80F2002991346A6
:109D64005B0013449B000B441B68B3F1FF3F16D008
:109D74009DF80F20029913465B0013449B000B448B
:109D84001B68184604F023FB9DF80F200299134624
:109D94005B0013449B000B444FF0FF321A609DF8A4
:109DA4000F20029913465B0013449B000B440B33B2
:109DB40000221A709DF80F3001338DF80F309DF892
:109DC4000F30012B8ED9019B5B68184606F012F9FF
:109DD40000BF05B05DF804FB30B587B001900B46B9
:109DE4008DF803301346ADF80030019B1B680593D2
:109DF4009DF8032013465B0013449B00059A13440B
:109E040004939DF803308DF80F30059B93F82030B0
:109E1400184605F0C3F8BDF80030002B11D1049B9F
:109E24005B7A184605F0BAF8049B1B7A184605F0CD
:109E340067F8019B5B681B791A46484BFF219954CC
:109E440085E0BDF80020059B9B699A4215D3059BCC
:109E54009B69ADF80030049B1B7A184605F09EF808
:109E6400049B5B7A184605F04BF8019B5B681B79F1
:109E74001A463A4BFF21995469E0049B5A68059BA2
:109E84009B699A4249D0049B5B68002B45D0BDF87E
:109E94000020049B5B689A423FD2019B5868049B54
:109EA4005A680023032106F01AF9059B93F8204011
:109EB400019B5B6803211846FFF7B6FD0546049B2A
:109EC4009B7A002B06D0049B1B68184604F0E5FA25
:109ED400034605E0049B1B68184604F0C7FA0346D2
:109EE4001A462946204604F0A9FF059B93F8203022
:109EF400184605F005F8019B5B681B791946174A5B
:109F04009DF803305354019B5B681B791946BDF8D7
:109F14000030134A42F8213006E0019B5B681B794C
:109F24001A460E4BFF219954019B5868BDF8002036
:109F34009DF80F10002306F0D2F8049B1B7A1846F4
:109F440004F0DEFF049B5B7A184604F0D9FFBDF8E9
:109F54000020049B5A6000BF07B030BDD02A002007
:109F6400D82A002000B585B001900B468DF8033047
:109F74001346ADF80030019B1B6803939DF8032042
:109F840013465B0013449B00039A13440293039B00
:109F940093F82130022B01D008233EE0BDF80020C5
:109FA400029B5B689A420CD1039BDB69002B06D0B1
:109FB400039BDB69019A5268127910469847002383
:109FC4002BE00198FFF7C2FD0346002B01D01123BB
:109FD40023E0019B5B681B791A46124BFE219954BE
:109FE400BDF800209DF8033019460198FFF7F4FEF0
:109FF400019B1B68DB69002B0ED0019B5B681B79FE
:10A004001A469DF80330084952000A4413440222B8
:10A014001A700198FFF7DAFD0023184605B05DF8C1
:10A0240004FB00BFD02A0020EC2A002084B0019059
:10A03400019B1B680393039B9B699BB2184604B066
:10A044007047000000B585B001900B468DF80330D1
:10A054001346ADF800300198FFF7E8FF03461A46AF
:10A06400BDF8003002FB03F3084AA2FB03235B099B
:10A074000393039B9AB29DF8033019460198FFF7A6
:10A0840071FF0346184605B05DF804FB1F85EB51CC
:10A0940010B58CB0039001921A460B468DF80B3024
:10A0A40013468DF80A30039B1B680A939DF80B2016
:10A0B40013465B0013449B000A9A134409930A9BBA
:10A0C40093F82130002B01D00823B4E0099B00222F
:10A0D4005A60099B9DF80A209A7203238DF8143064
:10A0E400039B19689DF80B2013465B0013449B00E7
:10A0F4000B440A331B78002B0CBF01230023DBB273
:10A104008DF8153001238DF8163005AB19460198EA
:10A1140004F014F90890089B002B01D004238AE072
:10A124009DF80B200A9913465B0013449B000B44D3
:10A13400019A1A609DF80A30002B03D00198FFF7AA
:10A14400D5FC02E00198FFF7BDFC00238DF82F3009
:10A1540011E09DF82F300833099A1344184604F08F
:10A16400A3FD0346002B01D0042364E09DF82F30A7
:10A1740001338DF82F309DF82F30012BE9D9099B3D
:10A184001B7A184604F00AFF099B5B7A184604F010
:10A1940005FF9DF80A30002B06D0099B1B68184662
:10A1A40004F07BF9034605E0099B1B68184604F09C
:10A1B4005DF9034607939DF80A30002B06D0099BEE
:10A1C4001B68184604F052F9034605E0099B1B6816
:10A1D400184604F062F903460693099B1C7A039B14
:10A1E4005B689DF80B2011461846FFF71DFC0346DB
:10A1F400079A1946204604F021FE099B5C7A039BCA
:10A204005B6802211846FFF70FFC0346069A1946BD
:10A21400204604F013FE099B0122DA72039B5B685B
:10A224001B791A469DF80B30044952000A44134422
:10A2340000221A70002318460CB010BDEC2A00202E
:10A2440084B00190002303930923029305E0019B4A
:10A254005B080193039B01330393019BB3F5805F78
:10A2640003D3039A029B9A42F1D3074B1B78002B2A
:10A2740004D0039B002B01D101230393039BDBB286
:10A28400184604B0704700BFCC2A002000B58FB038
:10A29400059004910392049B002B01D10B2310E140
:10A2A400059B1B680C930C9B93F82130002B01D069
:10A2B400082306E103F06AF90B900B9B002B04D0F2
:10A2C4000B9B852B01D00423FBE004F02BF8034601
:10A2D40083F00103DBB2002B07D003F0D1FF0B9016
:10A2E4000B9B002B01D00323EBE0784B1B6803F09E
:10A2F400F003302B03D1764B00221A7002E0744B2A
:10A3040001221A700C9BFF2283F8202000238DF871
:10A31400373030E09DF837200C9913465B00134426
:10A324009B000B440B3300221A709DF837200C99C4
:10A3340013465B0013449B000B440833FF221A703E
:10A344009DF837200C9913465B0013449B000B4483
:10A354000933FF221A709DF837200C9913465B00CD
:10A3640013449B000B444FF0FF321A609DF83730C2
:10A3740001338DF837309DF83730012BCAD90C9B47
:10A384002033184604F090FC0346002B04D00598B3
:10A39400FFF798FC042394E000238DF836302CE07A
:10A3A4009DF83620049B53F82230B3F1FF3F1FD0B1
:10A3B4009DF83620049B53F822009DF83630049A09
:10A3C40013441B7A9DF8361002460598FFF760FE89
:10A3D4000B900B9B002B04D00598FFF773FC0B9B91
:10A3E4006FE09DF83630002219460598FFF7BAFD54
:10A3F4009DF8363001338DF836309DF83630012B18
:10A40400CED9049B1B691846FFF71AFF03468DF843
:10A414002B309DF82B308DF81C3000238DF81D3027
:10A4240000238DF81E3007238DF81F30059B5B68D1
:10A434001B790893059B5B6807A9264A184605F013
:10A4440067FD0B900B9B002B04D00598FFF73AFC9B
:10A454000B9B36E0059B5A68049B1B691946104602
:10A46400FFF707FB09900C9B099A9A61059B5B68AF
:10A47400184605F027FE059B586801230093042322
:10A48400099A022105F064FE059B5B6802211846C7
:10A4940005F0A8FE0C9B039ADA61059B5B681B79A7
:10A4A40019460D4A059B42F82130059B5B681B79D0
:10A4B4001A460A4BFF2199540C9B012283F8212050
:10A4C400002318460FB05DF804FB00BFE80F00F04E
:10A4D400CC2A0020059C0200F82A0020D02A002063
:10A4E40000B587B00190019B1B680493002305937A
:10A4F40034E0059A13465B0013449B00049A13440A
:10A504000393019B5B681B79264A5B001A44059BF5
:10A51400134400221A70039BDB7A002B1BD0039B8D
:10A524001868019B1968059A13465B0013449B0045
:10A534000B440A331B78002B0CBF01230023DBB22E
:10A54400194603F0C1FF039B1B68184603F06AFF1A
:10A55400039B00225A60059B01330593059B012B45
:10A56400C7D9019B5B681B791A460F4BFF2199548D
:10A57400019B5B681B6801211846FFF7DFFA019B0A
:10A584005B68184605F09EFD019B5B68184605F064
:10A5940061FD049B022283F8212000BF07B05DF80F
:10A5A40004FB00BFEC2A0020D02A002000B587B0AD
:10A5B4000190019B1B680493019B5B68184605F09E
:10A5C40065FD0198FFF70FFB049B93F820301846B4
:10A5D40004F0E4FC00238DF8173041E09DF81720C7
:10A5E40013465B0013449B00049A13440393039B98
:10A5F400DB7A002B2FD0019B19689DF81720134696
:10A604005B0013449B000B440A331B78002B0CBFE4
:10A6140001230023DBB28DF80B309DF80B30002BA7
:10A6240005D0039B1B681846FFF74CFA04E0039B14
:10A634001B681846FFF75AFA039B1B68184603F079
:10A6440003FF039B1B7A184604F0A8FC039B5B7A68
:10A65400184604F0A3FC9DF8173001338DF8173029
:10A664009DF81730012BB9D9019B5B681B68002149
:10A674001846FFF763FA049B012283F8212000BFE8
:10A6840007B05DF804FB00B585B00190019B1B6821
:10A694000393039B93F82130022B03D10198FFF716
:10A6A40085FF06E0039B93F82130002B01D108239A
:10A6B40007E00198FFF706FB039B002283F82120A3
:10A6C4000023184605B05DF804FB82B00190019B9D
:10A6D40003F00303002B0CBF01230023DBB2184655
:10A6E40002B0704700B585B00190002303930EE0DB
:10A6F4000B4A039B52F82330002B05D0084A039BD6
:10A7040052F8233001989847039B01330393039B2A
:10A71400032BEDD900BF00BF05B05DF804FB00BFFB
:10A724001C2B002082B001900091019B1B78013BFF
:10A73400052B61D801A252F823F000BF59A70200EB
:10A7440061A7020087A70200B9A70200D9A70200E7
:10A75400F5A70200009B00221A704EE0009B012224
:10A764001A70019B1A89009B9A81019B9A88009B0D
:10A77400DA81019BDA68009B9A60009B00221A74BC
:10A784003BE0009B02221A70019B1A89009B9A816C
:10A79400019B9A88009BDA81019BDA68009B9A608E
:10A7A400019B9B7D062B0CBF01230023DAB2009B87
:10A7B4001A7422E0009B03221A70019BDA88009B22
:10A7C4009A81019B1A89009BDA81019BDA68009BBC
:10A7D4009A6012E0009B04221A70019BDA88009BA5
:10A7E4009A81009B0022DA81009B00229A6004E097
:10A7F400009B05221A7000E000BF00BF02B0704742
:10A8040084B001900091019B0393039A009B9A42A8
:10A8140006D2039B1B68B3F1FF3F01D0012300E084
:10A82400002303F00103DBB2184604B0704782B082
:10A834000190019B5B8803339B00019A13441846E3
:10A8440002B0704700B583B0019000910198FFF702
:10A85400EEFF0246009B934201D202230CE0019BCF
:10A864009B884FF6FF72934203D0019B1B88002BF9
:10A8740001D1012300E00023184603B05DF804FB76
:10A8840000B583B00190019B002B13D00D4BDB6806
:10A894001A46019B93420DD30A4B1B691A46019B2E
:10A8A400934207D80198FFF710FF0346002B01D00D
:10A8B400012300E0002303F00103DBB2184603B0D8
:10A8C4005DF804FBE022002082B00190019B002B84
:10A8D40004D0019B1B680B4A934201D003230DE073
:10A8E400019B04331B68084A934204D0074A9342ED
:10A8F40003D1012302E0002300E00323184602B041
:10A90400704700BFDEC0ADDEFE011EF1FF011EF187
:10A9140084B00190002303930CE0039B9B00019AF5
:10A9240013441B68B3F1FF3F01D0002307E0039BEE
:10A9340001330393039BB3F5806FEED301231846D1
:10A9440004B0704782B003460A46ADF80630134699
:10A95400ADF80430BDF80620134913469B00134498
:10A964009B000B4408331A88BDF804301344ADF837
:10A974000430BDF806200C4913469B0013449B0089
:10A984000B440A331A88BDF804301344ADF804307C
:10A99400BDF8043040F2FF32934294BF01230023F8
:10A9A400DBB2184602B07047CC2B002084B0019073
:10A9B40000910A2303930023ADF80A3027E0BDF881
:10A9C4000A20174913469B0013449B000B4404338D
:10A9D4001B68009A9A4215D9BDF80A2010491346FB
:10A9E4009B0013449B000B4404331B6803F5805302
:10A9F400009A9A4206D200230393019BBDF80A20D1
:10AA04001A8008E0BDF80A300133ADF80A30BDF809
:10AA14000A30022BD3D9039B184604B0704700BFF9
:10AA2400CC2B002000B589B0039002910192039BC6
:10AA340003F580530693039B08330393029B02227E
:10AA44001A80039B079332E006990798FFF7FAFEF2
:10AA540003468DF817309DF81730002B0AD1079B59
:10AA64009A68184B1B689A4213D9079B9B68154A2E
:10AA740013600EE0019B002B02D0019B01221A708F
:10AA84009DF81730022B04D1029B4FF480621A8088
:10AA940014E0029B1A88079B5B8813449BB2033320
:10AAA4009AB2029B1A800798FFF7C1FE0790069995
:10AAB4000798FFF7A5FE0346002BC5D109B05DF842
:10AAC40004FB00BF2C2B002082B001900091009B5E
:10AAD4009B7D022B09D9019B1A89009BDB881344B7
:10AAE4009BB203339AB2019B1A81019B5A89009B42
:10AAF400DB88D31A9BB2033B9AB2019B5A8100BFF5
:10AB040002B0704700B583B0074B1B681946002399
:10AB140000930823054A064801F028FB034618461B
:10AB240003B05DF804FB00BF082C002088980300E4
:10AB3400E022002000B585B0039003990023009320
:10AB44000823044A044801F011FB0346184605B0E3
:10AB54005DF804FB90980300E022002000B585B066
:10AB640003460091ADF8063000238DF80F30BDF890
:10AB740006300333ADF80A30BDF80A3040F2FD3236
:10AB8400934201D909234AE00023ADF80C303BE09D
:10AB9400BDF80C20244913469B0013449B000B442E
:10ABA4001B78002B2BD1BDF80A20BDF80C301146C0
:10ABB4001846FFF7C7FE0346002B20D001238DF86B
:10ABC4000F30009BBDF80C201A80BDF80C201649EC
:10ABD40013469B0013449B000B440A331988BDF8A9
:10ABE4000C20BDF80A300B4498B20F4913469B0061
:10ABF40013449B000B440A3302461A8008E0BDF854
:10AC04000C300133ADF80C30BDF80C30022BBFD939
:10AC14009DF80F30002B01D0002300E007231846D5
:10AC240005B05DF804FB00BFCC2B002082B00346C6
:10AC34000A46ADF806301346ADF80430BDF80420DA
:10AC44000D4913469B0013449B000B440A331A8896
:10AC5400BDF80630D31A9BB2BDF80420033B98B26A
:10AC6400054913469B0013449B000B440A330246D8
:10AC74001A8000BF02B07047CC2B002008B5012118
:10AC84000248FDF779FF0346184608BD2C2B002027
:10AC940000B585B003460091ADF80630BDF8062036
:10ACA400244913469B0013449B000B4404331B6844
:10ACB40003F580530293009B1B680393039B002BB3
:10ACC40004D00398FFF7B3FD039026E0BDF80620F7
:10ACD400184913469B0013449B000B4404331B6820
:10ACE4000833039319E002990398FFF7ABFD034679
:10ACF400022B10D0022B10DC002B02D0012B05D02C
:10AD04000BE0009B039A1A6001230EE00398FFF7FF
:10AD14008EFD039001E0002307E002990398FFF7FA
:10AD24006FFD0346002BDED10023184605B05DF805
:10AD340004FB00BFCC2B002000B585B0019000912E
:10AD4400019B5B681846FFF79BFD0346002B19D057
:10AD5400019B1A89244B1B899A4213D1019B1A68BF
:10AD6400019B5B689B689A420CD1019B5B68194606
:10AD74000098FFF71BFE0346002B0CBF01230023A2
:10AD8400DBB22CE0009B00221A8023E00023029314
:10AD940010E0029B0393039B9A68019B1B689A42F1
:10ADA40008D1029A019B5A600F4B1A89019B1A81A0
:10ADB400012314E0009B1B8802AA11461846FFF7E2
:10ADC40067FF0346002BE4D1009B1B8801339AB232
:10ADD400009B1A80009B1B88022BD7D9002318469E
:10ADE40005B05DF804FB00BF102C002000B587B04F
:10ADF4000390029101920093304B1B78DBB283F0F5
:10AE04000103DBB2002B01D0022353E0019B002B92
:10AE140002D0009B002B48D105234BE0009B9B886C
:10AE24001946274A0B469B000B449B0013441B788E
:10AE3400002B33D124E0009B1B680593039B002B5C
:10AE440006D0059B9A88039B1B889A4200D017E082
:10AE5400029B002B06D0059B1A88029B1B889A42F2
:10AE640000D00DE0059B9A68019B1A60009B1A684C
:10AE7400019B5A60134B1A89019B1A81002319E024
:10AE8400009B9B88009A11461846FFF701FF034672
:10AE9400002BD0D1009B00221A6000E000BF009B71
:10AEA4009B8801339AB2009B9A80009B9B88022B5B
:10AEB400B4D90A23184607B05DF804FB0C2B002014
:10AEC400CC2B0020102C002000B585B00190084B3D
:10AED40001991846FDF71EFD03901C2200210398DA
:10AEE4000DF0A4FF039B184605B05DF804FB00BFFA
:10AEF400BC2B002000B583B00190044B0199184687
:10AF0400FDF721FD00BF03B05DF804FBBC2B00205E
:10AF140000B583B00190054B01991846FDF727FD54
:10AF24000346184603B05DF804FB00BFBC2B0020A9
:10AF340000B583B00190044B01991846FDF730FD2C
:10AF440000BF03B05DF804FBBC2B002008B5012151
:10AF54000548FDF729FE0346002B14BF01230023F7
:10AF6400DBB2184608BD00BF142B002000B587B023
:10AF7400002305930023ADF812300423ADF81030FC
:10AF840000238DF80F300023ADF80C30F3E0BDF84A
:10AF94000C301A03804BDB68134402930298FFF7CA
:10AFA40093FC03468DF807309DF80730032B08D037
:10AFB400032B00F3DA80002B65D0012B00F098807E
:10AFC400D3E00298FFF7A4FC0346002B3BD0734B5D
:10AFD4001B68002B29D0BDF81220714913469B0031
:10AFE40013449B000B4402221A70BDF812206C49D2
:10AFF40013469B0013449B000B440433029A1A60CB
:10B00400BDF81220664913469B0013449B000B4471
:10B01400083302221A80634ABDF812305380BDF807
:10B0240012300133ADF8123008E05C4A029B136021
:10B034005A4B02229A8001238DF80F30059B43F06E
:10B044000103059392E0BDF81030013BADF81030D8
:10B05400BDF81220524913469B0013449B000B4435
:10B064000433029A1A60BDF812204D4913469B001E
:10B0740013449B000B4403221A70BDF812300133B1
:10B08400ADF8123072E0BDF81220454913469B001A
:10B0940013449B000B4400221A70BDF8122040494F
:10B0A40013469B0013449B000B440433029A1A601A
:10B0B400BDF8122013469B0013449B000833384A02
:10B0C4009918BDF8122013469B0013449B001033BB
:10B0D400334A13441A460298FFF7A4FC059B43F035
:10B0E40002030593BDF812300133ADF812303DE090
:10B0F4009DF80F30002B25D0BDF8122028491346A7
:10B104009B0013449B000B4402221A70BDF81220CA
:10B11400224B1968224813469B0013449B000344A6
:10B1240004331960BDF812201D4913469B001344D3
:10B134009B000B44083302221A80BDF812300133FD
:10B14400ADF81230154A029B13600022164902988A
:10B15400FFF768FC114B9B88022B01D1042300E00C
:10B164000823059A1343059300E000BFBDF80C3093
:10B174000133ADF80C30BDF80C30032B7FF607AF6C
:10B18400BDF81030012B01D800230593059BDBB2D9
:10B19400184607B05DF804FBE0220020082C0020CC
:10B1A400CC2B0020102C00200C2C002000B587B0E4
:10B1B40003900291039B02229A750299039B1A1D24
:10B1C400002300930423074800F0D0FF0590059B5B
:10B1D400002B01D1002300E00E23184607B05DF8D0
:10B1E40004FB00BFE022002000B587B00390029169
:10B1F400039B1B69002B01D0032200E00122039B67
:10B204009A75029B08331946039B03F10C02002331
:10B2140000930423064800F0A9FF0590059B002B2A
:10B2240001D1002300E00E23184607B05DF804FBAB
:10B23400E022002000B587B003900291039B1B78A5
:10B24400032B01D1052200E00622039B9A75029B81
:10B2540004331946039B03F10802002300930423DB
:10B26400064800F083FF0590059B002B01D10023C5
:10B2740000E00E23184607B05DF804FBE02200202E
:10B2840000B587B003900B46ADF80A30039900234C
:10B29400009304230C4A0D4800F068FF0590059BB9
:10B2A400002B01D00E230BE0BDF80A2008491346F9
:10B2B4009B0013449B000B44103301221A7000239B
:10B2C400184607B05DF804FB98980300E0220020BC
:10B2D400CC2B002000B589B0019002AB00221A608B
:10B2E4005A609A60019BDB6802930DF1160202AB6F
:10B2F40011461846FFF720FD0346002B12D0039B8E
:10B304000693069B9A88019BDA80069B1A88019B08
:10B314001A81039BBDF8162011461846FFF7B0FFAB
:10B32400079001E00A230793079B184609B05DF8CC
:10B3340004FB000000B587B00190019B981D02AA90
:10B344000D4B0021FFF752FD0590059B002B08D102
:10B35400039B094A928811461846FFF791FF05900E
:10B3640004E00822002104480DF060FD059B184606
:10B3740007B05DF804FB00BF202C002000B587B0A7
:10B3840003900291039B01229A75029B0C33184689
:10B39400039B1A69039BDB889B00002100910146F3
:10B3A400064800F0E3FE0590059B002B01D1002325
:10B3B40000E00E23184607B05DF804FBE0220020ED
:10B3C40082B0184B1B8901339AB2164B1A81154B64
:10B3D40000225A80134B00225A730023ADF8063022
:10B3E40018E0BDF80620104913469B0013449B0047
:10B3F4000B441A78BDF80630002A0CBF0122002243
:10B40400D1B2084A13440A469A72BDF80630013391
:10B41400ADF80630BDF80630022BE2D900BF00BFFC
:10B4240002B07047102C0020CC2B002084B0019077
:10B4340000238DF80F300023ADF80C3031E0BDF857
:10B444000C301C4A13449B7A002B25D0BDF80C30D9
:10B45400184A134400229A72BDF80C201649134668
:10B464009B0013449B000B440C331B68002B13D12B
:10B47400BDF80C20104913469B0013449B000B4459
:10B4840010331B78002B07D0019BBDF80C201A80C9
:10B4940001238DF80F3008E0BDF80C300133ADF80E
:10B4A4000C30BDF80C30022BC9D99DF80F3018466A
:10B4B40004B07047102C0020CC2B002008B5084B9A
:10B4C40005221A70074B02229A80064B1B68194604
:10B4D40000230122044800F02BFF0346184608BD50
:10B4E400102C0020082C0020E022002000B583B09E
:10B4F400164B5B88ADF80230BDF8022014491346A0
:10B504009B0013449B000B440C331B68002B14D189
:10B514000E4B04221A70BDF802200D4913469B00FD
:10B5240013449B000B4404331B6819460023012277
:10B53400084800F0FDFE019002E0FFF7BFFF019014
:10B54400019B184603B05DF804FB00BF102C0020DB
:10B55400CC2B0020E022002000B587B0104B5B68A4
:10B564000593104B1A680F4B9B889B00134404935C
:10B57400059B5B880333ADF80E30094B03221A7028
:10B584000499074B5A68BDF80E309B0000200090C8
:10B59400054800F0EBFD0346184607B05DF804FBD0
:10B5A400102C0020082C0020E022002000B583B0DD
:10B5B4000A4B5B880A491846FFF76AFB0346002BCF
:10B5C40003D0FFF7C9FF019002E0FFF78FFF01905E
:10B5D400019B184603B05DF804FB00BF102C00204B
:10B5E400142C002008B50A4B06221A70084B5B88FD
:10B5F4001946084A0B469B000B449B001344043332
:10B604001B681846FFF796FA0346184608BD00BFA4
:10B61400102C0020CC2B002008B5054B07221A70F3
:10B62400034B00225A60FFF76DFA0346184608BD23
:10B63400102C002008B50D48FFF7F8FE034683F0F0
:10B644000103DBB2002B0BD0094B00221A70084B0C
:10B6540000225A80064B00225A6041F61D5302E034
:10B66400FFF7A4FF0346184608BD00BF122C0020B4
:10B67400102C002082B0094B5B680193019B5B880E
:10B684000333ADF80230064B9A88BDF802301344F8
:10B694009AB2034B9A8000BF02B07047102C00206E
:10B6A400082C002082B0184B1B680193174B5B8851
:10B6B4001946174A0B469B000B449B001344043362
:10B6C4001B68114A1360114B5B881946104A0B46DC
:10B6D4009B000B449B0013440433019A1A600B4BE8
:10B6E4005B881946084B9888094A0B469B000B4413
:10B6F4009B001344083302461A80034B02229A80AB
:10B7040000BF02B0704700BF082C0020102C00209E
:10B71400CC2B002008B51A4B1B78072B2CD801A280
:10B7240052F823F049B702007DB702007DB702004A
:10B7340055B7020061B702006DB702006DB7020091
:10B7440075B70200FFF73CFE0D4B01221A7014E09E
:10B75400FFF790FF0A4B02221A700EE0FFF7A2FFD8
:10B76400074B06221A7008E0054B07221A7004E002
:10B77400034B01221A7000E000BF00BF08BD00BFE8
:10B78400102C002000B587B0019000910F23059381
:10B79400019B002B04D0624B00225A600123BBE0C2
:10B7A400009B1B79032B00F2AB8001A252F823F01B
:10B7B400C5B70200D3B7020061B8020081B8020025
:10B7C400009B01221A71FFF79DF905909BE000236D
:10B7D4008DF813300023ADF810302BE0BDF81020A5
:10B7E400504913469B0013449B000B441B78022BC7
:10B7F4001BD1BDF810204B4913469B0013449B00FA
:10B804000B4400221A7001238DF81330BDF8102068
:10B81400444913469B0013449B000B4404331B68A8
:10B824001846FFF787F9059008E0BDF8103001339A
:10B83400ADF81030BDF81030022BCFD99DF813307D
:10B8440083F00103DBB2002B5CD0354B01221A706C
:10B85400334B00225A6041F61D535DE0009B0022E9
:10B864001A71314B02229A802F4B1B681946002310
:10B8740001222E4800F05CFD059044E0009B00226C
:10B884001A71294B1B681846FFF754F90590284B89
:10B894005B88ADF80E30244B1B680293BDF80E2074
:10B8A400204913469B0013449B000B4404331B683C
:10B8B4001D4A1360BDF80E201A4913469B00134419
:10B8C4009B000B440433029A1A60BDF80E20164BF9
:10B8D4009888144913469B0013449B000B44083377
:10B8E40002461A80104B02229A80BDF80E200D49A0
:10B8F40013469B0013449B000B4400221A7002E081
:10B9040000BF00E000BF059B002B04D0044B0022C5
:10B914005A600E2300E00023184607B05DF804FBCC
:10B924000C2B0020CC2B0020082C0020E02200202F
:10B93400102C002000B587B001900091009B9B8AD9
:10B944001A4613469B0013449B003A4A134404933B
:10B95400019B002B05D000990498FFF7B5F801234B
:10B9640063E0049B5A68049B1B899B001344039364
:10B97400009B9B7D062B4DD801A252F823F000BFFB
:10B98400C7B90200EBB90200D3B90200DFB9020063
:10B99400A1B90200F7B9020011BA0200264B002235
:10B9A4005A60009B9B69244A136024492248FFF78C
:10B9B400C3F9034683F00103DBB2002B01D00A2351
:10B9C40033E003990098FFF7F1FB059025E0039914
:10B9D4000098FFF709FC05901FE003990098FFF712
:10B9E400CDFC059019E003990098FFF723FC05901E
:10B9F40013E0009B06229A750F4B5B680F4A12886E
:10BA040011461846FFF73CFC059006E041F61D532D
:10BA1400059302E00F23059300BF059B002B03D081
:10BA240000990498FFF750F8059B184607B05DF895
:10BA340004FB00BFCC2B0020282C0020342C002039
:10BA440000B585B001900091019B002B01D001232A
:10BA540026E0009B1B79022B19D0022B1BDC002B48
:10BA640002D0012B08D016E0009B02221A71009824
:10BA7400FFF730FC039012E00098FFF75BFC0390A3
:10BA8400039B0A2B0AD141F61D53039306E041F6AA
:10BA94001D53039303E00F23039300E000BF039BB4
:10BAA400184605B05DF804FB00B585B00190019B14
:10BAB400002B01D001233BE01F4B5B7B002B03D009
:10BAC4001D4B00225A7301E0FFF724FE1A4B1B782A
