:020000022000DC
:106000000000042079630200616302006363020000
:10601000656302006763020069630200000000001C
:106020000000000000000000000000006B630200A0
:106030006D630200000000006F63020071630200E4
:106040001D860200736302004D8C02007363020020
:106050007363020073630200F58902005D8C020025
:10606000659602007D960200959602007363020019
:1060700073630200736302007363020073630200C0
:1060800073630200E9740200736302007363020029
:106090001175020073630200A9B702007363020066
:1060A0007363020073630200736302007363020090
:1060B0007363020073630200000000000000000030
:1060C0007363020073630200736302007363020070
:1060D0007363020073630200736302007363020060
:1060E0007363020073630200736302000000000028
:1060F00000000000736302000000000073630200F0
:10610000000000000000000000000000000000008F
:10611000000000000000000000000000000000007F
:10612000000000000000000000000000000000006F
:10613000000000000000000000000000000000005F
:10614000000000000000000000000000000000004F
:10615000000000000000000000000000000000003F
:10616000000000000000000000000000000000002F
:10617000000000000000000000000000000000001F
:10618000000000000000000000000000000000000F
:1061900000000000000000000000000000000000FF
:1061A00000000000000000000000000000000000EF
:1061B00000000000000000000000000000000000DF
:1061C00000000000000000000000000000000000CF
:1061D00000000000000000000000000000000000BF
:1061E00000000000000000000000000000000000AF
:1061F000000000000000000000000000000000009F
:10620000364937480A1A02D0072291438D4635494C
:1062100035480A1A06D00722914381F309880222E1
:1062200082F3148831483249324A00F045F8324846
:106230003249334A00F040F832483349334A00F0DB
:106240003BF833483349344A00F036F83348344990
:10625000344A00F031F834483449354A00F02CF81B
:1062600034483549354A00F027F835483549002289
:1062700000F02DF834483549002200F028F8344861
:106280003449091A082903DB002202600430016046
:10629000314A90471F482049884205D0026804309F
:1062A00003B4904703BCF7E700208646EC46002085
:1062B00000212A4A9047FEE7884207D0521A05D0AB
:1062C000037801300B700131013AF9D170478842EF
:1062D00002D002700130FAE770470000000004208D
:1062E00000E0032000000420000004200CD3020082
:1062F000E02200200C230020D8630200D8630200B3
:10630000DCC602000CD30200E0220020E0220020C4
:10631000B0C70200B0C70200B0C70200B0C7020099
:10632000B0C70200B0C70200B0C70200B0C7020089
:106330000CD3020038D302000C2300200C230020D1
:106340000C230020002D0020002D0020042D002013
:10635000042D0020044D0020A1630200999C02003E
:10636000FEE7FEE7FEE7FEE7FEE7FEE7FEE7FEE705
:10637000FEE7FEE7704700BF1048804710484FF027
:106380000701884385460F4880470F48016841F45C
:1063900070010160BFF34F8FBFF36F8FFFF730BF06
:1063A0000A480B490B4A884207D0521A05D0037895
:1063B00001300B700131013AF9D170477563020069
:1063C00000000420697B020088ED00E0B0C70200F5
:0863D000E0220020E022002081
:1063D80000487047F82C00207047037813F0040F2A
:1063E80018D003F00303012B03D0022B0AD001209D
:1063F80070470388C3F383130A68134402330B609E
:106408000120704742880B6803EB921302330B603C
:10641800012070470020704730B585B02A4C04F53C
:10642800836001F094F904F2144001F090F9606877
:106438000390A5682840023004EB8000043003A9CB
:10644800FFF7CBFF88B303982840831C1E4800EB56
:1064580083000430F3E7039B591C03912B4002335C
:10646800194901EB83035B684DF822300132012A98
:10647800F1D99DF8003003F00303012B17D0022B4C
:106488001FD1BDF80640BDF802309B090333039ABB
:1064980002EB930303930D4801F05EF910B10A4B28
:1064A800039A5A60204605B030BD0022DFE7BDF8E8
:1064B8000640BDF80030C3F38312039B13440393D3
:1064C800E9E70024E7E700BFDC230020F0270020ED
:1064D80010B50B4BFF229A6000221A605A60C3F86D
:1064E8001824C3F8142483F82024064801F0E3F99B
:1064F800044608B1204610BD034801F087FAF9E7C1
:10650800DC23002034C70200B0C70200034B5868E0
:106518001B68984214BF002001207047DC2300202C
:106528002DE9F04186B0FFF7F1FF002840F0208107
:10653800054692480023C0F81834BFF34F8F4368CC
:10654800059384682340023300EB8300043005A9D7
:10655800FFF743FF68B3894BD3F818345BBB874B0D
:106568001B680598834206D92040831C834800EBAA
:1065780083000430EBE7814A5360FAE0059B591C1D
:106588000591234002337D4901EB8303596802AB2F
:1065980043F822100132012AF0D99DF8083003F09F
:1065A8000303022B09D0012B72D0744BD3F810448B
:1065B800CCE00022EFE70022EDE7BDF80A309F09A2
:1065C8003E46502F28BF502666F38F13ADF80A3089
:1065D80006F108016A4801F089F9054600283DD00E
:1065E80001F0B7F9002308220DEB0201284601F05B
:1065F800C3F9059A24EA020301339B009E423AD963
:1066080033B1224002325D4901EB8202111D00E0E4
:106618005C494BB1DCB24BB1DFF868814BB1F6B2E3
:10662800DBB2F31ADEB205E0F4B2F4E74FF000088B
:10663800F4E7002608232246284601F09DF904F1D4
:106648000803B8F1000F04D032464146284601F04D
:1066580093F90337059B03EB97070597002DA4D003
:10666800464BD3F81044D3F81834002B48D02846AA
:1066780001F075F976E002EA040302333F4901EBC1
:106688008301082332460431284601F075F9E0E712
:10669800BDF80820C2F38313062B28BF062363F333
:1066A8008912ADF8082002339900354801F01EF927
:1066B80005460028D2D001F04CF9002308220DEB42
:1066C8000201284601F058F9002608270FE0059B2B
:1066D8005A1C059223400233284901EB83013B46AB
:1066E80004221144284601F047F904370136BDF861
:1066F8000830C3F38313B342E9D8AFE7E3681C68F3
:106708004CB1E3685B79002BF8D023681B682946F5
:1067180020469847F2E7284601F021F906A8002309
:1067280000F8113D00F06EFF144BD3F8183413B97C
:10673800124B059A5A609DF8070000F08FFF11E090
:1067480023689B6820469847E3681C68002CF7D1AB
:106758000D4B0E48C01AC00800040D4940F0020055
:1067680000F018F8FFF7D2FE80F00100C5B200E093
:106778000025284606B0BDE8F08100BFDC230020D4
:1067880034C70200E823002048C7020078C7020087
:10679800BCC702002DE9F04F83B006468B46DFF8F0
:1067A800E880D8F8084002A8002300F8013D00F06E
:1067B80029FFD8F80050D8F80830D8F80420521B20
:1067C8001344013312E0304F07F21C4901214846B7
:1067D80000F0A7FFFFF720FE0146484600F0A1FFA2
:1067E800BB687A683968521A13440133012BEAD915
:1067F80000224FF0010969F3010242F004026FF32D
:106808008912DFF88480D8F80010D8F808300B40D7
:10681800023308EB83035A600231C8F800109DF870
:10682800070000F01BFF4FEA164A002108F21C403F
:1068380000F04CFF80F3100005EB090323404AEAFF
:106848000040023308EB830358602C40023408EB05
:106858008404237966F3C5032371A3886FF389132E
:10686800A38063686BF39F23636069F301036FF38D
:106878008203237198F820341BB1FFF751FE0028DA
:10688800FBD103B0BDE8F08FDC2300202DE9F047F1
:1068980082B006468A460192DFF80881D8F8084097
:1068A80002A8002300F8053D00F0ACFED8F800501F
:1068B800D8F80830D8F80420521B1344013312E0EA
:1068C800384F07F21C490121484600F02AFFFFF71C
:1068D800A3FD0146484600F024FFBB687A68396882
:1068E800521A13440133022BEAD90022012363F31D
:1068F800010242F0040263F389122A4908688B688E
:106908000340023301EB83035A60033008609DF8AB
:10691800030000F0A3FEA81C00230DE004EA000217
:1069280002A901EB830151F8047C911C1D4A02EB7A
:106938008102576001330130002BEFD04FEA16492E
:10694800DFF86080002108F21C4000F0BFFE80F3F1
:1069580010006B1C234049EA0040023308EB830314
:1069680058602C40023408EB8404237966F3C5038D
:106978002371A388012262F38913A38063686AF3F1
:106988009F23636062F301036FF38203237198F816
:1069980020341BB1FFF7C4FD0028FBD102B0BDE8CD
:1069A800F08700BFDC2300202DE9F04784B00646BD
:1069B8008A4602920393DFF80C81D8F8084004A8AD
:1069C800002300F8093D00F01DFED8F80050D8F863
:1069D8000830D8F80420521B1344013312E0394F11
:1069E80007F21C490121484600F09BFEFFF714FD01
:1069F8000146484600F095FEBB687A683968521A25
:106A080013440133032BEAD90022012363F3010263
:106A180042F00402022363F389122A4908688B684A
:106A28000340023301EB83035A60043008609DF889
:106A3800070000F013FEA81C00230DE004EA000282
:106A480004A901EB830151F8087C911C1D4A02EB53
:106A58008102576001330130012BEFD94FEA164903
:106A6800DFF86080002108F21C4000F02FFE80F360
:106A780010006B1C234049EA0040023308EB8303F3
:106A880058602C40023408EB8404237966F3C5036C
:106A98002371A388022262F38913A38063686AF3CF
:106AA8009F236360012262F301036FF38203237162
:106AB80098F820341BB1FFF733FD0028FBD104B050
:106AC800BDE8F087DC2300202DE9F04784B00646B6
:106AD8008A46019202930C9B0393DFF80C81D8F845
:106AE800084004A8002300F80D3D00F08BFDD8F8FD
:106AF8000050D8F80830D8F80420521B134401334A
:106B080012E0394F07F21C490121484600F009FEFE
:106B1800FFF782FC0146484600F003FEBB687A682E
:106B28003968521A13440133042BEAD9002201238D
:106B380063F3010242F00402032363F389122A4932
:106B480008688B680340023301EB83035A60053001
:106B580008609DF8030000F081FDA81C00230DE0EB
:106B680004EA000204A901EB830151F80C7C911C92
:106B78001D4A02EB8102576001330130022BEFD925
:106B88004FEA1649DFF86080002108F21C4000F047
:106B98009DFD80F310006B1C234049EA004002333E
:106BA80008EB830358602C40023408EB84042379F3
:106BB80066F3C5032371A388032262F38913A380B4
:106BC80063686AF39F236360012262F301036FF332
:106BD8008203237198F820341BB1FFF7A1FC002829
:106BE800FBD104B0BDE8F087DC23002010B5094BC9
:106BF800D3F81044012283F8202408E0E368012236
:106C08005A7123685B6820469847E3681C68002C23
:106C1800F4D110BDDC2300202DE9F04F85B000240D
:106C2800CDE9008901E00134E4B2364B1B78A34278
:106C380064D9354B1D6805EBC403039315F834C0BC
:106C48000123ACF12001CCF1200203FA01F723FA69
:106C580002F2174303FA0CF62C4BD3E900018046E5
:106C680089463040394050EA0103DCD028EA060260
:106C780029EA07032549C1E90023604601F0A4FE7B
:106C880015F834C00123ACF12001CCF1200203FA3D
:106C980001FB23FA02F24BEA020B03FA0CFA1C4B33
:106CA800D3E9002302EA0A0803EA0B09C2B28E46B6
:106CB800CCF12001002502FA0EFE45EA0E0522FA63
:106CC80001F10D43019502FA0CF3009342464B463D
:106CD800DDE900894B4508BF4245A4D1039B59789B
:106CE800012914BF00210121814214BF0021012183
:106CF8005B68002B97D06046984794E705B0BDE8DD
:106D0800F08F00BF98280020D0280020C828002035
:106D1800C02800202DE9F04106460123A0F12001FA
:106D2800C0F1200203FA01F823FA02F248EA020845
:106D380003FA00F71E4800F04FFC78B91D4BD3E961
:106D4800002302EA070003EA0801014308D022EA07
:106D5800070423EA0805174BC3E90045BDE8F0819D
:106D6800304601F031FEC0B11349D1E9002342EAAF
:106D7800070443EA0805C1E900450E49D1E90023A3
:106D880047EA020448EA0305C1E9004500220B4B23
:106D98001968074800F002FCE0E70749D1E9002339
:106DA80022EA070423EA0805C1E90045E5E700BF30
:106DB800A0280020C8280020C02800209C280020E7
:106DC800042A3CD970B582B006460D46144601F037
:106DD800CDFC28B31B4B1E601B4B1D701B4B1C604E
:106DE800002200231A49C1E900231A49C1E90023F6
:106DF8006C1EE4B2D5B106EBC40300228DF8062060
:106E080003228DF804209B788DF80530124A01A9D9
:106E180016F8340001F0B4FC034668B92546E7E7E4
:106E280001F064FC03460028D4D005E00B4A002199
:106E38000B4800F09DFB0346184602B070BD0723BF
:106E480018467047D0280020982800209C28002049
:106E5800C0280020C82800201D6D0200216C0200F7
:106E6800D4C7020010B5002407E0074B1B680121B6
:106E780013F8340001F000FD0134044B1B789C42E8
:106E8800F3D3002010BD00BFD02800209828002090
:106E980010B5002406E0074B1B6813F8340001F016
:106EA8005FFD0134044B1B789C42F4D3034800F087
:106EB80093FB10BDD028002098280020A02800208F
:106EC80000B585B0002101910291039001AA44F216
:106ED800010000F003F805B05DF804FB10B572B6C8
:106EE800FFF784FEFFF71CFB0028FBD1104C114B69
:106EF800E41AE4082404104944F00100FFF74AFCAE
:106F08000E4B1B6813F0010F00D000BE0C4944F073
:106F18000200FFF73FFCBFF34F8F0A49CA6802F42B
:106F2800E062094B1343CB60BFF34F8F00BFFDE70F
:106F380078C7020048C70200D8C70200F0ED00E099
:106F4800E4C7020000ED00E00400FA05034BC3F8B3
:106F58000805034BC02283F8112370470010014035
:106F680000E100E010B50B4B4FF48032C3F8442326
:106F7800C3F80423084A4FF40031C2F880111160A5
:106F880001241C604FF43C60044B23439847044B96
:106F98001C7010BD0010014000E100E000C80200B4
:106FA800E129002070B50E4B4FF40032C3F8802061
:106FB8000C4D4FF48033C5F84833C5F80833012623
:106FC8006E60094C34434FF43C60A047AE60002526
:106FD800064B1D604FF43C60A047054B1D7070BD0B
:106FE80000E100E00010014000C80200F029002084
:106FF800E129002010B4114B1C682CB102682368E9
:107008009A4203D923460AE0186013E09A1A2260CC
:10701800C4610A4B18600DE0521A1C46DB6913B1B3
:1070280019689142F8D313B11968891A1960026076
:10703800C361E0615DF8044B704700BFF42900208C
:1070480070B5184B1E683446354624B1844202D0C8
:107058002546E469F9E714B3A5420CD02168E36931
:10706800EB6113B11A680A441A600E4B1868801B4A
:1070780018BF012070BDF3690A4A1360002BEDD1D7
:107088000123094A9360094A00211160084A1370D4
:107098004FF43C60074B43F001039847DEE70020BC
:1070A800E8E700BFF429002000100140F029002083
:1070B800E029002000C80200024B4FF40032C3F858
:1070C8000021704700E100E0024B4FF48012C3F842
:1070D8000021704700E100E008B5436980699847DE
:1070E80008BD00001B4B1868002832D070B51A4B39
:1070F800D3F80445194B1B68E41A24F07F44002593
:1071080004E000230374FFF7E7FF304648B1036843
:10711800A34206D8E41A1D44C669037C002BF4D0A8
:10712800EFE70F4B1A780F4B1B789A4207D00D4B9D
:107138001A780D4B43F82250FFF7C6FF70BD013394
:10714800DBB2084A1370022BF1D1134600221A70E1
:10715800EDE77047F429002000100140F0290020D5
:10716800EC290020ED290020E4290020104B1B7891
:10717800104A1278934217D00133DBB20C4A1370CD
:10718800022B0DD00A4B1A780B4B53F822300360B0
:107198000A4A11680B4423F07F43136001207047AB
:1071A800134600221A70EDE7002303601846704763
:1071B800EC290020ED290020E4290020F0290020F6
:1071C80070B400250E4B1B68BBB11C68844212D8F2
:1071D800001B254400241C60DE69094C2660DC681D
:1071E800002CEFD06E1826F07F465E609C60146815
:1071F800DC611360E6E7241A1C6070BC704700BFAE
:10720800F4290020F8B50546414B1F68002659E0CF
:10721800404A11784B1CDBB213709278934228D005
:107228004A000A44D0003B4B03449C681B79022B5C
:1072380023D0032B30D0012B44D1237C002B41D108
:10724800DFF8D0C04A005018C3006344D8686060B3
:107258001869A0605B69E3601144CB009C44DCF8CA
:107268001830A3612C4B1B78002B30D000236360AF
:107278002DE0284B00221A70D2E72046FFF7E0FEE7
:10728800034600B93346002222741E461AE0002243
:107298001A74DA691E4B1A601D4B1B68002BF6D155
:1072A80010E0521A22F07F42A36893421CD99A1A1E
:1072B800226000236360A36001222274E3612046F8
:1072C800FFF798FE9DB1002DA2D02C46ED696168AC
:1072D800124B1A688B1A23F07F4311488342E0D877
:1072E800A26813442360E4E700232360E1E7094B25
:1072F8001A785B789A42E6D12EB9054B1B68BB42D7
:1073080003D0012000E00120F8BD0020FCE700BF09
:10731800F4290020D4280020E0290020F0290020AA
:10732800FEFF7F00F8B51C4B1B688BB31F681B4B17
:10733800D3F804551A4B1C682E1B26F07F460336DB
:10734800184B1B780BB3B7422CBFE419A41924F0CF
:107358007F44124BC3F84045D3F804355B1B23F038
:107368007F430333641B24F07F44A3420CD90B4BA7
:10737800D3F80425C3F840254FF43C600A4B43F08A
:1073880001039847FFF798FEF8BDFFF7EBFDDAE732
:10739800FFF708FEF8E700BFF429002000100140BD
:1073A800F0290020E129002000C8020070B582B051
:1073B800002301930D4B1E680D4B1C686846FFF7B0
:1073C800D5FE054660B90198FFF71CFF00B915B155
:1073D8002046FFF7A7FF074B00221A7002B070BDC6
:1073E80001AA31460098FFF7EBFEECE7F0290020F0
:1073F800F4290020E0290020014B5870704700BF95
:10740800D42800200B4A53780133DBB292789A4291
:107418000CD0084A12789A420AD00370054843787B
:1074280003EB4303DA001044043070470023F0E70D
:1074380000207047D4280020F0B583B007460E46D8
:1074480015461C4602A8002300F8023D00F0DAF8B1
:107458000DF10700FFF7D6FFB0B1012202704760B7
:107468000C4AD2F804258260C660056144619DF823
:107478000700FFF7C1FF00249DF8060000F0EEF8B2
:1074880024B1204603B0F0BD0424F5E7FFF71CFE45
:10749800F7E700BF0010014030B583B004460D4641
:1074A80002A8002300F8023D00F0ACF80DF1070037
:1074B800FFF7A8FF70B1057044609DF80700FFF75B
:1074C8009BFF00249DF8060000F0C8F824B1204670
:1074D80003B030BD0424F5E7FFF7F6FDF7E7000039
:1074E80008B5084B0022C3F84021C3F84421C3F86B
:1074F8004821C3F84C21C3F80021C3F80421FFF741
:10750800F1FD08BD0010014008B5FFF74FFF08BDA9
:1075180010B5FFF747FD0F4B00241C705C700B2261
:107528009A700D4B1C600D4B1C700D4B1C700D4B55
:107538004FF48012C3F88021C02183F814131A6015
:107548002046FFF703FD084BD3F80425074B1A60C4
:10755800204610BDD4280020F4290020EC29002062
:10756800ED29002000E100E000100140F029002092
:10757800094B9B7843B14AB150B10368187C48B9AC
:10758800187459745A61704708207047072070476B
:107598000720704708207047D42800200D4B9B789F
:1075A80083B188B1042911D943698BB110B5437CE3
:1075B800012B05D0002413462246FFF73DFF10BDDE
:1075C8000C46F8E7082070470820704707207047E6
:1075D80008207047D428002008B5094B9B7843B190
:1075E80048B143694BB1002303740221FFF754FFEC
:1075F80008BD0820FCE70820FAE70820F8E700BFE4
:10760800D4280020EFF3108272B6114B9B68C3B9DF
:1076180030B40F4901238B600E4BD3F880400E4DD8
:107628002C400C60C3F88050D3F884404C604FF075
:10763800FF31C3F884100023037002B962B630BC6E
:107648007047012303700AB962B67047704700BFDC
:10765800F829002000E100E0FC06FFBD084B9B680C
:107668006BB160B9EFF3108172B6054B1868054A23
:1076780010605868506000229A6001B962B670477D
:10768800F829002000E100E008B54B0901F01F01CE
:10769800012202FA01F100EB830000F021F808BD95
:1076A80008B54A0901F01F01012303FA01F1C94392
:1076B80000EB820000F02AF808BD4B0950F82300BF
:1076C80001F01F01C84000F00100704750E8002F8A
:1076D8000B4640E8003C9CF0000FF7D1104670477D
:1076E80050E8003F43EA010240E8002C9CF0000FFC
:1076F800F6D11046704750E8002F02EA010340E82F
:10770800003C9CF0000FF6D11046704750E8003F4F
:1077180003EA010240E8002C9CF0000FF6D1104665
:10772800704750E8003F03EB010240E8002C9CF052
:10773800000FF6D11046704750E8003FA3EB010256
:1077480040E8002C9CF0000FF6D11046704708B5B1
:107758000121FFF7C5FF08BD08B50021FFF7CBFFE2
:1077680008BDC368008A00FB01307047C368C91AA6
:10777800008AB1FBF0F0C0B27047C0B110B4044643
:1077880082684368D21AD2B201680B6005E02168AA
:107798000A68501C086013701A46531EDBB2002A90
:1077A800F5D12368002018715DF8044B70470E204E
:1077B800704730B583B0044602A8002300F8013DA5
:1077C800FFF720FF2268136861688B4217D9591E9A
:1077D800116013F8011C2046FFF7C3FF0546A36894
:1077E800226811685B1ADBB21179994200D21371D1
:1077F8009DF80700FFF732FF284603B030BD00258B
:10780800F6E770B582B005460E4602A8002300F8D8
:10781800013DFFF7F7FE2B681C68621C1A603146B1
:107828002846FFF7A3FF20709DF80700FFF716FF13
:1078380002B070BD2DE9F84F05468A469DF828B07C
:10784800C48890F805C00CFB04FCACF1040CA146FC
:10785800191DB1FBF4F704FB17111668F018604501
:1078680001D9ACEB0306166001E02D68013F002F3B
:10787800FBD1641AB44228BF3446B8460BE022460E
:10788800194604F09BFE2D68361BA0444C46B145B2
:1078980028BF3446394666B10AEB08032944081D57
:1078A800BBF1000FEBD022460146184604F086FED5
:1078B800E9E7BDE8F88F08B5FFF75FFF08BDF8B541
:1078C80001464679701E0A46002301E0126801331A
:1078D8008342FBD31768002405E00D683846FFF79C
:1078E80090FF01342946A642F7D8F8BD2DE9F041AA
:1078F8000746B0F81080A8F1040631440331B1FB03
:10790800F6F6FFF756FF10B305460024047101236D
:107918004371A8F10408A0F80680F6B2013E07609A
:107928008046B44210D23846FFF743FF40B16A7927
:1079380001326A71C8F80000076001348046F0E738
:107948002846FFF7BCFF00252846BDE8F081002542
:10795800FAE708B501210430FFF7E3FE08BD10B5CA
:10796800044601210430FFF7E7FEC0B200B110BDA4
:107978002046FFF7A4FFFAE710B584B004AC44F83A
:10798800042D002200922246FFF754FF04B010BDD8
:1079980041DF704710B50024054B1C70054B1C6077
:1079A800BFF35F8F0449054800F03EF8204610BD3C
:1079B8000C2A0020102A002008C80200042A0020EF
:1079C80000B583B002A8002300F8013DFFF71AFEB6
:1079D800F1EE103A23F09F03E1EE103ABFF35F8F08
:1079E800094B4022C3F884219DF80700FFF736FEB3
:1079F80003F0BAFE28B920BF40BF20BF03B05DF82E
:107A080004FBFFF7C5FFF9E700E100E08268002307
:107A1800936082681361826853618268D360826868
:107A2800536082681360704701600B6843604A685E
:107A3800934200D0704700234360FBE7436833B1AB
:107A4800026891680B4443605268934200D07047C3
:107A580000234360FBE700000F4A02F594718A4255
:107A680018D210B48B1ADB1003EBD3735B1002EB44
:107A7800C30452F83330834206D921468A42F1D3EF
:107A880000205DF8044B704702D204F10802F5E7C4
:107A98006068F6E70020704734C8020008B5FFF7B1
:107AA800DBFF034608B1184608BD014BFBE700BFE2
:107AB80020C802000120704701207047064B1B6850
:107AC800082B01D000207047044B1B680BB1002025
:107AD80070470120704700BF3001001034010010CA
:107AE800064B1B68082B01D000207047044B1B680D
:107AF8000BB1002070470120704700BF3001001013
:107B080034010010064B1B68082B01D00020704779
:107B1800044B1B680BB1002070470120704700BF61
:107B28003001001034010010064B1B68082B01D0EF
:107B380000207047044B1B680BB1002070470120E0
:107B4800704700BF30010010340100100120704759
:107B5800014B024A1A607047E02200200090D003CF
:107B680008B5FFF7A7FF40B14FF080430022C3F8E4
:107B78000C21C3F81021C3F83825FFF79DFF002812
:107B880046D04FF08052D2F80414604BC3F8201549
:107B9800D2F80814C3F82415D2F80C14C3F8281521
:107BA800D2F81014C3F82C15D2F81414C3F83015F1
:107BB800D2F81814C3F83415D2F81C14C3F84015B9
:107BC800D2F82014C3F84415D2F82414C3F8481581
:107BD800D2F82814C3F84C15D2F82C14C3F8501551
:107BE800D2F83014C3F85415D2F83414C3F8601519
:107BF800D2F83814C3F86415D2F83C14C3F86815E1
:107C0800D2F84014C3F86C15D2F84424C3F8702590
:107C1800FFF754FF10B13E4B3E4A1A60FFF760FF72
:107C280018B13D4BFB22C3F81825FFF76BFF48B18D
:107C38003A490B6823F00F03394A126802F00F0221
:107C480013430B60FFF770FF18B1364B4FF4007207
:107C58001A60FFF77BFF60B14FF08043D3F8003420
:107C680013F0010F05D04FF080436FF00102C3F805
:107C780000242D4AD2F8883043F47003C2F88830C3
:107C8800BFF34F8FBFF36F8F4FF01023D3F800323D
:107C9800002B08DB4FF01023D3F80432002B02DB53
:107CA800FFF756FF08BD214B0122C3F804251F4BDF
:107CB800D3F80034002BFAD04FF010231222C3F867
:107CC80000221A4BD3F80034002BFAD04FF01023BF
:107CD8001222C3F80422154BD3F80034002BFAD033
:107CE800124B0022C3F80425104BD3F80034002BA4
:107CF800FAD0BFF34F8F0C49CA6802F4E0620C4B0C
:107D08001343CB60BFF34F8F00BFFDE700C00040B7
:107D18008C5600404881030000F00040E40E00400B
:107D2800580200104096024000ED00E000E00140DB
:107D38000400FA054FF01023D3F8043303F00703C7
:107D4800072B00D07047144B0122C3F80425124BAF
:107D5800D3F80034002BFAD04FF01022D2F80433B5
:107D680023F0070343F00403C2F804330A4B00224C
:107D7800C3F80425084BD3F80034002BFAD0BFF31E
:107D88004F8F0649CA6802F4E062054B1343CB6083
:107D9800BFF34F8F00BFFDE700E0014000ED00E0BA
:107DA8000400FA05002303B17047034A0C21C2F806
:107DB80018170133F7E700BF00030050094B1A5C9E
:107DC80011461F2A0BD902F01F01074BD3F80435BF
:107DD800CB4013F0010F0CBF0120002070474FF07B
:107DE800A043F3E748CD020000030050074B1A5C9C
:107DF80011461F2A07D902F01F01054A01238B40AB
:107E0800C2F80C3570474FF0A042F7E748CD0200A2
:107E180000030050074B1A5C11461F2A07D902F0CD
:107E28001F01054A01238B40C2F8083570474FF0FF
:107E3800A042F7E748CD02000003005010B5002427
:107E480003E02046FFF7E6FF0134032CF9D910BD03
:107E580008B54FF08043D3F8403613F0010F01D135
:107E680000230AE0FFF766FFFAE74FF0A04102F5AA
:107E7800E072032041F822000133032B08D8064A98
:107E8800D15C0A461F29F0D901F01F020349EEE729
:107E9800FFF7D4FF08BD00BF48CD02000003005023
:107EA80010B5002403E02046FFF7A0FF0134032C9F
:107EB800F9D910BD0B4B195C08461F290ED901F0E2
:107EC8001F000949D1F804350122824022EA030043
:107ED800C1F808051340C1F80C3570474FF0A041B0
:107EE800F0E700BF48CD020000030050262070478D
:107EF80010B5044610F0010F03D114F0020F03D19E
:107F080010BDFFF7A5FFF8E7FFF74CFFF8E7000003
:107F180010B5084B1B7853B1002400E00134032C42
:107F280007D8022CFAD02046FFF774FFF6E7FFF7D0
:107F380085FF10BD142A0020F8B50446BD4B1B78F8
:107F4800E3B9172C00F29281DFE814F01E00280034
:107F5800280055008200A600D200DF00E600F300EA
:107F680000010D011A01200120012001200120013A
:107F78005B0161016A017E018A018A01AD4B002221
:107F88001A70FFF7C5FFDCE7FFF7C2FFAA48FFF743
:107F980023FB0546A94B1C702846F8BD0020FFF7B7
:107FA8000DFFF0B10020FFF735FF022C16D04FF47B
:107FB8007A63A24A147000245E0CDD034FF47A72CF
:107FC800002315F5FA7046F1000104F085FA2246FF
:107FD80001469948FFF7E2FA0546DDE74FF4E16309
:107FE800E7E70020FFF702FF022C02D04FF4C87326
:107FF800DFE7C823DDE70020FFF7E0FEF0B100204F
:10800800FFF708FF032C16D04FF47A638B4A1470DD
:1080180000245E0CDD034FF47A72002315F5FA7024
:1080280046F1000104F058FA224601468248FFF75B
:10803800B5FA0546B0E74FF44873E7E70020FFF7C5
:10804800D5FE032C02D04FF4C873DFE7C823DDE761
:108058000020FFF7B3FEC8B10020FFF7DBFE4FF4A6
:108068007A63764A147000245E0CDD034FF47A724A
:10807800002315F5FA7046F1000104F02DFA2246A6
:1080880001466D48FFF78AFA054685E70020FFF7A5
:10809800ADFE4FF4C873E4E70020FFF78FFEE8B1A8
:1080A8000020FFF7B7FE052C16D04FF47A63634A19
:1080B800147000245E0CDD034FF47A72002315F56A
:1080C800FA7046F1000104F007FA224601465A48C0
:1080D800FFF764FA05465FE7C823E8E70020FFF7E3
:1080E80085FE052C02D04FF4C873E0E7C823DEE70D
:1080F8000020FFF7DFFE514B1C70002240F6CD41F7
:108108004D48FFF74BFA054646E70020FFF76EFE9D
:108118004A4B1C7000253FE70120464B1870FFF7BB
:10812800C9FE002240F6CD414348FFF737FA05461D
:1081380032E701203F4B1870FFF7BCFE00224FF4D6
:1081480080413D48FFF72AFA054625E70120394BCB
:108158001870FFF7AFFE002240F6CD413648FFF712
:108168001DFA054618E70120324B1870FFF7A2FEEA
:1081780000224FF480413048FFF710FA05460BE71C
:10818800FFF78EFE2D4B1C70002505E72C48FFF7E6
:1081980023FA0546D4F111042CD058BB012C22D95E
:1081A800A2B20023901843EB0301861841EB0307A2
:1081B800FC00F5002746AC1847EB0305AB0443EA7F
:1081C8009433A20414461D464FF47A72002314F522
:1081D800FA7045F1000104F07FF9002201461848C1
:1081E800FFF7DCF905460220FFF700FE154B0122D8
:1081F8001A70D1E60220FFF70DFE124B00221A700A
:10820800CAE6FFF785FE0D4B1C700025C4E6FFF794
:108218007FFE0020FFF7EAFD084B1C700025BBE637
:10822800FFF776FE0120FFF7E1FD044B1C700025E7
:10823800B2E600BF602A0020382A0020612A002008
:10824800182A0020142A0020FFF762FE0020FFF7FA
:10825800CDFD0120FFF7CAFD054B1C7000259BE6EC
:10826800FFF71EFE024B1C70002595E6002593E6DD
:10827800612A002000BB38B50446C1B10325204659
:10828800FFF734FE1F2814D900F01F000B4A00F531
:10829800E07352F8231021F4403142F8231052F8C9
:1082A800231041EA054142F82310204638BD002535
:1082B800E5E74FF0A042EAE70620704700030050C8
:1082C80008B50246044B186810F0010000D108BD3B
:1082D8001046FFF731FEFAE75C2A0020034620BB70
:1082E800012A06D001290CD0C1B102290FD00720DC
:1082F8007047012901D00022F4E700F10E02D2B242
:10830800F0E703EB43010A4842541846704703EB71
:108318004300074901444A701846704703EB43007D
:10832800034901448A70184670470720704700BF08
:10833800582A002008B50121FFF79CFF08BD08B5A1
:10834800012200210846FFF7C9FF20B1034607288C
:1083580001D0184608BD072202210120FFF7BEFF01
:10836800034608B10728F4D1042202210020FFF7B0
:10837800B5FF034618B10728EBD10023E9E700232E
:10838800E7E708B5012202210020FFF7A7FF20B187
:108398000346072801D0184608BD072202210120FC
:1083A800FFF79CFF034608B10728F4D10A220021F1
:1083B8000846FFF793FF034618B10728EBD10023BF
:1083C800E9E70023E7E7000008B50388102B02D08F
:1083D800112B12D008BD114B1B6823B10F4A13682B
:1083E80001331360F6E7FFF7AAFF0028F6D00C4B1D
:1083F8001B68002BF2D09847F0E7084A1368013B46
:108408001360002BE6D1FFF7BCFF0028E2D0044B35
:108418001B68002BDED09847DCE700BF682A0020E5
:10842800642A002008B50020FFF784FF20B1034626
:10843800062801D0184608BD0120FFF77BFF034638
:1084480018B10628F6D10023F4E70023F2E7036801
:108458000BB11A68026018467047000008B500F0B2
:10846800CBF8024B00229A7008BD00BF6C2A00208E
:1084780000B1704708B5064B01225A700548FFF74E
:10848800E6FF18B1436800209847F7E708BD00BF2A
:108498006C2A0020742A002010B5044610B1012C63
:1084A8000CD010BD0B4B01225A700B48FFF7CFFFC1
:1084B8000028F4D0436800209847F6E7054B0122CE
:1084C8009A700648FFF7C3FF0028EAD043680120E6
:1084D8009847F6E76C2A0020742A00207C2A00209E
:1084E80010B50D4B1B78A3B90B4B00229A605A604C
:1084F8001A61DA60094800F05DF8044603F034F9BF
:1085080020B1054B01221A70204610BD00F060F81A
:10851800F7E78524F8E700BF6C2A0020A184020051
:1085280000B583B002A8002300F8013DFFF76AF800
:10853800074BDA68013ADA60DB6833B19DF8070067
:10854800FFF78CF803B05DF804FBFFF787FFF5E74A
:108558006C2A002000B583B001280AD020B1032876
:108568001ED003B05DF804FB104B0122C3F8802035
:10857800F7E702A8002300F8013DFFF743F80C4B8A
:108588001B7853B10A4BDA680132DA6001229A701B
:108598009DF80700FFF762F8E3E7FFF7A1FFF1E7AF
:1085A80000F016F8FFF7BCFFDBE700BF00E100E0D2
:1085B8006C2A0020054B1B7933B9044B1860012243
:1085C8001A7100205871704785207047802A002052
:1085D800084B1B6813F0010F05D1064BC02283F826
:1085E800002301221A604FF080430122C3F81825A6
:1085F800704700BF00E100E0054B01221A604FF010
:108608008043D3F8183413F4803FF8D1704700BF83
:108618000C00004000B583B0154B1B6893B1144B98
:1086280000221A601B680093009B4FF080430122D0
:10863800C3F808230F4B5B7923B90E4B5A711B689B
:10864800002098470C4B1B6873B10B4B00221A6033
:108658001B680193019B4FF080430222C3F8082353
:10866800044B1B680120984703B05DF804FB00BF6A
:1086780000010040802A00200401004070B4154623
:1086880062B1002365B10824A34218D20E4A52F8F9
:108698002320B2F1FF3F05D00133F5E70823F1E7C6
:1086A8000C24F1E75AB2084C261886F8302044F812
:1086B800231035B9083B234483F8600001E04FF0EC
:1086C800FF32104670BC7047882A0020064B4FF0D6
:1086D800FF3243F82020072804D908381844FF231C
:1086E80080F86030704700BF882A00201B4B93F841
:1086F8006A308BBB10B582B006E0184A1A44FF21D5
:1087080082F830100133DBB22F2BF6D9002404E0B5
:108718002046FFF7DBFF0134E4B20B2CF8D90F4CED
:108728000622002104F1640003F071FF0C4BC02203
:1087380083F8062340221A600A4B002018601B6841
:108748000193019B084B4FF00042C3F80423012317
:1087580084F86A3002B010BD08207047882A0020CB
:1087680000E100E07C61004000600040034B93F8AA
:108778006A00003018BF0120704700BF882A002017
:10878800394B034493F93030002B01DB0820704744
:1087980070B513460C4605468A78C2F3400219465E
:1087A800FFF76CFFB0F1FF3F5BD0A37813F0040F25
:1087B80019D113F0010F2AD01F2D24D905F01F035A
:1087C8002A4903F5E07351F8232022F0020241F808
:1087D8002320EB0805F00701254E012202FA01F1DA
:1087E800F25C0A43F254A37813F0020F1FD1083841
:1087F80022781D4B184490F8603043EA821380F8C1
:108808006030002070BD2B464FF0A041D9E7637857
:108818001F2D08D905F01F0214499B0002F5E072CC
:1088280041F82230D5E72A464FF0A041F5E72378F2
:10883800104900F5A27051F8202022F44F3222F49A
:10884800407241F8202051F820202D0205F47C5573
:108858001B0403F440331D43154341F82050002006
:10886800D0E70420CEE700BF882A0020000300508C
:10887800EC2A00200060004070B483B0354B0344FC
:1088880093F93030072B3ADDA3F10802314B13443A
:1088980093F96030C3F38113032B18D0012B27D031
:1088A80003241F2828D900F01F002B4B00F5E07087
:1088B80053F8201021F4403143F8201053F82020B9
:1088C80042EA044243F8202003B070BC70471F28D6
:1088D8000AD900F01F02204BD3F81035D34013F00B
:1088E800010F07D00324DCE702464FF0A043F3E76B
:1088F8000224D6E70224D4E74FF0A043D6E7DAB241
:10890800072AE1D803F1400292B2920092B2134DC5
:1089180003F5A27655F8264044F0010445F82640B0
:1089280002F1804202F5C0420024146012680192EC
:10893800019A0029C8D0074A104490F9301052F81B
:108948002120002AC0D0012202FA03F3C5F804331B
:10895800BAE700BF882A00200003005000600040EA
:10896800164B034493F93030072B14DD1F280FD919
:1089780000F01F00124B00F5E07053F8202022F49D
:10898800403243F8202053F8202043F82020704735
:108998004FF0A043EFE7DAB2072A0DD8094A03F5EA
:1089A800A27052F8201021F0010142F82010012194
:1089B80001FA03F3C2F80833704700BF882A002081
:1089C80000030050006000401F2809D900F01F0074
:1089D800054BD3F8103523FA00F000F0010070477A
:1089E8004FF0A043F5E700BF000300502DE9F04128
:1089F8008CB000250A950B9501204FF48073294609
:108A080003E0400004339BB20131072912D803F177
:108A1800804202F5C0421468012CF2D1844CD4F88B
:108A280004432042EDD00024146012680092009A9A
:108A38000543E6E77F4B1B68012B07D015F0FF0FB6
:108A480038D1002D39DB0CB0BDE8F081794A00231C
:108A5800136012680192019A45F00045764908AA08
:108A680003C982E803000AAA09E00CA901EB830103
:108A780051F8101CD1F8101542F8041B0133012BD2
:108A8800F3D9DBE776000134072CDAD82E42F9D087
:108A9800674B04F5A27253F82200C0F3052053F87F
:108AA8002210C1F30141654B53F82430002BE9D063
:108AB8009847E7E701260024E6E70023029303939B
:108AC80007E00CAA02EB83024FF0FF3142F8201CAA
:108AD8000133012BF5D900252C4615E0032912D1C5
:108AE80035E00DF1080C1CF8067017430CF80670F9
:108AF8002FE003464FF0A04C31E0032943D0B8F1F2
:108B0800000F00D0C0470134032C52D84B4B2344EC
:108B180093F96020D3B223F0C000B2F1FF3FF2D046
:108B2800C60803F00702012101FA02F20CA9314438
:108B380011F8201C0A42E6D09909404F07EB000CB7
:108B48009CF930C057F82C80B8F1000FC6D0032923
:108B5800C7D01F28CDD903F01F03DFF8E4C003F501
:108B6800E0775CF82770C7F301470DF1300E7644C3
:108B780016F8086C324001D0022FBED0002AC2D1AC
:108B8800032FC0D1B9E7022F11D0022603F5E073F5
:108B98005CF8232022F440324CF823205CF8232090
:108BA80042EA06424CF823200135EDB2A7E7032636
:108BB800ECE71DB9002D3FF446AF8CE71E4A08AB21
:108BC80092E8030083E80300002306AA09E00CA941
:108BD80001EB830151F8101CD1F8101542F8041B61
:108BE8000133012BF3D90023012B0AD80CAA02EB7D
:108BF800830252F8181C52F8082C914215D10133FF
:108C0800F2E70123002B7FF41EAF0023012BD1D8FC
:108C18000CAA02EB830252F8181C42F8081C52F8FE
:108C2800281C42F8201C0133F0E70023EAE700BFC4
:108C3800006000407C6100405CCD0200882A002072
:108C48000003005008B5024B1B68984708BD00BFD9
:108C5800F42A002010B588B0624B1B68002B2AD07C
:108C6800604B00221A601B680093009B5E4B93F8D0
:108C78002E2012B193F82F30EBB100238DF8143069
:108C8800594B596806911989ADF81C10D968002903
:108C98007FD0554B188B5883596018810021D960B3
:108CA80012B9524B01221A604F4C236805A8984705
:108CB800002384F82F304C4B93F82E3033B34C4BB1
:108CC8001B681BB34A4B00221A601B680193019B67
:108CD800454A538B92F82D108AB293425CD99B1A5D
:108CE8009BB24148438342680089C31A02EB43039D
:108CF8003E4AC2F82C36C2F830163A4B00221A60A7
:108D08001B680293029B3B4B01221A603A4B1B687B
:108D18006BB1394B00221A601B680393039B324BDB
:108D28001A7408A8022200F80C2D1B689847334BC8
:108D38001B68002B4BD12C4B5C69002C4FD0B4FA2C
:108D480084F34FF00042DA4024EA020446339B00E1
:108D580003F1804202F5E04211680029EDD00021BC
:108D6800116012680492049A01228DF81420A3F568
:108D78008C73C3F3C7028DF8182013F0040F0CBFCF
:108D880001230B468DF81930174B1B6805A8984727
:108D9800D3E700221A7487E7934208D09342ACD1F4
:108DA800114B012283F82F2000225A83A5E70E4891
:108DB800C0680028F2D00C4B012283F82F20002233
:108DC8005A830A4BC3F82C06C3F8301695E70B4AAA
:108DD8000023136012680592059A034A137408B0B9
:108DE80010BD00BF04710040FC2A00200070004044
:108DF8000071004004700040107100401471004080
:108E0800254B93F82C30002B44D110B485B0224B5D
:108E1800196002782149C1F8F0254278C1F8F42593
:108E2800C27883F82E20012283F82C2000221A749D
:108E380083F82D205A6183F82F206FF00044C1F881
:108E48000843174C226024680394039C154C226045
:108E580024680294029C144C226022680192019AB0
:108E680082785201D2B2114880F80723802202602A
:108E78000222C1F8042393F82E3013B10122C1F85D
:108E88000423064B0122C3F80025002005B05DF835
:108E9800044B704708207047FC2A002000700040EF
:108EA80004710040007100401471004000E100E0CE
:108EB800264B1B7C002B46D110B400F10C03234A2F
:108EC80002EB43031B7923B992F82D30013382F862
:108ED8002D30CA7900F10C041C4B03EB44031A71C2
:108EE8000A7A5A710B7803F003034A78120102F0E8
:108EF800300213438A78120202F4E0621343CA78FC
:108F0800120302F4805213430A79120402F4E02295
:108F180013434A79120502F4801213438A79120620
:108F280002F0807213430A4A02EB0014C4F81835A1
:108F3800CB790C7A5130000111184C601350002085
:108F48005DF8044B70471120704700BFFC2A0020D1
:108F580000700040054B93F82E302BB9042000F127
:108F6800804000F5E04070470020F8E7FC2A002028
:108F7800304B1222C3F808232F4B1B7CDBB2022B89
:108F880023D082B02C4B1B7CDBB2012B22D0294B87
:108F98000222C3F80423284B01221A74586019814D
:108FA8000022DA6093F82E30002B37D1214BC3F81A
:108FB8002C06C3F83016214A00201060126801926E
:108FC800019A01221A6002B070471A4BC3F80423B1
:108FD80011207047184BDB682BB1164B0222C3F8DF
:108FE80004231120EFE7144BD860198393F82E302F
:108FF80073B9124B1B68002BFBD0104B00221A6070
:109008001B680093009B0B4BC3F82C06C3F8301663
:10901800084B0222C3F804230020D4E7064B5983E7
:1090280093F82D20034BC3F82C06C3F830260020F4
:10903800C9E700BF00700040FC2A00200071004012
:109048000A4B1B7CDBB2012B0DD1084B93F82E3059
:1090580023B9074B01221A6000207047054B0122F3
:109068001A60002070470820704700BFFC2A0020C3
:109078000470004000700040024B187C003018BF9C
:1090880001207047FC2A002030B48CB244EA024424
:10909800030103F1804303F5E043C3F81C45400096
:1090A8008024844011F5006F1ED0411C4FF000430E
:1090B80023FA01F11A4D6B690B436B61194BC3F825
:1090C80004434023834040F2FF718A421AD04FF094
:1090D800004222FA00F012494A6902434A61114AE1
:1090E800C2F8043330BC7047411C4FF0004323FAE8
:1090F80001F10B4D6B6923EA01036B61094BC3F85E
:109108000843DEE74FF0004222FA00F004494A69BA
:1091180022EA00024A61034AC2F80833E2E700BFC4
:10912800FC2A002000700040134B1B7C13BB10B5B9
:1091380000F10C03104A02EB43031B7923B192F8A8
:109148002D30013B82F82D3000F10C020A4B03EB65
:10915800420300241C715C71084A00F151031B0191
:10916800D1184C60D45040F2FF720549FFF78CFFCC
:10917800204610BD11207047FC2A002000700040D6
:1091880000F8FFFF10B5174B6FF00042C3F8082333
:10919800154B8022C3F88020144B01221A6042F23A
:1091A8001073134A12680AB9013BFAD100240D4B17
:1091B800C3F800450F4B1C7400E00134072C0BD892
:1091C80004F10C030B4A02EB43031B79002BF4D088
:1091D800E0B2FFF7A9FFF0E7064B002283F82C2046
:1091E80010BD00BF0070004000E100E008700040C2
:1091F80014710040FC2A0020044B1B7823B9034B50
:1092080001221A7000207047852070472C2B0020FF
:10921800064B1B783BB110B50024044B1C7000F0C2
:1092280007F8204610BD0820704700BF2C2B0020EF
:1092380030B4114B114AC3F808250023332103E049
:1092480021EA02010133DBB251B101229A401142F5
:10925800F6D003F50070084C002544F82050EFE7DD
:10926800074A13685B0C5B041360064A137823F003
:109278003303137030BC704700F00140FFFF01005A
:10928800302B0020342B00202DE9F04383B080469A
:10929800204E0024042708E09DF80700FEF7DEF9B9
:1092A800D7B126EA05060134E4B206B302A80023C2
:1092B80000F8013DFEF7A6F9A1460125A5402E427A
:1092C800EAD0154B1B681D42E6D12B43124A1360A6
:1092D80088F800400027DFE7104B1148C01AC00883
:1092E80000044A460F4940F00300FDF7CFFA0B4B44
:1092F8000B4CE41AE40824043846FEF7CFFB034677
:10930800094A0A4944F00300FDF74EFB384603B00A
:10931800BDE8F083FFFF0100302B002048C70200A2
:1093280058C70200DCCD020078CD0200F4CD02005F
:1093380030B583B0002936D00B46002A35D0012439
:109348008440C4F31001D9B1194909680C4201D10C
:10935800082516E0174900F1A20441F8343001EB62
:10936800C4014A601449154C641AE40824040092A4
:109378000246134944F00300FDF7A6FB002500E070
:1093880007250D4B0D4CE41AE40824042846FEF783
:1093980085FB03460B4A0C4944F00300FDF704FB28
:1093A800284603B030BD0E25FAE70E25F8E700BFC2
:1093B800302B002000F0014048C7020058C70200C7
:1093C80014CE020090CD0200F4CD020038B501237E
:1093D80003FA00F0430C5B04DBB9C0F310031BB1C4
:1093E8000E4B1B68184216D00D4BC3F80405002518
:1093F8000C4B0D4CE41AE40824042846FEF74EFBF7
:1094080003460A4A0A4944F00300FDF7CDFA284604
:1094180038BD0725ECE70825EAE700BF302B002018
:1094280000F0014048C7020058C70200A8CD02005A
:10943800F4CD020038B5012303FA00F0430C5B04B5
:10944800DBB9C0F310031BB10E4B1B68184216D0D2
:109458000D4BC3F8080500250C4B0D4CE41AE40825
:1094680024042846FEF71AFB03460A4A0A4944F030
:109478000300FDF799FA284638BD0725ECE70825CB
:10948800EAE700BF302B002000F0014048C7020087
:1094980058C70200C0CD0200F4CD0200F0B583B079
:1094A80005460F461646002401E00134E4B2B442F2
:1094B80016D204F15000800080B24FF48033A340EC
:1094C8002A58002AF1D0D5F804231342EDD00023FE
:1094D8002B502B580193019B3B6879689847E4E728
:1094E80003B0F0BD70B483B0057905EB45039C006B
:1094F800344B23441B7A002B61D1324E331932513D
:109508004A685A6000220BE0046802F150039B008D
:109518009BB20026E650E3580193019B0132D2B278
:1095280043799342F0D80468240B62B2CB78002ABE
:109538003EDB5B01DBB202F1604202F5614282F878
:10954800003303681B0B5CB203F01F03640901229C
:1095580002FA03F31C4E46F8243006684C78D6F815
:10956800043523F0030304F003042343C6F8043549
:1095780006688C78D6F8083523F0030304F0030452
:109588002343C6F8083500680978D0F8103523F069
:109598000F0301F00F010B43C0F8103505EB45052B
:1095A800A900084B0B441A72002003B070BC704726
:1095B80004F00F045B01DBB2044A1355C1E708202D
:1095C800F3E700BF382B002000E100E014ED00E0D5
:1095D800036801221A60037903EB43039A00024BE4
:1095E800134402221A727047382B002070B483B0DB
:1095F8004FF480348C4053B90368C3F808430368B8
:1096080001F5A87143F8212003B070BC70470568C4
:1096180001F150039B000026EE50EB580193019B8B
:109628000368C3F80443EAE7F8B507684FF48074A1
:109638008C4001258D402C43D7F8005225EA0404BC
:10964800C7F800420568D5F800422343C5F8003240
:109658009DF81830FFF7CAFFF8BD000008B50422CE
:1096680002490348FFF71AFF08BD00BF382B002046
:109678000080004008B5042202490348FFF70EFFA6
:1096880008BD00BF442B00200090004008B504220C
:1096980002490348FFF702FF08BD00BF502B002016
:1096A80000A0004041DF704772DF704773DF7047EA
:1096B80074DF704776DF70477ADF70477CDF70476A
:1096C8007FDF70478FDF7047B1DF704708B5FDF760
:1096D800F7FB08BD08B5FDF7F3FB08BD08B503782F
:1096E80003B108BD3B21044B1888FFF7E3FF0028AE
:1096F800F7D0FDF7E5FBF4E7FE22002010B5262899
:109708001ED10C461048114BC01AC008000410495D
:1097180040F00300FDF73EF822460E490E4B18882C
:1097280001F06AFF70B143F2020290420AD00828A1
:1097380008D043F20142904204D0FDF7C1FB01E09A
:10974800FDF7BEFB10BD00BF78C7020048C7020086
:109758007CCE0200B42B0020FE22002008B54FF476
:1097680000410020FCF7B4FE10B9FCF735FE08BD37
:10977800FDF7A6FBF9E700B583B001F0B1FF70B9BA
:1097880002A9002341F8043D012002F04FF848B92E
:1097980001A802F007F940B903B05DF804FBFDF732
:1097A8008FFBEDE7FDF78CFBF2E7FDF789FBF3E7AD
:1097B80010B582B004460388103B462B39D8DFE841
:1097C80003F024403855383838383838383838387D
:1097D80038383861383838383838383838383838D8
:1097E800383838383838383838383838387B3838AE
:1097F80038383838383838383838383838383838E1
:10980800383838386F38383884003448344BC01A00
:10981800C0080004334940F00300FCF7BBFFA188EF
:10982800314B1980314801F023FE20B9FDF71AFBAE
:1098380020B902B010BDFDF743FBF7E7FDF740FB89
:10984800F7E72648264BC01AC0080004284940F00C
:109858000300FCF79FFF244B4FF6FF721A80FDF7B9
:1098680017FB0028E5D0FDF72BFBE2E700231A469B
:1098780085211D480088FFF723FF0028D9D0FDF770
:109888001FFBD6E700238DF804308DF8053001A9B9
:109898008088FFF717FF0028CBD0FDF711FBC8E73A
:1098A80000231A46194610480088FFF70DFF0028C4
:1098B800BFD0FDF705FBBCE713218088FFF7FAFE50
:1098C8000028B6D0FDF7FCFAB3E713218088FFF72C
:1098D800F1FE0028ADD0FDF7F3FAAAE778C7020039
:1098E80048C7020060CE0200FE220020CC2B0020D8
:1098F8006CCE020030B585B09DF80430012262F3C9
:10990800030362F3071304AC04F80C3D144D284616
:1099180002F0B0FE82B229462046FFF7CFFEC0B95A
:10992800082200210DEB020002F071FE5023ADF871
:109938000830A023ADF80A300023ADF80C304FF4FE
:10994800C873ADF80E3002A8FFF7B6FE20B905B00F
:1099580030BDFDF7B5FAE3E7FDF7B2FAF7E700BF68
:10996800A8CE020008B50021034801F0ADFC00B9FB
:1099780008BDFDF7A5FAFBE7A02B002000B583B0D2
:109988000023019302A90C4B41F8083D0B4801F054
:109998005BFD50B902A90A4B41F8043D094801F0A2
:1099A800BFFD28B903B05DF804FBFDF789FAF1E7BC
:1099B800FDF786FAF6E700BFD5960200CC2B00200B
:1099C800059B0200B42B002000B589B01C220021A1
:1099D80001A802F01CFE002301934FF420220292FA
:1099E8004FF42032039203228DF81020ADF8123084
:1099F8008DF81430064B0693064B079301A801F027
:109A08000FF810B909B05DF804FBFDF759FAF9E74A
:109A1800E5960200DD96020010B5A6B041F2235388
:109A2800ADF81C30264B9B7C8DF81E303C22002163
:109A380017A802F0ECFD02238DF85C3001248DF8A4
:109A48005E4006238DF85F303C22002108A802F012
:109A5800DEFDADF8304007AB0D931A4A52F8041BEF
:109A680017A800F0EDFD08BB164B03F10C0299682E
:109A780008A800F0E5FDE0B91822002101A802F0CD
:109A8800C6FD01228DF819200023ADF810308DF89D
:109A9800042002938DF818304023039301AA094942
:109AA8000948FFF701FE38B926B010BDFDF708FADE
:109AB800DAE7FDF705FADFE7FDF702FAF4E700BF9A
:109AC800B42B0020EC220020FC22002008B5012144
:109AD800054B1878FFF7EAFD18B90120FEF786F95B
:109AE80008BDFDF7EDF9F8E7FC22002008B5024BA8
:109AF8001878FFF7DDFD08BDFC22002038B51546B3
:109B0800212A55D01CD8102A25D0202A44D0002A32
:109B180000F08F802B090A2B3DD14F4B1B78002B6F
:109B280039D005F00F034D4AD25C4D494D4B18888A
:109B380001F062FDA42D2ED1474B00221A702AE0B5
:109B4800402A4AD0502A5BD0302AE3D100F0F4F9F9
:109B580000F006FB1FE000F055FA64244FF47A4049
:109B6800414B43F001039847013CF7D1EAB23C4925
:109B78003C4B188801F040FD3C4C256800F0DCF8AF
:109B8800288023681B883A48036000F053FA00F0E5
:109B980041FA00F0E5FA38BDD2B23149314B1888A4
:109BA80001F02AFD40BF20BF20BFFFF77BFDF2E791
:109BB800D2B22B492B4B188801F01EFD0020FEF76E
:109BC80029F90120FEF726F90220FEF723F90320E0
:109BD800FEF720F900F0F4F9DDE71F4B01221A70B7
:109BE800EAB21F491F4B188801F006FD64244FF4A0
:109BF8007A401D4B43F001039847013CF7D1CAE76F
:109C0800184CD2B21649208801F0F6FC152120889C
:109C1800FFF750FDFFF76AFF42F210744FF47A40E5
:109C2800114B43F001039847013CF7D1FFF74EFF72
:109C3800B1E764244FF47A400B4B43F00103984793
:109C4800013CF7D10120FEF7E5F80220FEF7E2F823
:109C58000320FEF7DFF89EE75C2B00201C2C002079
:109C6800B42B0020FE220020A0CE020008230020F2
:109C7800D82B002008B540F2666201210348FDF7A1
:109C88009FF800B908BDFDF71BF9FBE7E4220020A7
:109C980008B500F0CFF800F07DF800F06FF800F09C
:109CA8004FFAFFF75BFD00F0A8F900F0BBF900F0F0
:109CB8009CF9FFF7DFFF00F029F9FFF75CFDFFF7DC
:109CC80019FEFFF74FFEFFF759FEFFF77DFEFFF77E
:109CD800A3FEFFF7FBFE00F026F9FCE77047000043
:109CE80008B5037803B108BD0A214068FFF740F9B9
:109CF80070B90020FEF77AF80C4A13780133DBB20A
:109D08001370022B07D00A4A136801331360EAE77D
:109D1800FDF7D6F8EDE7074B1B680122DA72002041
:109D2800FEF778F8014B00221A70ECE7DC2B0020D4
:109D3800E02B00200823002010B4002420460CE06B
:109D480004EB84014B0013440A4931F813301844DA
:109D580080B20132092AF3DD0134012C01DC002232
:109D6800F8E7054BA3FB0030C0F30F105DF8044B78
:109D7800704700BFE42B0020CDCCCCCC08B5044BF9
:109D88001878FFF723FB00B908BDFDF799F8FBE742
:109D98000C2C002030B585B0FFF72EFA002832D100
:109DA8001F4A02AB92E8030083E8030003228DF800
:109DB8000A201C4A19461C48FFF794FB30BB1A4C72
:109DC8002368D3F81025D2B2002100910123174847
:109DD80020FA02F22046FFF727FC2046FFF7F8FB9F
:109DE800246804F5A074FFF7B5F805461048FFF796
:109DF8004BFA70B92A4621460D4B1878FFF798FAA6
:109E080050B905B030BDFDF75BF8C9E7FDF758F864
:109E1800D5E7FDF755F8EDE7FDF752F8F1E700BF94
:109E2800B0CE0200E59C020000230020006A180062
:109E38000C2C002000B585B001AB134A07CA03C338
:109E48001A7012491248FEF7DBFF88B901A90020F1
:109E5800FFF72EF878B90A210E48FFF789F868B994
:109E68000A210D48FFF784F858B905B05DF804FBDE
:109E7800FDF726F8EAE7FDF723F8ECE7FDF720F809
:109E8800EEE7FDF71DF8F0E7B8CE0200E99C020006
:109E9800D0CE0200E42B0020F82B002008B5FFF7F5
:109EA800CFF800B908BDFDF70BF8FBE738B5054654
:109EB800104B1878FFF7BEFAFFF7AAF90E4C0123EA
:109EC800A360FFF75FF90223C4F808330B4B802225
:109ED800C3F8802105B938BDBFF34F8F0849CA6858
:109EE80002F4E062074B1343CB60BFF34F8F00BF10
:109EF800FDE700BF0C2C00200070004000E100E0EE
:109F080000ED00E00400FA0533DF704708B5FDF7FF
:109F180041FD28B94FF080430122C3F8782508BDD8
:109F2800FCF7CEFFF6E708B5FCF7FAFA00B108BD72
:109F3800FDF746FDFBE7000038B500250FE0FFF709
:109F4800ADFF64244FF47A40194B43F0010398475E
:109F5800013CF7D1FFF790F80028FBD001350F2D11
:109F6800EDDD0020FFF7A2FF9FED0D0B02F080F959
:109F78000022104B51EC100B01F0AFFD00220E4BEC
:109F880001F0F0FE02460B4607A1D1E9000101F0FD
:109F9800A2FD0A4B1C6801F084FD207238BD00BF89
:109FA80000000000000008400000000000C06C40F5
:109FB800E0CE0200000014400000474008230020C3
:109FC80008B50020FEF77CF930B9FEF72BFA30B956
:109FD800FFF79AFF30B908BDFCF772FFF5E7FCF709
:109FE8006FFFF5E7FCF76CFFF5E708B5FDF790FAAA
:109FF80000B908BDFCF764FFFBE708B50120FDF7D1
:10A0080077FF08BD024B4FF40052C3F80C25704788
:10A0180000030050024B4FF40052C3F80825704764
:10A0280000030050024B0322C3F83427704700BFD7
:10A038000003005010B50368632B2BDDA3F1650204
:10A04800622A34D9A3F1C902622A3DD9A3F22D129A
:10A05800622A46D9A3F29112622A4FD9A3F2F511C6
:10A0680040F25622914259D9A3F2D17340F2CE72EE
:10A0780093421BD80220FDF7B9FE0320FDF7B6FE78
:10A08800C8244FF47A402D4B43F001039847013C14
:10A09800F7D10BE00020FDF7A9FEC8244FF47A4061
:10A0A800264B43F001039847013CF7D110BD01202E
:10A0B800FDF79CFEC8244FF47A40204B43F001037F
:10A0C8009847013CF7D1F1E70220FDF78FFEC8243D
:10A0D8004FF47A40194B43F001039847013CF7D1FC
:10A0E800E4E70320FDF782FEC8244FF47A40134BBF
:10A0F80043F001039847013CF7D1D7E70120FDF76A
:10A1080075FE0220FDF772FEC8244FF47A400B4B0F
:10A1180043F001039847013CF7D1C7E70120FDF759
:10A1280065FE0320FDF762FEC8244FF47A40034B16
:10A1380043F001039847013CF7D1B7E7F0CE02009E
:10A14800064A116800234B724B8011688B80CB80C4
:10A158000B80126813729372D37270470823002021
:10A16800074B1A68517A074B197011885970118872
:10A17800090A9970127A9A730022DA73704700BF3D
:10A18800082300201C2C00206DDF704779DF704702
:10A198007DDF704764DF7047F0B583B00488012C19
:10A1A8004BD01488A51C9D4249D80578012D04D1AF
:10A1B800457825440235AB4245D315460E46074639
:10A1C8001C1BA4B2023CA4B202A921F8024D1088BB
:10A1D80002303044FFF7DCFF034688BB3B78022B94
:10A1E80004D07978BDF80620914203D3BDF8062043
:10A1F800A24220D9012B17D0ADF806400822BDF89D
:10A208000630FE2B21D82988013373542B8801335B
:10A218009BB22B80F2542B880133BDF8062012FA2A
:10A2280083F32B8000230BE07B78A342E4D8ADF8BE
:10A2380006300822E3E70922E1E7072300E00C23C0
:10A24800184603B0F0BD0C23FAE70C23F8E70B8897
:10A258000433934223D830B583B00C4605460DF13C
:10A268000600FFF793FF0346B0B923880322EA5498
:10A27800238801339BB223801922EA5423880133AF
:10A288009BB22380BDF80620E918EA54120A4A70E6
:10A298002388023323800023184603B030BD0C23E3
:10A2A8001846704730B41488E51C9D4212D8022322
:10A2B8000B55138801339BB213800124CC541388A7
:10A2C80023449BB21380C85413882344138000206E
:10A2D80030BC70470C20FBE730B41488E51C9D4265
:10A2E80012D802230B55138801339BB213800A241A
:10A2F800CC54138801339BB21380C854138801339C
:10A308001380002030BC70470C20FBE72DE9F04F8C
:10A3180085B005468B46174699460E9EBDF83CA06B
:10A32800338801934FF00008444611E0022126E0EB
:10A3380032884A440DF10B0103A8FFF72BFF0346AF
:10A34800002841D19DF80B30328813443380013402
:10A358002B88A34228DD6B6853F824000390002261
:10A368000DF10B0103A8FFF715FF034660BB9DF82D
:10A378000B30BB42EBD1B8F1000FD7D000213288A7
:10A3880013440B4453450DDCB8F1000FD0D1013212
:10A3980092B2328009F802B03388013333804FF02B
:10A3A8000108C5E70C230FE0B8F1000F0BD0338884
:10A3B800019A9B1A9BB2013B9BB2FF2B08D809F864
:10A3C8000230002300E00023184605B0BDE8F08FF6
:10A3D8000C23F9E72DE9F04182B006461746984666
:10A3E800089CBDF82450019500940222FFF78EFFC7
:10A3F800034618B1184602B0BDE8F08101950094F3
:10A408004346102239463046FFF780FF03460028AE
:10A41800F0D10023EEE70388052B1AD9A3F6814271
:10A4280092B24FF27D318A4215D94288052A14D951
:10A43800A2F6814189B24FF27D3081420FD94FF6A1
:10A44800FF718B420DD08A420DD093420DD8002067
:10A45800704707207047072070470720704707207C
:10A468007047002070470020704707207047F8B5F4
:10A478001788BC1D9C4226D814460D460646FFF791
:10A48800CAFF0346E8B90523EB55238801339BB27D
:10A4980023801222EA54238801339BB22380328816
:10A4A800E918EA54120A4A70238802339BB22380BF
:10A4B8007288E918EA54120A4A7023880233238002
:10A4C80000231846F8BD0C23FBE70B880933934299
:10A4D80031D830B583B00C4605466846FFF754FEC0
:10A4E800034610B1184603B030BD23880822EA5449
:10A4F800238801339BB223801B22EA542088013031
:10A5080080B2208006220DF10101284402F056F89D
:10A51800238806339BB223809DF8002012F0FE0F9B
:10A5280006D10022EA542388013323800023D9E787
:10A538000122EA54F7E70C2318467047F8B58488D7
:10A5480002341688351902359D422BD8FE2C2BD89B
:10A5580001348C55138801339BB21380FF24CC54EB
:10A56800138801339BB213800488CD18CC54240A75
:10A578006C7015880235ADB215808688B6B1D0F8F2
:10A5880008C0BCF1000F13D017460B4604463246EC
:10A598006146581902F012F8A3883A8813443B80A0
:10A5A800002000E00C20F8BD0C20FCE70020FAE7B2
:10A5B8000720F8E7836A002B3ED02DE9F0411446C6
:10A5C8000E468046002508E0304401F0F7FFBB88BE
:10A5D8002288134423800135EDB298F82C30AB4221
:10A5E80027D9D8F8281005EB45039A008F18BB889F
:10A5F8000233FE2B22D820880133335423880133B9
:10A608009BB223801620F054238801339BB2238009
:10A618008A5AF118F254120A4A702088023080B21D
:10A628002080BA88002AD6D0B9680029CCD1072062
:10A6380000E00020BDE8F081072070470C20F9E712
:10A64800F0B583B004460E461546178800231380DC
:10A6580090F82D30002B3BD10023A278002A42D15C
:10A66800E078002848D1606848B13B462A46314620
:10A6780090F90000FFF730FE0346002830D1228908
:10A68800002A43D1228A002A4DD1228B002A57D191
:10A69800206A30B13B462A463146FFF7E8FE0346BA
:10A6A800F0B9606A30B13B462A463146FFF746FFAB
:10A6B8000346A8B994F82C20002A4ED122787AB102
:10A6C8003B462A4631462046FFF766FD034607E02B
:10A6D8003A4629463046FFF7F8FE03460028BCD024
:10A6E800184603B0F0BD3A4629463046FFF7AFFD9D
:10A6F80003460028B4D0F3E73B462A46314640B229
:10A70800FFF7D0FD03460028ADD0E9E70197009593
:10A7180033460622022104F10800FFF75BFE0346D8
:10A728000028AFD0DCE701970095334607220321C4
:10A7380004F11000FFF74EFE03460028A5D0CFE72E
:10A748000197009533461522142104F11800FFF7EC
:10A7580041FE034600289BD0C2E73B462A463146C5
:10A768002046FFF727FF03460028A7D0B8E775DF84
:10A77800704776DF70477ADF70477BDF70470000ED
:10A7880000230BB10020704703EB83018A000649C0
:10A798008A5A824201D00133F3E703EB83039A001C
:10A7A80008461044704700BF482C0020F0B4848845
:10A7B800A618944218D9A41AC288D7189A4215D94B
:10A7C800D21A4B880588AB4214D34088834214D8E8
:10A7D8008B88A34213D3B34213D8CB88934212D3A6
:10A7E800BB4205D8012006E00024E5E70022E8E79F
:10A7F800002000E00020F0BC70470020FBE70020AC
:10A80800F9E70020F7E70020F5E7000008B5024B5C
:10A818009B6903B1984708BD2C2C002010B5FFF7A1
:10A82800A6FF044618B1112801D0FFF7EFFFB4FACC
:10A8380084F0400910BD000030B583B084B22046D2
:10A84800FFF79EFFA0B10546027A154B1B7B9A4283
:10A8580010D300230372124B1B7CB3B9104B5B69F6
:10A8680033B100228DF80420ADF8064001A89847BE
:10A8780003B030BD00F10A012046FFF7CFFF0028E2
:10A88800F6D02B7A01332B72F2E73B212046FFF7F3
:10A8980070FF0028E2D00828E0D0FFF7B7FFDDE717
:10A8A8002C2C002010B58088FFF76AFF38B10446C9
:10A8B8004068FCF791FE18B94FF6FF73238010BD6E
:10A8C800FFF7A4FFF8E7000000B583B00B46497A0C
:10A8D80071B91A7A4AB90E4A516802465868FCF7A3
:10A8E8005DFE88B1FFF792FF0EE0094A9168F4E730
:10A8F80000221A72064B5B6933B101228DF80420DD
:10A90800ADF8060001A8984703B05DF804FB00BF46
:10A918002C2C002070B5C37B8688012B00D070BD1D
:10A9280004464FF6FF70FFF72BFF0546E0B106809F
:10A938000023037200F10A030D4A03CAC5F80A008E
:10A94800184659604FF6FF7340F2F31204F11001F4
:10A95800FFF72CFF6872074BDB89002BDFD12946F4
:10A968003046FFF7B1FFDAE70420FFF74FFFD6E7DD
:10A978005C2C00202C2C002070B5064685882846C3
:10A98800FFF7FEFE70B104464FF6FF7340F2F31274
:10A9980006F108010A30FFF709FF607221462846D0
:10A9A800FFF792FF70BD0000C288104BDB899A4206
:10A9B80000D07047038A022BFBD170B50446858806
:10A9C8002846FFF7DDFE064678B104F1120000F0D4
:10A9D80031F930B97068FCF7FFFD30B1FFF716FFA9
:10A9E80003E031462846FFF76FFF70BD2C2C00208E
:10A9F80008B50388112B0CD006D9122B0CD0502B7C
:10AA080006D1FFF7D1FF03E0102B01D1FFF782FF3A
:10AA180008BDFFF747FFFBE7FFF7AEFFF8E70000C9
:10AA2800F8B5002836D006461C4F3C4605460FCDE3
:10AA38000FC495E8070084E80700194B3B603068AD
:10AA4800F0B1FFF798FE034610BB3268144B10684C
:10AA5800516803C30024D4B91249A30023449A00BF
:10AA680088184FF6FF738B520F4B03EB4413436068
:10AA78000E4A00210430FCF77BFD68B90134EAE78F
:10AA88000748FFF77AFE03460028E3D000E00023DA
:10AA98001846F8BD0E23FBE70323F9E72C2C00200A
:10AAA8005C2C0020482C0020642C002041A80200C7
:10AAB800132801D90020704738B50446054D0146D2
:10AAC80005F10800FCF7E0FD2146281DFCF7DCFD38
:10AAD800012038BD842C002038B50546002407E045
:10AAE800054800EB840029460430FCF7D9FD013401
:10AAF8001C2CF5D938BD00BF842C002008B50146B0
:10AB08000148FCF7CDFD08BD8C2C002030B583B082
:10AB18000546019100230360019B8BB1002400E0EE
:10AB28000134132C0CD8214601A8FCF7C6FD0028D7
:10AB3800F6D02B685A1C2A6005EB43039C80EFE78C
:10AB4800284603B030BD000030B599B0124A93686A
:10AB5800DB4318A840F8043D5168FCF7D7FD179966
:10AB68006846FFF7D3FF0CAD6C460FCC0FC50FCC72
:10AB78000FC594E8070085E80700002407E018AB34
:10AB880003EB440333F82C0CFFF7A6FF01340C9BAE
:10AB9800A342F4D819B030BD842C002038B585887C
:10ABA8000388112B17D004461A2B18D0102B00D06D
:10ABB80038BDFFF7C9FF2846FFF77AFF38B1E37BB6
:10ABC800012BF5D029461648FCF75EFDF0E7042076
:10ABD800FCF776F9ECE72846FFF790FFE8E7047AF8
:10ABE8002409012C0FD929460E48FCF74DFD022CEB
:10ABF80004D929460C48FCF747FDD9E729460A48F5
:10AC0800FCF74EFDD4E7094C294604F11000FCF787
:10AC180047FD294604F11400FCF742FDC8E700BFD0
:10AC2800902C0020942C0020982C0020842C0020AC
:10AC3800AADF7047007800F001007047F0B591B0C6
:10AC480005460C4616468B78DBB901238DF80E3085
:10AC58002388ADF80C300322002102A801F0D7FCAC
:10AC6800637C9DF8082002F0F0026FF307128DF85C
:10AC78000820013B042B10D8DFE803F006202B3610
:10AC880041008DF80E30E3E79DF80830012262F3A9
:10AC9800030362F307138DF80830A37C9DF809209D
:10ACA80002F0F0026FF307128DF80920013B042B24
:10ACB80038D8DFE803F02E96A1ACB7009DF808302D
:10ACC800012262F30303022262F307138DF80830AE
:10ACD800E3E79DF80830012262F30303032262F3DD
:10ACE80007138DF80830D8E79DF80830022262F380
:10ACF8000303012262F307138DF80830CDE79DF8AE
:10AD08000830022262F3030362F307138DF8083058
:10AD1800C3E79DF80930012262F3030362F30713C6
:10AD28008DF80930E27B9DF80A3062F3C303227C78
:10AD380062F30413227B62F300038DF80A30237D4B
:10AD4800002B79D002229DF80A3062F342038DF875
:10AD58000A301C22002109A801F059FC637B13F07A
:10AD6800300F6BD1637B8DF82430A37B8DF82530B1
:10AD78001422002104A801F04AFC03AB049302AB9F
:10AD88000593A388ADF81C30A36823B1E388ADF818
:10AD98001830A3680893A369002B00F0188101AF4D
:10ADA80003220021384601F032FCA3691A88ADF865
:10ADB8002C205A88ADF82E205A680A920D971B7BD2
:10ADC8009DF8042002F0F0026FF307128DF80420BA
:10ADD800013B042B00F29780DFE803F08CA7B2BD9B
:10ADE800C8009DF80930012262F30303022262F3CE
:10ADF80007138DF8093095E79DF80930012262F3B1
:10AE08000303032262F307138DF809308AE79DF8DC
:10AE18000930022262F30303012262F307138DF85B
:10AE280009307FE79DF80930022262F3030362F3D9
:10AE380007138DF8093075E7012284E70322002102
:10AE4800684601F0E4FBE37C9DF8012002F0F00283
:10AE58006FF307128DF80120013B042B0DD8DFE8B2
:10AE680003F0031E29343F009DF80130012262F3EC
:10AE7800030362F307138DF801309DF800300122B7
:10AE880062F3030362F307138DF800309DF8023074
:10AE980062F342038DF80230CDF838D062E79DF8AE
:10AEA8000130012262F30303022262F307138DF8D3
:10AEB8000130E2E79DF80130012262F30303032227
:10AEC80062F307138DF80130D7E79DF801300222AD
:10AED80062F30303012262F307138DF80130CCE714
:10AEE8009DF80130022262F3030362F307138DF821
:10AEF8000130C2E79DF80430012262F3030362F3D4
:10AF080007138DF80430A3695B7B9DF8052002F0D8
:10AF1800F0026FF307128DF80520013B042B38D897
:10AF2800DFE803F02E606B7681009DF80430012283
:10AF380062F30303022262F307138DF80430E2E799
:10AF48009DF80430012262F30303032262F307131E
:10AF58008DF80430D7E79DF80430022262F303032A
:10AF6800012262F307138DF80430CCE79DF8043012
:10AF7800022262F3030362F307138DF80430C2E779
:10AF88009DF80530012262F3030362F307138DF87D
:10AF98000530A369997A9DF8062061F3C3028DF8FC
:10AFA8000620D97AD2B261F304128DF80620197AF4
:10AFB800D2B261F300028DF806209B7B002B3CD0B7
:10AFC80002229DF8063062F342038DF80630E369E9
:10AFD80003B10C93334604AA09A92846FFF728FEB3
:10AFE80011B0F0BD9DF80530012262F3030302227F
:10AFF80062F307138DF80530CBE79DF80530012281
:10B0080062F30303032262F307138DF80530C0E7E8
:10B018009DF80530022262F30303012262F307134D
:10B028008DF80530B5E79DF80530022262F3030379
:10B0380062F307138DF80530ABE70122C1E790DF13
:10B048007047A5DF7047B5DF70471723038043803B
:10B058000023037143711B238371C371704708B5C3
:10B068008B8800EBC3000630FFF7EFFF08BD30B553
:10B0780083B004468D88498900EBC502D3888B428A
:10B0880028BF0B46172B38BF1723138102696AB1F3
:10B0980000EBC501C97A49B140F67721ADF8001037
:10B0A800ADF80250ADF804306946904704EBC5048A
:10B0B8000023E372A37203B030BD70B58EB00646AC
:10B0C80003AC0D1D0FCD0FC40FCD0FC495E80700BD
:10B0D80084E80700BDF80C109DF8102006EBC103AA
:10B0E8005A7333696BB130460024ADF808404DF609
:10B0F8007A24ADF80440ADF806108DF8082001A9AF
:10B1080098470EB070BD000070B584B00546ADF824
:10B118000810ADF80A100023ADF80C30ADF80E3069
:10B128000093ADF804306A4602A9FFF788FF064687
:10B1380010B9304604B070BD114B124CE41AE40843
:10B14800240444F00104FCF7A9FC03462A460E49EE
:10B158002046FBF729FCBDF8002012B9BDF80230E3
:10B168002BB1BDF8023009492046FBF71DFCBDF89C
:10B178000420002ADDD006492046FBF787FBD8E7E4
:10B1880048C7020088C70200F8CE020044CF020078
:10B1980084CF020008B58B88097A00EBC300027BD4
:10B1A800914228BF11461846FFF7AEFF08BD0000C0
:10B1B80070B504468D88027900EBC5031A73CB7B02
:10B1C800012B0ED0022B11D004EBC503D9881B89A3
:10B1D800994210D804EBC504217B637B994228D897
:10B1E80070BD028800EBC503DA80EDE7428800EB0A
:10B1F800C503DA80E8E72846FFF723FF20B904EB08
:10B20800C5030122DA72E5E7112804D104EBC5036E
:10B2180001229A72DEE7094A094EB61AF608360480
:10B22800FCF73CFC0246074946F00100FBF72EFB01
:10B23800D0E72846FFF768FFD2E700BF48C70200FB
:10B2480088C70200DCCF020070B582B005468C8842
:10B25800CB88172B38BF172300EBC402D1888B4249
:10B2680028BF0B461381002393722046FFF7EBFE9D
:10B27800A8B905EBC403DB7A7BB92B696BB140F63F
:10B288007722ADF80020ADF8024005EBC40422890E
:10B29800ADF8042069462846984702B070BD074AB1
:10B2A800074EB61AF6083604FCF7F8FB02460549BD
:10B2B80046F00100FBF7EAFADBE700BF48C70200E7
:10B2C80088C7020010D0020090B138B50446016169
:10B2D8001723038043801B23037100250DB1002031
:10B2E80038BD04EBC5000630FFF7AFFE0135F5E7C2
:10B2F8000E20704738B58588F5B90C460146038895
:10B30800232B22D009D93A2B17D0552B19D0242B0F
:10B318000ED12046FFF7D1FE0AE0102B05D0112BE5
:10B3280006D12046FFF79BFE02E02046FFF740FFCC
:10B3380004EBC5039B7A63B938BD2046FFF797FE37
:10B34800F6E72046FFF780FFF2E72046FFF722FFE7
:10B35800EEE704EBC503D9882846FFF772FE78B1FB
:10B368001128E9D00A4A0B4CA41AE4082404FCF773
:10B3780095FB0246084944F00100FBF787FADBE732
:10B3880004EBC5040023A3720123E372D4E700BFD2
:10B3980048C7020088C70200DCCF0200B0DF704750
:10B3A80066DF7047037A03B9704710B50446002179
:10B3B8004088FFF7F5FF20B1112805D06268904753
:10B3C80010BD00232372FBE701232372F8E708B5B9
:10B3D8000B79012B00D008BD0A8843889A42FAD11C
:10B3E80001230372FFF7DEFFF5E70A8843889A42D4
:10B3F80000D070478B78022BFBD18B7A042B03D0BB
:10B40800062B01D0052BF4D110B584B0002300938E
:10B4180001930293039302238DF800304FF4C07315
:10B42800ADF804308B7A052B0AD00B4604466946E2
:10B438001888FFF7B3FF08B16268904704B010BDE1
:10B448000023ADF80430F0E760B169B10278DE2A74
:10B458000CD00A684260DE2202704FF6FF7242800A
:10B46800002070470E2070470E2070470820704754
:10B4780028B10278DE2A04D14180002070470E20CE
:10B4880070470820704741B338B50D4610B10A78A7
:10B49800DE2A00D038BD044682884B889A420BD0F9
:10B4A8002388112B11D0512B0AD0012BF2D1211D49
:10B4B8002846FFF78CFFEDE70846FFF773FFEFE735
:10B4C800211D2846FFF791FFE4E7A2886B889A427E
:10B4D800E0D14FF6FF736B80DCE77047A8DF704759
:10B4E800AEDF704762DF7047CA8843889A4200D04F
:10B4F80070470B8A012BFBD110B5446924B10B4668
:10B5080001469A7C9888A04710BD08B50388502B3F
:10B5180000D008BD0B4601461846FFF7E5FFF8E7DF
:10B5280030B58FB005460B684361324B01AC0FCB89
:10B5380084E80F0005F112012046FFF7D3FF034608
:10B5480010B118460FB030BDAB7C8DF836300EA95F
:10B5580041F2235321F8043D2A460120FFF7BEFF9C
:10B5680003460028EDD12022002105A801F04FF85C
:10B5780041F22453ADF81430AB7C8DF8163001231A
:10B58800ADF81A30ADF818309DF8212042F01202BB
:10B598008DF821208DF825308DF827302A4632F88D
:10B5A8000A0B05A9FFF74AFB03460028C9D1202248
:10B5B800002105A801F02BF841F22553ADF814300D
:10B5C800AB7C8DF816300123ADF81A30ADF8183081
:10B5D8009DF8212042F00A028DF821208DF82530AF
:10B5E8008DF82630AA1C05A92888FFF727FB0346F3
:10B5F800A7E700BF50D0020070B588B005460E46D8
:10B608008DF807200124ADF80E40102200210DEB23
:10B61800020000F0FCFF8DF812407389ADF810307D
:10B628000DF1070307930DF10E03069304A92846AD
:10B63800FFF756FF08B070BD10DF704710B582B035
:10B6480004460A496846FCF7EFF9019B43B11A68BA
:10B6580059682046904730B16846FCF7EFF9F4E79F
:10B66800002002B010BD1120FBE700BF64D002002B
:10B6780010B582B0044608496846FCF7D5F906E0DB
:10B688001A685968204690476846FCF7D7F9019B25
:10B69800002BF5D102B010BD7CD0020008B50E4BCE
:10B6A80093F816335A09EC23134113F0010F0DD008
:10B6B8000A4B9B682BB1094A136843F48003136053
:10B6C80008E0054B4FF480021A6003E042F20200E2
:10B6D800FBF7F6FB08BD00BF00E100E0F8290020F9
:10B6E80010B582B01B4B1B786BBB1B4B01221A7029
:10B6F8000020FFF7A3FF112829D00020FFF7B8FF8B
:10B70800164B1B68019302A8002300F8053DFBF7C0
:10B7180079FF134901A8FFF78FFF0446B0FA80F0BC
:10B7280040090C4B18709DF80300FBF797FF5CB9B4
:10B738000023094A13700B4A1370FFF7AFFF01206B
:10B74800FFF796FF00E00824204602B010BD002451
:10B75800FAE700BFFD2C0020FC2C002060D002007E
:10B76800E56E0200FE2C0020014B1878704700BFE0
:10B77800FD2C002000B583B008496846FCF754F951
:10B7880005E01A68586890476846FCF757F9019B26
:10B79800002BF6D103B05DF804FB00BF70D00200A7
:10B7A80008B5FFF7E7FF08BD60DF704769DF70473E
:10B7B80061DF70474FF08053D3F80C01800200F12D
:10B7C80000507047124B1B7803B300B591B009E0E5
:10B7D8001A68596803A8904701A8FCF72FF9029B3B
:10B7E800002BF5D110A9342321F83E3D03A8FFF71B
:10B7F800DFFF20B9074901A8FCF716F9EFE705288C
:10B8080001D0FBF75DFB11B05DF804FB704700BF8A
:10B81800FF2C0020C8D2020018B1034A02600020A1
:10B8280070470E20704700BFE022002030B585B079
:10B8380005460C460846FFF7EFFF034610B11846C9
:10B8480005B030BD0C22002101A800F0E0FE8DF803
:10B85800045001238DF806300623ADF8083022681D
:10B8680001A92020FFF7A2FF002845D10C220021C2
:10B8780001A800F0CCFE01238DF8053000238DF8D7
:10B8880006308DF80730226801A94020FFF78EFFA7
:10B8980000283FD10C22002101A800F0B8FE0A239D
:10B8A8008DF80430226801A90120FFF77FFF0028E6
:10B8B8003ED10C22002101A800F0A9FE4FF4B0638C
:10B8C8000193226801A9A120FFF770FF00283DD14C
:10B8D8000C22002101A800F09AFE9DF804306FF3B5
:10B8E80000038DF80430226801A9A020FFF75EFF4D
:10B8F800002839D10023A2E7234A244DAD1AED08C8
:10B908002D04FCF7CBF80246214945F00100FAF76F
:10B91800BDFFABE71C4A1D4DAD1AED082D04FCF721
:10B92800BDF802461B4945F00100FAF7AFFFB1E741
:10B93800154A164DAD1AED082D04FCF7AFF802466E
:10B94800154945F00100FAF7A1FFB2E70E4A0F4D7D
:10B95800AD1AED082D04FCF7A1F802460F4945F091
:10B968000100FAF793FFB3E7074A084CA41AE40862
:10B978002404FCF793F80246094944F00100FAF759
:10B9880085FF00235BE700BF48C7020098C7020095
:10B9980090D00200D8D0020024D1020070D1020059
:10B9A800C4D10200F8B505460768FFF7FDFE064654
:10B9B8002B68BB4205D8F6B9164B01221A703046DF
:10B9C800F8BD154B154CE41AE408240444F00204AD
:10B9D80013492046FAF7DEFE2B683A4611492046FD
:10B9E800FAF7E2FFFFF7E6FE2A68821A0E492046B8
:10B9F800FAF74CFFDFE7084B084CE41AE408240484
:10BA08003046FCF74BF80246084944F00100FAF7C3
:10BA18003DFFD4E7FF2C002048C7020098C702006A
:10BA280018D2020048D202007CD20200A8D202003A
:10BA38004BDF704700B585B009E01A68596801986E
:10BA4800904702A8FBF7FAFF039B002BF5D101A84A
:10BA5800FFF7EEFF20B9064902A8FBF7E5FFF3E779
:10BA6800052801D0FBF72CFA05B05DF804FB00BFF0
:10BA7800E0D20200004204BF0146704710F00042C5
:10BA88004FEA125242F4806242F01D0200D5404251
:10BA9800B0FA80F18840521AC30A400503EB0251FC
:10BAA80070474A000ED2520DA2F54072FF3A09D4EF
:10BAB800D2F11F0208D4C90241EA505040F00040B8
:10BAC800D0407047002070476FF00000704781F049
